:020000040800F2
:101800000050002069A50008B9A40008BDA4000884
:1018100000000000000000000000000000000000C8
:1018200000000000000000000000000051A50008BA
:10183000000000000000000053A5000855A50008A6
:10184000B9A50008B9A50008B9A50008B9A5000800
:10185000B9A50008598A0020B9A50008658A0020AA
:10186000B9A50008B9A50008B9A50008B9A50008E0
:10187000D1540020B9A5000895590020B9A5000849
:10188000B9A50008B9A50008CD6C0020358A002054
:10189000B9A50008B9A500082D920008B9A500084F
:1018A000B9A50008B9A50008B9A50008B9A50008A0
:0C18B000A18A0020419E0008B9A5000894
:101B0B001B4A30B51388642925DDFA2189008B42E5
:101B1B0001D201331380FA24164915880B68164A33
:101B2B006400A5421CD9F43CFF3C1470134A0234E8
:101B3B0014700024124A1470FA221201934201D23B
:101B4B0001330B60FA230A689B00D2089B1A984258
:101B5B0000D998B230BD012BDDD9013B1380DAE7F8
:101B6B00012B01D9013B0B6000231370EAE7C04640
:101B7B0064030020680300206C0300205301002045
:101B8B00540100205308D3189BB230B5994200DDA5
:101B9B0019B21E4C1E4B25688A1A196852198A42B3
:101BAB0000DA0A00FA2149028A421FDC2260FA227B
:101BBB0021689200C911521A12B2111C002A00DAC4
:101BCB0000210AB2824200DA88B2124A1188C82276
:101BDB00520091420CD2F5229200121AD2011A60D5
:101BEB001A68002A01DA00221A6030BD2160DEE794
:101BFB0096229200914204D2074A121AD2011A601D
:101C0B00EEE7121AD2011A60EAE7C0467001002013
:101C1B007003002034010020520300005308D31836
:101C2B009BB230B5994200DD19B2144B8A1A144994
:101C3B001D680C685219A24200DA2200FA24A40291
:101C4B00A24216DC1A601A68FA2312129B009B1A26
:101C5B001BB21A1C002B00DA002213B2834200DAEB
:101C6B0090B2E1239B001B1A1A02002B03DB0A60C4
:101C7B0030BD1C60E7E700230B60F9E7740100201F
:101C8B00740300201A4B70B51A4D040018688A1A99
:101C9B00296812188A4200DA0A0017498A4219DCAD
:101CAB001A60FA2118688900144B9847FA239B0095
:101CBB00181A00B2031C002800DA00231AB2A24241
:101CCB0000DA9CB20E4B1B78002B05D10D4B2B6011
:101CDB00200070BD1960E4E7FA230B4A9B00121B2E
:101CEB005343002B01DB2B60F2E70023FBE7C046DD
:101CFB00780100207803002040420F00495C000867
:101D0B005403002020A10700E70300001A4B70B515
:101D1B001A4D040018688A1A296812188A4200DAC8
:101D2B000A0017498A4219DC1A60FA2118688900DF
:101D3B00144B9847FA239B00181A00B2031C002877
:101D4B0000DA00231AB2A24200DA9CB20E4B1B78C7
:101D5B00002B05D10D4B2B60200070BD1960E4E703
:101D6B00FA230B4A9B00121B5343002B01DB2B6006
:101D7B00F2E70023FBE7C0467C0100207C03002038
:101D8B0040420F00495C00085403002020A10700CB
:101D9B00E7030000F0B5494B1B78002B36D0012828
:101DAB0000D171E0022853D0002836D08026802342
:101DBB008025434FF6053970766A4249424F0E60D3
:101DCB003F784249424E0F8037804249424FDB02F7
:101DDB006D010B61414ECB603D60414D0B61CB60A2
:101DEB0033782E6807243100E31AD9400B00C82141
:101DFB003C4D3D4CDBB22B70890020708E4206D3DC
:101E0B00052B01D905232B70384B1A70F0BD002B15
:101E1B00FAD0013BDBB22B70F2E7354C354EA446C2
:101E2B006346346898251C40A0238027AD00DB0552
:101E3B002C4334609F621D682F4EFC0135402C43B0
:101E4B001C601D682D4E7C0235402C431C60ADE799
:101E5B00274EB024B4466346264F64003E68A02547
:101E6B001E4026433E600C278023254EED05B062B5
:101E7B0034685B03BC43083F3C4334602C68214E01
:101E8B00344023432B6091E7194C6027A4466346EB
:101E9B00184EA0253468ED051C40274337600327F7
:101EAB008023174EDB02B0623468BC4304433460BA
:101EBB002C68154E344023432B6077E7000000203D
:101ECB001C0300202C030020A2010020A6010020EF
:101EDB00300100200018024000E100E04400002027
:101EEB00380100202303002050030020550300205D
:101EFB000FFCFFFF04020140FF3FFFFFFFFFFCFF52
:101F0B0000040050FFFFCFFFFFFFF3FF10B52B4B7B
:101F1B001B78002B28D02A4A13780133DBB20C2B09
:101F2B0018D013701078274B02011B68121A9B18DC
:101F3B009BB2B32B01D9B43B9BB2234A013813702C
:101F4B000A2811D803F078FB081011101B10211070
:101F5B002A1034000023E4E71C4B012218780021DF
:101F6B000130C0B2FFF716FF10BD0220174B032242
:101F7B001B780121C01AC0B2FFF70CFFF4E7002158
:101F8B0005220800FFF706FFEEE7104B0722187833
:101F9B0001210130C0B2FFF7FDFEE5E702200B4B3C
:101FAB0009221B780021C01AC0B2FFF7F3FEDBE752
:101FBB000B2201210020FFF7EDFED5E75403002093
:101FCB00A1010020B0010020A201002090030020FD
:101FDB00802110B5144AC902144B11611448D16009
:101FEB001B6800785B00DB0F98421CD01161D1603D
:101FFB008022104B5201DA670F49104B104A1B78A5
:10200B0009881380994201D9B433138080230D4979
:10201B00DB0508680C4A5C6AC30012681B1A1B19A3
:10202B009B1ADB080B6010BD001802400402014034
:10203B001C03002004E100E0A6010020A201002007
:10204B00300100205C0300202C03002010B54D4B09
:10205B0018884D4B1A7812282DD8002A06D14B49D7
:10206B004B4C0A6822400A6001221A70494B9B8D27
:10207B00002B05D08C2851D9474B1B88312B4DD9C0
:10208B00464B1B78012B23D0022B34D0002B11D1C4
:10209B00A0238022DB059A621A68414911408022F5
:1020AB0012020A431A601A683E49114080229202BA
:1020BB000A431A6010BD012AD8D1344C3449226826
:1020CB0011408022D2020A43226000221A70CDE70F
:1020DB000321354A936213688B43190002230B4388
:1020EB00A0211360C9050B68294A1A4080231B03E2
:1020FB0013430B60DEE70C212B4A936213688B436F
:10210B00190008230B43A0211360C9050B68274A4C
:10211B001A4080239B0313430B60CBE7A023802241
:10212B00DB059A621A681E49012011408022D201F8
:10213B000A431A601A681B49032411408022520279
:10214B000A431A60184A90621168A1430143116057
:10215B0019680F4C0C408021C902214319600221E0
:10216B000C2491621168A1430C00042121431160DE
:10217B001A680E491140802252030A431A600C4B15
:10218B00187097E734010020400000200402014042
:10219B00FFFFF3FF9C03002096010020500300205B
:1021AB00FF3FFFFFFFFFFCFF00040050FFFFCFFFCF
:1021BB003E000020F7B5914E914F32683B88914D10
:1021CB000190841A222B42D98F4B1B6899085A18FD
:1021DB00A24256D38D4928780A680D005200D20FBF
:1021EB0090424DD189218A4A490012688B4201D90C
:1021FB009108521880218748C905496A0068091A55
:10220B0091423DD35A08A2423AD8FA225200934245
:10221B0051D93B88322B4ED901207F4FB847012132
:10222B00784A2B6812789B0F0B409A4228D1764A3A
:10223B007A4B12689A423ED90220B8470121714A63
:10224B002B6812789B0F0B409A4219D133E0002276
:10225B00734B01201A60704B98476C4B2A781B68A4
:10226B005B00DB0F9A420BD1674B1A68530891083E
:10227B005B18D2089B18A342A6D93B88172BA3D96E
:10228B00F7BDFA22388852009042A3D9DA085218C7
:10229B00644909688A429DD2634A5D490632D28FEE
:1022AB000B68002A00D09BE05A09180A1218D318A1
:1022BB000B606309E4185D4B1B78002B01D0FFF713
:1022CB00C5FE534B5A4F19683D788A00521A55492F
:1022DB00584809685218910819606B1CDBB2AD00A5
:1022EB003B702C50062B01D100233B7003684568D3
:1022FB005B1985685B19C5685B1905695B194569CD
:10230B0041485B1905685B191B19DF080760100949
:10231B004118FA208000874201D2920989189D0941
:10232B00DB09ED188D4200D20D00434B39004348B9
:10233B009847434A7D1B13780133DBB20C2B52D0E9
:10234B001370404B404918801378404A098813702A
:10235B003F4A1288521A3249086812185010092A3B
:10236B0043DD08601A01D21A0B689B189BB2B32B82
:10237B0001D9B43B9BB2374A13709622AB0852007B
:10238B00954204D2EA086D095519ADB25B1BF92FC2
:10239B0000D8193B0122002B00DC13002E49CB6225
:1023AB004A620B681A430A60FA21154A890013889E
:1023BB008B4201D2013313800022019B27483360EB
:1023CB00274B10491A80012302780D7813402549B9
:1023DB00DB00002D0CD0CC500022194B1A704FE7AC
:1023EB001A09D31864E70023AAE705220A60B9E7A4
:1023FB00CB1801325C600270EEE7C0464003002050
:10240B00340100201C03002038010020040201408D
:10241B00940300202C030020718A0020AC0D0000D7
:10242B00B00100205C0300209C030020320100203F
:10243B003C01002004000020355B00080E6C3A00C4
:10244B005503002042000020A6010020A10100201E
:10245B0030010020A20100200020004034030020A6
:10246B003601002058010020012020218022074B3B
:10247B0010B5D860D960DA60186119611A618023D0
:10248B00DB05586A024B984710BDC0460018024046
:10249B0035670008254970B50B69254A254C134053
:1024AB000B61254A254B12781B88254893402288BF
:1024BB009B189BB22380DD0A08D002785219D2B246
:1024CB00B32A2ED85B055B0D027023801D4D02785D
:1024DB001D4B1E4C2D781888A35CA418625D4343DA
:1024EB00424315121A4A1E121278DB0AA25C9B1980
:1024FB00504300124B63AAB283B2D208DB085219C5
:10250B001B188A63CB631349134A09781378002984
:10251B0006D0002B07D18023DB05586AFFF74AFE54
:10252B0070BD4C32CEE7013B1370F9E7002C014034
:10253B00EFFF000062030020440000204200002057
:10254B00A20100203C00002096010020B4010020D5
:10255B003D0000205503002023030020F7B5814FD9
:10256B00814D3B78002B00D17BE0804B804A0024CF
:10257B001C5F1378012B09D87E4E3378002B00D0CB
:10258B00B3E013707C4B9847012333707B4B1E7861
:10259B002B78122B04D17A4B1B78334300D12B7041
:1025AB00A3B20193774BA2B21A80FA23764A774DE6
:1025BB001288DB009A4200D8C0E1012E04D1A0237F
:1025CB008022DB0512029A620023FA216B4A490032
:1025DB0013706F4A13806F4A13806F4A13706F4AE0
:1025EB001180674A12789A4204D001206C49087016
:1025FB006C490B70A023DB051B695B0700D4F5E06E
:10260B00694BDB8D002B00D0F0E02B886749013341
:10261B009BB22B808B4200D8EAE03B781A4301D166
:10262B00634B984700232B80544B1B78002B00D116
:10263B00DEE0FA239B009C4200DBDBE05D4B1A786B
:10264B00002A08D101201870574BD9885A4B002902
:10265B0000D0ADE19847FA24019BA400E41AA4B280
:10266B00D8E02B78022B0DD8002B03D101332B7024
:10267B00524B9847524B9847524B98473B78002BFD
:10268B0005D072E7DA1E022A08D806232B702B78A6
:10269B00022B55D14C4B00241C5F77E79A1F022A63
:1026AB0008D8062B03D101332B70484B9847484B66
:1026BB009847E3E71A00093A022A02D80C232B7039
:1026CB00E5E71A000C3A022A02D80F232B70DEE73B
:1026DB001A000F3A022ADAD80F2B03D101332B70D1
:1026EB00254B98473B4B9847C8E73B4A1288F92A3A
:1026FB0011D83A480024045F27480078002802D0FC
:10270B00012037490870FD2B01D801333370324B50
:10271B0001321A803AE73248007801280BD1FA2BA4
:10272B0009D91D4B1B78002B05D01D4B043018709D
:10273B001C4B023818702B4B9A4200D926E7E6E760
:10274B00052B0BD0082B03D1274B00241C5F1DE757
:10275B00112B03D1214B00241C5F17E7FA24A40093
:10276B0014E7C046940100208803002024010020B8
:10277B0048050020A3010020158E000852010020FF
:10278B009A0300205203002032030020880100200E
:10279B003E01002056030020540300204403002078
:1027AB0053010020540100209C030020282300002B
:1027BB0061A10008A001002085610008D98A0008EA
:1027CB00E17600202D8C0008B8050020ED8F000865
:1027DB00258300204D8E00082801002026010020B3
:1027EB00A4010020FDFF0000FA05002000232B8030
:1027FB00FA24A400CC4B1A78012A08D100211970B5
:10280B00CA4BD888CA4B884200D0CFE09847C94BF7
:10281B00E418A4B2C84D2B78132C00D8DEE1002BA2
:10282B0000D0D0E0C54B1B78002B00D1CBE0C44BC4
:10283B0098470600012800D0C5E0C24B98470028F6
:10284B0000D1BDE00322C04B2E701A708023DB0534
:10285B005A6ABE4B1A60BE4B1B78002B0FD1BD4A78
:10286B00BD491380BD4A1370B04A508DBC4A002835
:10287B0000D19FE00B8013600122BA4B1A7001222A
:10288B00B94B1A701423B94A1370B94A1370002349
:10289B00B84A1370B84A1370B84B9847B84B1D78A9
:1028AB00002DFDD1B74B1D80B74B1D70B74B984713
:1028BB009E4B5A8D002A00D185E09B8D002B3BD17E
:1028CB00A0238022DB059A621A68B14903201140CC
:1028DB00802212020A431A601A68AE49AE4E1140AA
:1028EB00802292020A4301211A60AC4A916211685C
:1028FB00814301380143116019680E40802109039F
:10290B0031431960906211680A3081430800082135
:10291B00014311601A68A2491140802292030A43B5
:10292B001A60A04B1D70814B1B8F002B4FD09E4B01
:10293B00200019889D4B98472000FEBD00232B805B
:10294B009E4200D075E69A4AA3B29B18102B00D971
:10295B004EE7984B1B88642B00D849E70123774A35
:10296B001370A0238022DB0512029A616F4BDB8A66
:10297B00002B00D15DE631004B2264208E4DA84721
:10298B0033000A2632008D495F1C7A430978D2B294
:10299B000139994203D150216420A84744E6002114
:1029AB00C820A8473B00082FECD13DE610002DE7CF
:1029BB0010004FE61E230B80814B1B6813605BE7F7
:1029CB000422804B1A70594B9B8D002BABD0132CD0
:1029DB00B2D88023744A9B0012889A42ACD1A023B0
:1029EB008022DB059A621A68694901201140802216
:1029FB00D2010A431A601A686649032511408022E6
:102A0B0052020A431A60654A90621168A943014356
:102A1B0011601968604D0D408021C902294319606E
:102A2B0002210C2591621168A9430D000421294351
:102A3B0011601A685A491140802252030A431A60E6
:102A4B00584B187078E702806246128F002A68D0C4
:102A5B0000214548297001701420444D2870444DC5
:102A6B00287001253B4801803E48057042480170A3
:102A7B000021404801708E4249D08A4203D0364A29
:102A8B001180374A11608021802000254E4AC902EF
:102A9B001161D1601161D1604C4A4001D0674C4A41
:102AAB0080201580A022D2059062106807408020FC
:102ABB00C00107431760166836480327064080207D
:102ACB0040023043012610609E621868B8433043C1
:102ADB0018601068304F38400143116002210C2000
:102AEB009962196881430800042101431960116838
:102AFB002B4B194080235B030B431360FA22294BAA
:102B0B00D2001E70334B1A80334B1D805BE7002ABB
:102B1B00B9D01E21104A1180294A1168104A116040
:102B2B00B1E72A70A4E7C046A00100209C03002057
:102B3B008561000818FCFFFF5403002052010020A0
:102B4B000D820008D16A00084500002040030020D8
:102B5B009A0300203401002042000020A101002034
:102B6B0038010020350300203201002038000020FE
:102B7B00460000202303002055030020916E00081F
:102B8B00D8040020360100202A030020ED7900082C
:102B9B00FF3FFFFFFFFFFCFFFFFFF3FF00040050B1
:102BAB00FFFFCFFF3E0000201E0300201D65000825
:102BBB0020FCFFFF3E010020B16E00081E04002028
:102BCB004C030020530100200018024004E100E0F8
:102BDB00560300204403002024030020002B00D1C7
:102BEB00F1E680222048214B01889C465E8D204FC8
:102BFB00204B9200914200D325E7002E00D022E714
:102C0B000131A02201808021D2059162116801253A
:102C1B0039408027FF010F431760106816490840A1
:102C2B00802149020143032011609D621968814391
:102C3B00294319601168114801408020C0020843E4
:102C4B00022110600C20996219688143080004214D
:102C5B000143196011680A4B194080235B030B4336
:102C6B001360084B1D70AEE61E0300209C03002072
:102C7B00FF3FFFFF00040050FFFFFCFFFFFFF3FFD0
:102C8B00FFFFCFFF3E000020F0B5D04AD04D138898
:102C9B002E78013389B01380002E35D1CD4CCE4B1D
:102CAB00A0799847FA23E2899B005343CB4A1360E0
:102CBB00CB4B1E7001232B70CA4B9847CA4B9847BE
:102CCB00E38A002B0CD014223C215020C74DA8477F
:102CDB000F2231003C20A8471E223C216420A8472C
:102CEB00638D002B0CD00222C14B1A70C14B0132E9
:102CFB009A620023C04A1380C04AD380C04A136033
:102D0B00C04B9847C04B9847C04BC1489847C14EE2
:102D1B00C14C0023F25E93009B1ABD4A0021525E08
:102D2B009B180022A15E9B10CA00521A1BB2338063
:102D3B00D318DB1001936B4604229B5E0293238016
:102D4B000223F25ED3009B1AB14A0227D75FDB192D
:102D5B00DB101BB273800221625E64211701BF1A64
:102D6B00FB181B111BB29B4F638003930422B35EB2
:102D7B00388B5843A94B9847A54B05B2E800401B2D
:102D8B0004255D5F64214019C01000B2B08004229D
:102D9B00A35E1D01ED1A2D182D112EB2019BA680DD
:102DAB00964C039863809D4B98472080002E00DC47
:102DBB000BE2A580A8B27D2524216843984B984748
:102DCB00984900258C460126974B1A688018186085
:102DDB002289511C89B2604500D9F1E1002D01D047
:102DEB0022811860914A00201168CB015B1A02996D
:102DFB005B18DB0913608E4B1B88142B08D9804B97
:102E0B008C481968864B9847E388C018400880B2F5
:102E1B00E080FFF7A3FB3B8A002B00D0D8E1FA211F
:102E2B00854B890058437D4B98470A3080B2834BC2
:102E3B001A881109814200D8D2E181498A4200D80F
:102E4B00CBE1804952181A801A881209111C824250
:102E5B0000D2011C7C4A88B21278002A00D11A8059
:102E6B000023E15E794D502900DCBCE12B78952BDA
:102E7B0001D801332B70FEF743FE2B780190772B93
:102E8B0003D8734A1278002A09D0724A11780029A4
:102E9B0005D1772B03D9032313706F4A13703B00B3
:102EAB004A331B887E89002B0AD06C4861885843B3
:102EBB005A4B9847031C80B2B04200D9331C9EB2C8
:102ECB003A0048325A4B12881B88002A00D090E1F6
:102EDB004A2B04D87B8D002B01D1FA26B6004C4B24
:102EEB0032000421595E0198FEF74CFE05007B8DE4
:102EFB00002B14D14E4B1B88962B10D9404B484EB0
:102F0B0019685748B047574B0A211B685843B047BD
:102F1B00872201B2544B28005200984705007B8D45
:102F2B00002B0AD1424B1B88962B06D9280006236F
:102F3B00E15E4E4A4E4B98470500434B1B78002BE6
:102F4B0004D13B8F002B01D000F0F4FB494B1B78D5
:102F5B00002B01D100F0EEFB7B8D294E01937D21DF
:102F6B002F4B30689847962280B2031C5200904238
:102F7B0000D9131C404A9BB211888B4208D20A23FA
:102F8B002B490B8000230199E380994200D01380D9
:102F9B00FA223A4B12011B88934200D380E1BB8982
:102FAB00002B00D17CE1364B1B78002B00D077E156
:102FBB00344B1C88019B1C43BB8D1C4300D06FE121
:102FCB003B8F002B00D16BE15EE0C046320300204B
:102FDB00560100209C030020856100084C03002053
:102FEB0088030020619F000841720008B16E000841
:102FFB0044000020002C0140420000204001002032
:10300B0038010020F5630008DD610008A986002067
:10301B0098010020A801002068010020495C0008ED
:10302B00355B00087F96980048030020580300206A
:10303B003401002000350C00DE0300003A000020B4
:10304B00291E0000D7E1FFFF54030020510300208D
:10305B006C030020530100205401002010270000B6
:10306B00701700005C030020C9600008041000000A
:10307B002961000852010020360100205603002070
:10308B0098030020E4030020634B28009847634B10
:10309B001880634B1C80634B1C80FA231B019842E6
:1030AB0015D3614A7B8D1288002A00D1B1E05A1EDC
:1030BB0093415E4A5B4213405D4A9B183360142375
:1030CB005C4A13808023DB055A6A5B4B1A605B4BAF
:1030DB005B48998D5B8D194300D01DE3554C504BCC
:1030EB0024881A883B2C00D912E3564CA24200D9F3
:1030FB0012E3FA22544C52006488944205D2534C8A
:10310B00C83A2488944200D219801A885049013257
:10311B0092B21A808A4200D0FEE24E490A78012A06
:10312B0004D1A0228024D2052402946200220A70CA
:10313B0049491A800A8039490A8048490A70022194
:10314B00017047490A70374A464913888B4201D0B0
:10315B00013313800022444B1A70384B5B8D002BCC
:10316B0008D0424B1B88002B04D18023DB05586A07
:10317B003F4B98473F4B9847314B384C1B78002BB4
:10318B0000D1DBE22378002B00D0D7E23A4B9847F3
:10319B003A4B22781B783A4C13433A4A1278134332
:1031AB0000D1CFE200232370374DA847374C23883B
:1031BB00C01A80B27C28F7D9A847208009B0F0BD8F
:1031CB00334A350080180A0003E60023A38009E682
:1031DB00304B01384000C05A29E600221A8033E6F2
:1031EB0002011A8030E64C2900DD44E600232B70E7
:1031FB0041E64A2B04D87B8D002B01D19626760015
:10320B00254B32000421595E0198FEF73BFD05006A
:10321B006DE6224B52E7C0462162000856030020A0
:10322B002403002036010020E4030020DCBAFFFF5A
:10323B00C05D000034010020400300209C030020EF
:10324B0053010020FFF900004001002096010020EF
:10325B0050C30000520100203E0100205403002007
:10326B0054010020FFFF0000260300204200002035
:10327B00356700089D9F00084D600008D8040020AA
:10328B008A010020270300204D9200088C010020AA
:10329B00806967FF04B50008980100209C180000A6
:1032AB00974B984C1B88132B0CD8019B002B09D1E7
:1032BB00954B98473B0048331B88002B00D100E10E
:1032CB00142323800122914B1A70914B1B889C462F
:1032DB00C82B03D98F4B1A788F4B1A703B0048338E
:1032EB001B88A62001937E8D002B03D02938002E3E
:1032FB0000D029302388042B07D8002E05D1019B41
:10330B00002B00D1E0E014232380BB8D0493002B12
:10331B0014D07B4B1B88952B04D82A1C962D00D9D7
:10332B00962295B2002E09D17C4AD288272A05D83D
:10333B00033B2E2B02D80222714B1A80FA21704BC1
:10334B0049001A8802238C4504D2213393429B41B6
:10335B005B42023372490F68002E00D0B7E0232A7C
:10336B0000D8B4E04208944500D8B0E03C006D4A68
:10337B005C4391680291A1422DD811680391A1423F
:10338B0029D8D168A14226D85268A24223D8029CE0
:10339B005C430594A7421ED80C005C430694A742DD
:1033AB0019D8039C5C43A74215D8534307939F42FC
:1033BB0011D8FA235B009C4500D388E0059B99420A
:1033CB0009D8039B06998B4205D8A24203D8029BCE
:1033DB00079A93427BD9544A13780133DBB21370AB
:1033EB00082B02D91222464B1A80454B1A884F4B99
:1033FB00632A79D8002E77D101211970414B1B8894
:10340B001C0003001D2A66D8C82C03D9C8233D49CC
:10341B000B8003004549464C097800296CD0002EDF
:10342B006AD121780131C9B2217049B2002902DA7F
:10343B0081085B189BB239490988502905D9430883
:10344B00642902D88308C31A9BB2A84274D2222AD9
:10345B0000D817E16346944500D9131C99B28142F9
:10346B0000D2031C9BB22649934206D2049A002A2F
:10347B0002D06246312A00D90B80002E5ED10A8819
:10348B00AF212C4C090124688C4200D2F0E00321BF
:10349B004B439BB2962149008A420CD911002D391E
:1034AB00FF395B18C8219BB249008A4203D9913A74
:1034BB00FF3A9B189BB22A1C9D4200D91A1C95B24D
:1034CB003CE050232380FDE6502323801DE70022A0
:1034DB00154B1A7089E7C82149008C429AD90B0009
:1034EB0008490B80030095E70021197003008E42F9
:1034FB0090D043009BB28DE7002121709BE7C04623
:10350B003401002042000020316300089A030020A0
:10351B00960100209003002047000020400100206E
:10352B003801002058010020300300203503002013
:10353B006003002058030020222A8BD88B4B1B786A
:10354B00002B07D0FA218A4A490113888B4201D2FA
:10355B0001331380874B1B88312B09D8FA22844BFC
:10356B00D2001988914203D983498F4200D81A801F
:10357B00019B2C00002B21D0002E1FD1FA217C4B5C
:10358B0009011B8801938B4203D258437B4B98470D
:10359B0080B22C1C854200D9041CA4B2A5420DD9C3
:1035AB00FA21019B09018B4208D9754A281B9446C5
:1035BB0063445843714B98470419A4B2714B598B10
:1035CB0000291CD0FA239B006F4D63432A6801929C
:1035DB0093425CD9694B6D489847019BC2186C4B61
:1035EB009A4251D82A60FA212D686A4B280089002B
:1035FB009847844203D9684B9D4200D884B2614BF3
:10360B00998B00291CD0FA239B00644D63432A68D5
:10361B000192934240D9594B5C489847019BC21881
:10362B005B4B9A4235D82A60FA212D68594B2800FA
:10363B0089009847844203D9574B9D4200D984B2E5
:10364B005749584A0B78002B2ED0013B0B700023A7
:10365B001380002E39D1AF23DB009F4226D2524B71
:10366B001A78002A00D132E5504A96621E702EE578
:10367B009B009BB2FA2A00D81DE71100FA395B18A0
:10368B009BB207E71D0059E7494B2B60ABE72B605B
:10369B00A9E7474B2B60C7E7FA225200944201D3AC
:1036AB002B60C1E7434BFBE71480D2E7C823DB0059
:1036BB009F4200D80BE53C4B1A78012A00D106E556
:1036CB0001223A498A621A7001E53B4B9F420AD9A3
:1036DB00354B1A78022A00D1F9E40321334A91625F
:1036EB0002221A70F3E4E122344B9200FB1893424E
:1036FB00E1D3E1235B009F4200D9E8E42A4B1A781F
:10370B00002A00D1E3E4002228498A621A70DEE421
:10371B00052A01D9053A1A800378022B00D012E54D
:10372B00144AF3331288FF339A4200D80BE5002377
:10373B00037008E500221B4B1A800EE50022204B7C
:10374B001A7025E52378C72B01D801332370237812
:10375B00C82B06D11B4B9847C92323701A4B98478C
:10376B0022E5C92B00D01FE5F8E7C0465403002023
:10377B0044030020340100201F4E0000495C000868
:10378B0060F0FFFF9C0300209001002048E801003F
:10379B003F420F00355B00081FA1070034000020DB
:1037AB00450000209601002044000020002C014021
:1037BB0040420F0020A107000E060000D9FDFFFFBD
:1037CB0055010020E17C0008858000088023F7B5B7
:1037DB00954F964E964D974CDB012F61F3672369FE
:1037EB00954A134000222361944B1A70944B9847CF
:1037FB00944B954A9C4690491B7812780097300061
:10380B00270001919A424FD0904A9149127809783A
:10381B000A4349D18F4A904E1088002807D10321C3
:10382B00594371188C788D49E400091BE9628C4966
:10383B00441C0D5C032159438748A4B2085C1480D7
:10384B00002806D0242C04D1834C013808550021C4
:10385B00118003245C4383483619415D7478451904
:10386B0061430C12C90A0919796329003C310878A4
:10387B007178783541430812C90A0918B963287859
:10388B00717841430812C90A0918F9631188242970
:10389B0007D10133DBB23C2B04D061460B70002304
:1038AB001380F7BD0023F8E7A0228023D205936293
:1038BB0013686D4903250B408021C9010B4313602D
:1038CB008C466A4B11686A4E194080235B020B438E
:1038DB0001211360674B99621C68AC430C431C605D
:1038EB001168654C21408024E402214311600221C0
:1038FB0099621D680A318D4308392943196080216B
:10390B001568490335402943116000217963B96378
:10391B00F963C467009C4648046164463D694648A8
:10392B00B446054055483D6104605548524F0578F3
:10393B004D4C00978D4202D180252D029562514A44
:10394B00514F1180514A80251160BA8D504E100095
:10395B00A022D205002839D13F8F002F36D0956297
:10396B00176842483C408027FF013C4314601468B1
:10397B0004408020400220430124106003209C62FD
:10398B001F6887433C431C6017683B4C27408024CF
:10399B00E4023C43146002240C279C621C68BC4369
:1039AB00270004243C431C6064461768274080248E
:1039BB0064033C4314609C692043986193691D43E5
:1039CB00956131700022334B1A706AE7956211686A
:1039DB00264821408024E4010C4314601168032421
:1039EB000140802040020843106001209862196852
:1039FB00A1430143196014681F490C408021C9027F
:103A0B002143116002210C2499621968A1430C0017
:103A1B0004212143196063461168194080235B031D
:103A2B000B4313603070CDE7FEFF000004E100E0B4
:103A3B0000140040002C0140EFFF00008A01002021
:103A4B00ED790008D7040020D60400205403002091
:103A5B00170500202004002022040020B70B0000D3
:103A6B00FC00002048000020FF3FFFFFFFFFFCFF92
:103A7B00FFFFCFFF00040050FFFFF3FF00E100E06A
:103A8B0052010020420000209C030020380100203E
:103A9B003E000020D804002041404BB2002B25DB18
:103AAB004900C8B243B2002B27DB4000C0B243B27F
:103ABB00002B29DB4000C0B243B2002B2BDB4000B4
:103ACB00C0B243B2002B2DDB4000C0B243B2002B7F
:103ADB002FDB4000C0B243B2002B31DB4000C0B241
:103AEB0043B2002B33DB4000C0B2704707204900C4
:103AFB004840C0B243B2002BD7DA07214000484000
:103B0B00C0B243B2002BD5DA072340005840C0B2F5
:103B1B0043B2002BD3DA072340005840C0B243B264
:103B2B00002BD1DA072340005840C0B243B2002B20
:103B3B00CFDA072340005840C0B243B2002BCDDA96
:103B4B00072340005840C0B243B2002BCBDA072307
:103B5B0040005840C0B2C8E7F0B5B64B8BB005007B
:103B6B0002919847B44A1368C31A642B18D8B34907
:103B7B00B34E0C7833781060002C0BD0013CE4B2C0
:103B8B00013B0C703370002C00D11FE1002420008E
:103B9B000BB0F0BD002B00D16DE2013B3370F6E7AB
:103BAB0000241060A74BA84AA84FA54EA3491C7030
:103BBB003C7034700C701470140001923B78A44864
:103BCB005A1C2478D2B203903A70C554002C47D1BA
:103BDB00022A0BD0012A00D909E100D00AE1072003
:103BEB000540012DD3D000233B70D0E7EB43DB0620
:103BFB0000D011E10378D809012800D1C0E10120E0
:103C0B00019C5B00DBB2207058B2002800DAB2E1F5
:103C1B005B00DBB258B2002800DAA7E15B00DBB235
:103C2B0058B2002800DA9CE15B00DBB258B20028E6
:103C3B0000DA91E15B00DBB258B2002800DA86E1D2
:103C4B005B00DBB258B2002800DA7BE15B00DBB231
:103C5B0058B2002800DA70E15B00DBB279480370E0
:103C6B007C4B1C78A2423CD27649087845406BB21B
:103C7B00002B00DA5CE16D00EBB258B2002800DAE1
:103C8B0051E15B00DBB258B2002800DA3CE15B008B
:103C9B00DBB258B2002800DA31E15B00DBB258B27C
:103CAB00002800DA26E15B00DBB258B2002800DA0C
:103CBB001BE15B00DBB258B2002800DA2EE15B009F
:103CCB00DBB258B2002800DA23E15B00DBB20B70E9
:103CDB00A24200D85AE70023019A002413703B70CC
:103CEB0055E7A242F4D10398564B8218013A127849
:103CFB001B789A4271D101230200007803426CD0E9
:103D0B001C0052781440134267D0C309012B00D119
:103D1B004EE1514B1B78012B00D164E14F4B5049C5
:103D2B001B7809785B1ADBB29900591849005B18AC
:103D3B000433DBB2DD08E900CB1ADBB2591D49B203
:103D4B00CE43B4460126520901381043039A083377
:103D5B005070DBB2501962469E40D217B446160023
:103D6B0085780E40354104956546991B6E1E457846
:103D7B00CAB203950B2502920832D2B22900AD1AB2
:103D8B00AC46039DCB1A2E40654604999E40A94034
:103D9B000E4333B20A2A05D8029AC178053252B2C1
:103DAB0011410B43002294462E492F4A0E880020C6
:103DBB0001360E801688019D0136168062462B490E
:103DCB00287038702A480B800280E0E6294B029A53
:103DDB0059781878284B9847D9E60021274B019A38
:103DEB00002411701A88397001321A80CFE643789B
:103DFB001E2B47D0032A08D0042A12D1002D00D144
:103E0B00C5E6442D00D0EEE6C1E6002D00D1BEE69E
:103E1B00492D00D0E7E6BAE643781E2B00D1B5E674
:103E2B00B5E6052A00D02BE1039B1A79144B1A70C7
:103E3B00ADE6C046AD9A0008540500202A050020C7
:103E4B0051050020290500205805002047050020BA
:103E5B002F050020210100204C0500201E0400200E
:103E6B00220100204A0500203E01002024010020F1
:103E7B00320300202C0500201D8B00204E05002056
:103E8B00500500200A2A2CD1039B9B78492B00D08C
:103E9B00A9E6039BDB78442B00D0A4E6039B1B799C
:103EAB005F2B00D09FE6039B5B79522B00D09AE6E9
:103EBB00039B9B79652B00D095E6039BDB79732BDA
:103ECB0000D090E6039B1B7A652B00D08BE6039BFF
:103EDB005B7A742B00D086E6AC4B9847AC4B98477B
:103EEB003A78092A00D97EE650E607205B0043406A
:103EFB00DBB2E0E607205B004340DBB2D5E60720F0
:103F0B005B004340DBB2CAE607205B004340DBB2F9
:103F1B00BFE607205B004340DBB2D8E607205B001F
:103F2B004340DBB2CDE607255B006B40DBB2AAE674
:103F3B0007236D006B40DBB29FE607205B0043401D
:103F4B00DBB28BE607205B004340DBB280E6072049
:103F5B005B004340DBB275E607205B004340DBB2FE
:103F6B006AE607205B004340DBB25FE607205B009D
:103F7B004340DBB254E607205B004340DBB249E62B
:103F8B008448007800280BD15C068348640F6400DA
:103F9B00205A844664468148240A0470644644705F
:103FAB00072401205B006340019CDBB220702BE6F1
:103FBB00784B1B78002B00D0ADE6794B794D0593F0
:103FCB001B7804932B789C46049B634544D01D00BF
:103FDB006346EB1ADBB25D000D707349097801394A
:103FEB0049003170A0E66E4D01092B78994206D03D
:103FFB0011256C49357009785B1ADBB294E66B4A74
:10400B00654B1288598804929E8807A8B4460E0AFD
:10401B008670DE88417019881B8901706146C170FA
:10402B00090A01714671310A1E0AB446C37163460F
:10403B00817103720499049B029A43720E0A5C4BC2
:10404B000B2186729847574A2B78127803999B1A43
:10405B0008784A78DBB267E6504B029A59781878A1
:10406B00544B9847059B2A781B7803999B1A087821
:10407B004A78DBB2B1E7504B504F1C0001939DE5E2
:10408B004F4B04931B7801939A4200D27FE5052A8C
:10409B0000D87CE5002B00D1A5E5013B9BB29C46EB
:1040AB00002500210720002B2AD159E05D00EBB23F
:1040BB006DB2002D3CDB5D00EBB26DB25B00002DF1
:1040CB0032DBDDB25EB2002E3CDB6D00EEB26DB2C8
:1040DB00002D32DB7600F5B276B2002E1FDB6D00C1
:1040EB00EBB26DB25B00002D15DBDDB25EB26D0085
:1040FB00002E00DA454001318BB2EDB29C4526D93A
:10410B00039B5B5C6B405DB2002DCFDA5B004340E1
:10411B005DB2DBB2CDE743405EB2DDB2E7E76B00E9
:10412B0043405DB2DBB2DDE743405EB2DDB2CAE7CE
:10413B005B0043405DB2DBB2C0E7730043405EB24D
:10414B00DDB2CAE76B0043405DB2DEB2C0E7039B52
:10415B0001995B18013B1B78AB4201D18A4204D019
:10416B000023049A3B70137011E50D4B03991B78D8
:10417B004978994205D00023049A01243B701370AF
:10418B0005E5100002990F4B9847F4E7316D0008D5
:10419B0061A100084C050020400100202C050020E7
:1041AB001E04002022010020230100204E050020C8
:1041BB00958200081D8B0020580500204705002024
:1041CB0050050020D5830008034B40001B5A034ABF
:1041DB005BBA13807047C046400100202C050020BD
:1041EB00F0B5D04B95B00B931B78002B00D1C5E1EC
:1041FB00CD4BCE4A5B680592DB431278DBB2019262
:10420B000093012A01D100F0B3FBC94B009A197836
:10421B000293561AF6B21F2E01D800F01BFDC54BA8
:10422B001B78012B01D000F020FDCB43D318DBB260
:10423B00DE2B00D8A4E114000A000B001032D2B21E
:10424B0020331202DBB21B040A431A430B00303338
:10425B001B061A43B84B260213409C46B74BB84D6E
:10426B0053400393B54B2704634404932643039BAA
:10427B00601A3E432706049C2B406340B14C3E43DF
:10428B006240340004942C430394AE4C3700A44496
:10429B002C005F40BC43A84E2700039C1E40A61B6E
:1042AB0064462038C0B2000901302A4006908008CD
:1042BB00844662407E4001282AD09F489F4F104081
:1042CB00C619A04F9D4B3C0000192C0053402B40AE
:1042DB007A40049F73405F40BC432A402700424012
:1042EB006046954E039C1E40A61B7E4002280FD0B5
:1042FB009148924B049E5340024090482B40121819
:10430B0053405E40B5432E008B4A1A40A21A5640CA
:10431B00069C032220009043020000010818360E71
:10432B001B0EC0B2A24213D00300009A1033DBB2B3
:10433B00D61AF6B21F2E0BD903002033DBB2D61AD6
:10434B00F6B21F2E04D903003033DBB2D61AF6B205
:10435B00029A13700F2E00D8C0E07B4A7B4C03925D
:10436B007B4A04927B4A0692039A1578F02D01D86A
:10437B0000F09CFB5A1ED2B252005800255A0499E9
:10438B00A25A0968AD1AADB28C461A0089008D424B
:10439B0000D399E05E1CF6B27500625B205A121ACC
:1043AB0092B2914200D8D1E29A1CD2B25600A05BD5
:1043BB00655B401B80B2814200D891E2DD1CEDB2FF
:1043CB006800225AA65B921B92B2914200D889E2F6
:1043DB001A1DD2B25600A55B205A2D1AADB2A942B6
:1043EB0000D87DE25D1DEDB26800225AA65B921BE0
:1043FB0092B2914200D875E29A1DD2B25500665B1B
:10440B00205A361AB6B2B14200D869E2DE1DF6B2B6
:10441B007200A05A655B401B80B2814200D895E2C6
:10442B001D000835EDB26E00A05BA75A2A00C01B19
:10443B0080B2814200D813E31D000935EDB268004C
:10444B00225AA65B921B92B2914200D84AE21A0002
:10445B000A32D2B25600A55B205A2D1AADB2A94230
:10446B0000D83DE21D000B35EDB26800225AA65B69
:10447B00921B92B2914200D834E21A000C32D2B2A3
:10448B005600A55B205A2D1AADB2A94200D827E2DF
:10449B001D000D35EDB26800225AA65B921B92B23D
:1044AB00914200D81EE21E000E36F6B27500625B1A
:1044BB00205A121A92B2914200D847E20F33DBB264
:1044CB005A00A25A1A00615B0099C91AC9B20E2987
:1044DB005FD8029A1370059B1B7801931E4B1B89A7
:1044EB00002B00D063E31D4A1D4B0021525E1D497A
:1044FB005001801A80008018C0009847FA239B0057
:10450B00C3189BB2184A1380019B012B36D1174B52
:10451B001B88192B01D900F052FC0E4B1B88192B51
:10452B002CD925E0750500201C00024088030020D3
:10453B00BC050020540300207F7F7F7F10101010DC
:10454B0080808080404040407C050020D4080020C3
:10455B0078050020C40500209C030020C205002024
:10456B00495C0008FF070000B8050020C0050020CB
:10457B00002203230B990A70059A137015B0F0BD36
:10458B00009B1031C9B25E1AF6B21F2EF8D80B0081
:10459B00DEE6069909880791072938D90599097824
:1045AB00022934D130259E31C90508680191A843F1
:1045BB0008600020CD4DCE492E6807900130864310
:1045CB002E600F68CB4E87437F3040000F60010099
:1045DB0001203768874337600F00C5494F606F6014
:1045EB002F6807432F6007000D6805430D603025CA
:1045FB0030680199384330600868A843103D284360
:10460B000860FF2002990870002006990880604618
:10461B00B94D5200A95AA65A4000891B89B2814252
:10462B0000D989E319000F31C9B2019149006E5AC3
:10463B00B2480A91A15A0068711A89B2814200D915
:10464B00B3E3A95AA25A8A1A92B2624500D9E9E297
:10465B00AB490E88B24200D85EE18022A027C02170
:10466B00E02012020C92A74A3F020E92A64A0F9725
:10467B000992A64A0902A64F000208910D925A1CF4
:10468B00D2B25200A95AA25A8A1A92B2624500D9E2
:10469B00CCE2964205D30D9A0F9809920C9A0E9F75
:1046AB0008929A1CD2B25200A95AA25A8A1A92B2F2
:1046BB00624500D9BEE2964201D3099F0898DA1CE5
:1046CB00D2B25200A95AA25A8A1A92B2624500D9A2
:1046DB00B8E2964204D2802252013A4317B290B20A
:1046EB001A1DD2B25200A95AA25A8A1A92B2624524
:1046FB0000D9A3E2964204D2802212013A4317B2A8
:10470B0090B25A1DD2B25200A95AA25A8A1A92B228
:10471B00624500D99AE2964204D28022D2003A43F3
:10472B0017B290B29A1DD2B25200A95AA25A8A1A43
:10473B0092B2624500D994E2964204D28022920052
:10474B003A4317B290B2DA1DD2B25200A95AA25A0A
:10475B008A1A92B2624500D97FE2964204D2802235
:10476B0052003A4317B290B21A000832D2B252003A
:10477B00A95AA25A8A1A92B2624500D97CE2964291
:10478B0003D280223A4317B290B21A000932D2B246
:10479B005200A95AA25A8A1A92B2624500D967E20C
:1047AB00964203D240223A4317B290B21A000A3211
:1047BB00D2B25200A95AA25A8A1A92B2624500D9B1
:1047CB0062E2964203D220223A4317B290B219000A
:1047DB000B31C9B249006A5A615A521A92B26245F8
:1047EB0000D94DE2964200D2B3E01A000C32D2B29D
:1047FB005200A95AA25A8A1A92B2624500D98EE285
:10480B00964200D2AAE01A000D32D2B25200A95A37
:10481B00A25A8A1A92B2624500D98CE0964200D213
:10482B00A1E01A000E32D2B25200A95AA25A8A1A29
:10483B0092B2624500D981E0964200D2B0E00A996B
:10484B006A5A615A521A92B2624500D970E2964284
:10485B0000D2AAE00223082604259C46C20AC30BF9
:10486B005A40C3095A40870B830A5F4083097B4038
:10487B004709BFB20897D2009B003240070B2B4071
:10488B00060A089D7E40470B6F40012513432E40BF
:10489B0002092A40350055401D43430A5F406346D9
:1048AB000F217F001F40019E029B3D431E700F276F
:1048BB000140A94200D19BE0164B1B78002B78D00E
:1048CB00079B069A01331380019B1900009A521A19
:1048DB00D2B20F2A00D947E5059B1B780193FDE562
:1048EB001300F1E52B002A00EEE5C0461C00024048
:1048FB000800024000400140D40600208005002043
:10490B007205002000A0FFFF00C0FFFF0080FFFF2B
:10491B0000E0FFFF540300208022C020D201802141
:10492B000892099200228901C00107000F910E9194
:10493B000D920C92A3E60E33DBB20193079B069A02
:10494B0001331380029B019A1A7017E63300320071
:10495B00BAE510223A4317B290B246E708223A431F
:10496B0017B290B24FE704223A4317B290B258E70E
:10497B00C7481A000378C749934200D108E10A8857
:10498B00FA23009C5B0004709A4201D0FFF73DFCB8
:10499B000022C14B0A801A8801321A80FFF735FCBE
:1049AB0002223A4317B290B249E701233B4398B234
:1049BB0050E77D40EDB2A94200D081E7B74D2B788F
:1049CB00002B00D08EE10122B54B2A70089A1A7089
:1049DB000025B44BB44A1988108801311980B34BA8
:1049EB00013010801D80B24A019B158019006DE7C4
:1049FB00B0490B88002B35D0089B9B180B80002AE5
:104A0B0038D0089D6B1E2E2B00D8C6E0AA4B1B7806
:104A1B00002B2FD1A94B11AD5E889888320A1989CA
:104A2B006A70DA881B88AE702B70060A0B0A287125
:104A3B00EE70A971160A09216B712800A04B2A721E
:104A4B00EE719847030000226B7228009D4B0A21E0
:104A5B0098476B462027DF5F029B1B7801930CE086
:104A6B002B0031E58020089B00019B188342C5D1A8
:104A7B00002702E06B462027DF5F00258A4A894B1F
:104A8B001088198801301080884A01311580059AE9
:104A9B0019801278864B1F80022A01D1069B1D803C
:104AAB0000217E4A019B117019000FE7002D01D1E7
:104ABB00854A1560009FF81EC0B27E1F4000205A29
:104ACB00F6B276000090B4466846B91FC9B24900E9
:104ADB000491F91F01913E003A1F0A3F069707798F
:104AEB006046D2B25200A25A205A01390190049862
:104AFB00C9B2205A490084466846007E04914100A1
:104B0B000691614600987F00821A0198E75B401A74
:104B1B000499093E615AF6B2019106997600A65B9B
:104B2B00645A6946A44600900888898894B201911A
:104B3B00614689B28C46BFB2B6B2844270D8019935
:104B4B0094B2791A88B2844268D86146761A90B2C8
:104B5B00B1B2884260D892B211005C481B3989B25D
:104B6B00814236D9B421C9008A4200D918E14A4999
:104B7B000A88013292B20A80182A05D90021032231
:104B8B000B98017005990A70029A10331370F5E4B3
:104B9B000A88013292B20A80F2E64D4A4D4B505DC3
:104BAB0019780130013100275055197065E7404BDA
:104BBB0000229B5E2F2B00DCEEE080222F3B9BB272
:104BCB00D200934200D39DE4FA229200D31A9BB2F7
:104BDB0098E4DC2D00D8A7E03B4E30681018F02D80
:104BEB0000D0A0E014213C4FB8476423441E63431C
:104BFB0034601800B221B8470022230137491C1B2F
:104C0B0064000C60364E244B029930800A701A8077
:104C1B00039B01351D70B1E4321C9CE70A1C94E721
:104C2B0002008CE70133DBB2019387E60233DBB280
:104C3B00019383E60333DBB201937FE60533DBB2EB
:104C4B0001937BE60433DBB2019377E60633DBB2E9
:104C5B00019373E60B00FFF77DFB0833DBB2019387
:104C6B006CE60733DBB2019368E60B00FFF775FBCD
:104C7B000A33DBB2019361E60933DBB201935DE6E4
:104C8B000C33DBB2019359E60B33DBB2019355E6E0
:104C9B00C6050020BE050020C405002085050020A8
:104CAB00C8050020C00500203E0100203203002073
:104CBB00C2050020BA05002094010020400100200D
:104CCB0075820008919B000878050020B502000052
:104CDB008705002084050020355B00088005002037
:104CEB0072050020012B79D0022B00D070E66A46AA
:104CFB002026434992194348CB8B12788270192B8B
:104D0B0072D0098C090A0B4306D141783E4B0078CF
:104D1B009847029B1B78019300232B7058E60D33A9
:104D2B00DBB201930AE63060029A103313706FE71F
:104D3B001033DBB2019301E62020A02330270122A0
:104D4B0080268446DB0519683048B943196004682E
:104D5B002F49944304600D682E4C95430D602568D4
:104D6B007600954325604E6046600568079E1543A7
:104D7B000560086801361043086021680A436146E4
:104D8B0022601A68BA430A431A60FF22069B1E80F0
:104D9B00029B1A70FFF7F2FBFA239B00FFF7B2FBA3
:104DAB001D490A88043292B2E3E60299079A0B78FE
:104DBB0006980132083302800B70FFF7DFFB164AAF
:104DCB0012889A4201D3FFF7D3FB144B1B78002BAD
:104DDB000FD00223059A1370FFF7D0FB6246094BE5
:104DEB002A70089A5A70F3E50B8C1B0A652B93D12A
:104DFB008BE7E12001210A4B40029847E9E7C046C7
:104E0B009C030020C8050020957C00081C00024074
:104E1B000800024000400140C4050020940100201E
:104E2B00DD9A0008F0B5BB4987B00B78002B40D05A
:104E3B00B94BBA4C5A682578D243D2B2072D3AD027
:104E4B00B74B90B284461888904232D0B54EB64FCD
:104E5B005200D75B925B66460020BA1A1E80B34F96
:104E6B00B34E92B23080BA4200D977E0B14E33786C
:104E7B00312B3DD8B048120901331018AF4FDBB2BC
:104E8B0080B23370B84200D9CFE0AD48027801321E
:104E9B000270322B00D1FBE0072D0AD1A94B1B88E6
:104EAB00192B06D9A84B1B78002B00D128E108231E
:104EBB00237007B0F0BD9E48A44E038837780133AA
:104ECB009BB20380974200D19BE000208446327056
:104EDB0066469F489F4F00783E80192803D8FA20DA
:104EEB0000018342ACD9002209230A702370E0E74A
:104EFB00994B92491D8801936A438F4B121196B2BD
:104F0B00F3189BB28B426ED8944B1B78002B4ED16F
:104F1B00934F1204798A120C501A43011B1ABA8A46
:104F2B009B001818511A8F4BC0009847FA23FA228E
:104F3B009B00C3189200934200DA1300FA22D200AE
:104F4B00934200DD13003A89002A00D0C5E03128D6
:104F5B0000DCD2E09BB2844A13802CE0A0223025E7
:104F6B0001218027D20514687F00AC436A4D146081
:104F7B002E687E4C8E432E6020687D4E88432060C9
:104F8B0030688843306067606F602F6820200F4364
:104F9B002F6025680D43256030253468214331602F
:104FAB001168A9430143116000221A8081E7FA229C
:104FBB006D4BD2001A8000239C466E4A614B1788BA
:104FCB006D48013717801A886C4901321A80624686
:104FDB00007809786A4B08431A8004D1694B30007A
:104FEB009847019B1D8829003000674B98471D3857
:104FFB0080B2042803D8544B1B78002B27D025787C
:10500B004AE7FA20844632706646524FB60038881B
:10501B00013080B23880B04278D100204C4E3880BD
:10502B0030780130C0B2307057E710006538C628B1
:10503B0008D9243A3E2A00D92BE74148827801321D
:10504B00827026E73E4842780132427021E74F4B8F
:10505B0003AD5E889888320A19896A70DA881B88D2
:10506B00AE702B70060A0B0A2871EE70A971160A26
:10507B006B7128000921464B2A72EE719847030089
:10508B0000226B7228000A21424B9847257803E7D0
:10509B002B48037842788078934207D9834205D90D
:1050AB00282B03D901222C4B1A80F5E6934207D209
:1050BB00824205D9282A03D90822274B1A80EBE60E
:1050CB00834200D30FE7824200D30CE7282800D895
:1050DB0009E71822204B1A80DEE62F495B185B008C
:1050EB009BB2012A00D036E72C4A9A18492A04D9D8
:1050FB002B4A9A18492A00D92DE7FA239B002AE755
:10510B00E1200121274B40029847D0E61048007858
:10511B00E3E6C046F90500201C000240880300208E
:10512B002C060020D4080020D4060020409C000050
:10513B000C06002003060020DFFCFFFFDA05000051
:10514B0000060020FE050020940100200E06002022
:10515B002E060020FC050020040600202B06002054
:10516B009C030020495C0008FA050020080002405F
:10517B00004001403E0100209A0300205201002014
:10518B0032030020E5900008355B00084001002049
:10519B0075820008919B000818FCFFFF17FCFFFFAE
:1051AB0062FCFFFFDD9A00080023F0B51D0085B0FF
:1051BB00BD4901905A00525A0133AD18302BF9D129
:1051CB00BA4BBB491B885D4300932800B94B9847EA
:1051DB00B94B04009D4237D9B84BB94AC3185B0889
:1051EB009BB2934230D9A0238022DB059A621A68C6
:1051FB00B449032511408022D2010A431A601A6870
:10520B00B1491140802252020A4301211A60AF4A70
:10521B0091621068A843014311601968AC480840BB
:10522B008021C9020143196002210C20916211688F
:10523B00814308000421014311601A68A5491140FC
:10524B00802252030A431A60FA23A34A9B00118857
:10525B0099421FD2A148A24D00782D78284319D12D
:10526B00A04FA14D38680131201889B22E783860D3
:10527B00118099420ED18F4B98479C4B1880002E72
:10528B0003D19B4B1E8101232B700023924A138069
:10529B00944A1360944B1B78002B0FD0934B954A79
:1052AB0018881168241A4B0124B25B1A211C002C9C
:1052BB0000DA002109B25B185B0913608E4B1D7875
:1052CB00AB0775D110238D4C8D4FA168042239404B
:1052DB000B43A36080235B03A168114202D0013B07
:1052EB00002BF9D1874E884A3368012113400322E2
:1052FB003360E3689343E360E368844A1340E360FD
:10530B0023698B4323610392042D00D174E0082D94
:10531B0000D193E0002D22D18022636992031343C5
:10532B000F226361A36A93431A000D2313430422D4
:10533B00A362A3683B401343A36080235B03A16874
:10534B00114202D0013B002BF9D1714B216C1B8810
:10535B00704889B25843574B9847544B18800123D8
:10536B0022696D499A431A432261226911407022C6
:10537B000A4303212261E2680A43E260E168039A6F
:10538B001140802292010A438021E2606269890008
:10539B000A436261A26AF239FF398A431A43A26255
:1053AB003268134333600423A2683A401343A3606B
:1053BB000135EDB20B2D00D171E04F4B1D70574BEA
:1053CB001A88D0235343019ADB111380544B0021CD
:1053DB005A5E002A01DA00221A8064221B88019986
:1053EB0053434B80434BC8211868324B504398476B
:1053FB00019B988005B0F0BD802263695201134375
:10540B000F226361A36A93432B43A362A3682A0011
:10541B003B402B43A36080235B03A168114202D066
:10542B00013B002BF9D1206C009B80B243432049F8
:10543B001800204B9847394B188090E76369394A1D
:10544B0013400F226361A36A93431A000C23134387
:10545B000422A362A3683B401343A36080235B0336
:10546B00A168114202D0013B002BF9D12E4B206CCD
:10547B001B8880B20293009B2649434318000D4BB7
:10548B009847029BC31A64205843284B1988029BE8
:10549B00C91A274B9847224B1E3018805FE7002311
:1054AB00154A13708BE7C04630060020620C0020B3
:1054BB00FF0F0000355B0008626C3906649CFFFF30
:1054CB004C1D0000FF3FFFFFFFFFFCFF00040050DF
:1054DB00FFFFF3FFFFFFCFFF280C0020540300203A
:1054EB00D8040020AC060020C0060020A80600202F
:1054FB0040010020BC060020220C002000240140AB
:10550B00E8FFFF7F30000240FEFF0000FFDFFFFFE0
:10551B00AA75FF1FB80B000003FEFFFF600C0020F5
:10552B005E0C0020FFFFEFFFA875FF1FCA75FF1F62
:10553B00495C00080120054A054910B51161116845
:10554B00044B81431160984710BDC04600200040BA
:10555B00FEFF00000D54002010B5014B984710BD05
:10556B006959002010B5014B984710BD69590020AF
:10557B00044B19005A6A92B24B6A9B1A9BB2834234
:10558B00FAD3704700480140044B19005A6A92B293
:10559B004B6A9B1A9BB28342FAD37047004401407B
:1055AB00082202200421174B10B5186219621A62E7
:1055BB00DA69920608D514490A88002A1BD00A8892
:1055CB00013A92B20A805B6A80220E4BD9690A4279
:1055DB000CD00E480E49047809788C4207D2047817
:1055EB000C49621C095DD2B20270996210BD196838
:1055FB0091431960FAE7586A0021074BC0B29847EC
:10560B00E2E7C046004400405C0C0020840E002002
:10561B00820E0020800C00205970002010B502244F
:10562B00024A034B1C809062916210BD0044004003
:10563B005C0C00200000000001B40248844601BC51
:08564B00604700BF0D5B000881
:105B0C0002B4714649084900095C49008E4402BC44
:105B1C007047C04603B47146490840004900095A11
:105B2C0049008E4403BC7047002243088B4274D357
:105B3C0003098B425FD3030A8B4244D3030B8B4282
:105B4C0028D3030C8B420DD3FF22090212BA030C8B
:105B5C008B4202D31212090265D0030B8B4219D36C
:105B6C0000E0090AC30B8B4201D3CB03C01A52418C
:105B7C00830B8B4201D38B03C01A5241430B8B42D4
:105B8C0001D34B03C01A5241030B8B4201D30B03BD
:105B9C00C01A5241C30A8B4201D3CB02C01A5241E4
:105BAC00830A8B4201D38B02C01A5241430A8B42A7
:105BBC0001D34B02C01A5241030A8B4201D30B0290
:105BCC00C01A5241CDD2C3098B4201D3CB01C01AAA
:105BDC00524183098B4201D38B01C01A52414309B4
:105BEC008B4201D34B01C01A524103098B4201D3A2
:105BFC000B01C01A5241C3088B4201D3CB00C01A0F
:105C0C00524183088B4201D38B00C01A5241430886
:105C1C008B4201D34B00C01A5241411A00D20146AB
:105C2C00524110467047FFE701B5002000F0F0F834
:105C3C0002BDC0460029F7D076E7704703460B43F8
:105C4C007FD4002243088B4274D303098B425FD369
:105C5C00030A8B4244D3030B8B4228D3030C8B4295
:105C6C000DD3FF22090212BA030C8B4202D312127B
:105C7C00090265D0030B8B4219D300E0090AC30B50
:105C8C008B4201D3CB03C01A5241830B8B4201D3FD
:105C9C008B03C01A5241430B8B4201D34B03C01AE6
:105CAC005241030B8B4201D30B03C01A5241C30A5E
:105CBC008B4201D3CB02C01A5241830A8B4201D3CF
:105CCC008B02C01A5241430A8B4201D34B02C01AB9
:105CDC005241030A8B4201D30B02C01A5241CDD25E
:105CEC00C3098B4201D3CB01C01A524183098B42A9
:105CFC0001D38B01C01A524143098B4201D34B0192
:105D0C00C01A524103098B4201D30B01C01A5241F4
:105D1C00C3088B4201D3CB00C01A524183088B427B
:105D2C0001D38B00C01A524143088B4201D34B0064
:105D3C00C01A5241411A00D20146524110467047D6
:105D4C005DE0CA0F00D04942031000D340425340DB
:105D5C0000229C4603098B422DD3030A8B4212D39B
:105D6C00FC22890112BA030A8B420CD389019211CD
:105D7C008B4208D3890192118B4204D389013AD00A
:105D8C00921100E08909C3098B4201D3CB01C01ADF
:105D9C00524183098B4201D38B01C01A52414309F2
:105DAC008B4201D34B01C01A524103098B4201D3E0
:105DBC000B01C01A5241C3088B4201D3CB00C01A4D
:105DCC00524183088B4201D38B00C01A5241D9D265
:105DDC0043088B4201D34B00C01A5241411A00D2E6
:105DEC000146634652415B10104601D34042002BE2
:105DFC0000D54942704763465B1000D3404201B561
:105E0C00002000F005F802BD0029F8D016E7704715
:105E1C007047C046002B11D1002A0FD1002900D1A8
:105E2C00002802D00021C943081C07B4024802A173
:105E3C004018029003BDC046D9FFFFFF03B468466B
:105E4C0001B5029800F006F8019B9E4602B00CBC0E
:105E5C007047C046F0B557464E464546DE46E0B55F
:105E6C0004000D009246994683B08B4230D82DD059
:105E7C004946504600F0BAF829000600200000F010
:105E8C00B5F8331A9846203B9B4633D45A465346B2
:105E9C00934042461F00534693401E00AF423AD8EF
:105EAC00AF4200D178E05B46A41BBD41002B00DA69
:105EBC0075E0002200230092019301235A4693407F
:105ECC000193012342469340009328E08242CFD9AC
:105EDC0000220023009201930C9B002B01D01C602C
:105EEC005D600098019903B03CBC90469946A2466F
:105EFC00AB46F0BD424620239B1A5246DA4041463F
:105F0C0013004A468A40170042461F4353469340AB
:105F1C001E00AF42C4D900220023009201934346D5
:105F2C00002BD9D0FB0772081A4346467B080EE0BB
:105F3C00AB4201D1A2420CD8A41A9D4101202419D4
:105F4C006D410021013E24184D41002E06D0AB427C
:105F5C00EED9013E24196D41002EF8D1009801991B
:105F6C005B4600196941002B24DB2B005A46444642
:105F7C00D3402A00E2401C005B461500002B2ADBB4
:105F8C0026009E40330026004746BE403200801A51
:105F9C009941009001919FE7A342BCD883E7424608
:105FAC00202300219B1A0022009101920122DA4049
:105FBC00019286E7424620239B1A2A0046469A40C5
:105FCC002300F340444613432A00E2401C005B4686
:105FDC001500002BD4DA42462F00202326009740D0
:105FEC009B1ADE403B003343CDE7C04610B5002979
:105FFC0003D100F007F8203002E0081C00F002F892
:10600C0010BDC0461C2101231B04984201D3000C77
:10601C0010391B0A984201D3000A08391B0998420F
:10602C0001D30009043902A2105C40187047C04625
:10603C000403020201010101000000000000000045
:10604C00FA21184A10B51388C9008B4202D20133C9
:10605C00138010BD0023144C1380144B22781B7832
:10606C009A420CD2124B1B78002B03D0114A127897
:10607C009A4204D21422282011000F4B98472378FF
:10608C000133DBB20A2B01D02370E2E70023094A6B
:10609C0007492370097813789942DAD901331370C0
:1060AC00D7E7C04620030020220300205301002024
:1060BC005401002055010020B16E0008144B8A1ABF
:1060CC00144930B51D680C685219A24200DA22003E
:1060DC00FA242402A24215DC1A601A68FA239211DF
:1060EC009B009B1A1BB21A1C002B00DA002213B265
:1060FC00834200DA90B2084B1B1A9A01002B03DB87
:10610C000A6030BD1C60E8E700230B60F9E7C0466D
:10611C00800100208003002039030000144B8A1AF0
:10612C00144930B51D680C685219A24200DA2200DD
:10613C00FA242402A24216DC1A601A68FA2392117D
:10614C009B009B1A1BB21A1C002B00DA002213B204
:10615C00834200DA90B2C8239B001B1A9A01002BD1
:10616C0003DB0A6030BD1C60E7E700230B60F9E736
:10617C00840100208403002000220F4B1A800F4B57
:10618C001B785BB25A1C04D0834202D001220C4B08
:10619C001A700C490C4A0D4B002805D108703C2193
:1061AC00117078221A7070470120087078211170D4
:1061BC003C221A70F7E7C04634010020470000204B
:1061CC0098030020900300203C0000203D0000209C
:1061DC0010B50C4B0C4A0633DB8F002B08D1B421C5
:1061EC000A4C4900E05CD05401338B42FAD110BD0B
:1061FC00B4210023064C4900E05CD05401338B429F
:10620C00FAD1F4E79C030020B401002034B200085A
:10621C009CB300082D4B70B51C882D4B002C49D11C
:10622C001880A0238022DB059A621A682949032072
:10623C001140802212020A431A601A68264902256C
:10624C001140802292020A4301211A60234A916272
:10625C001168814329431160196821480840802145
:10626C00090301430C201960956211681D4D81438F
:10627C0008000821014311601A681B4920001140D5
:10628C00802292030A431A603C21A847174B0F2126
:10629C001880174B1878A847164B174918700B78AD
:1062AC00164A002B0FD0013B0B70002313800134D6
:1062BC00A0B270BD1B88C31A502B01DCAF28B0D91B
:1062CC00FA200001F5E728231380F0E7560300209D
:1062DC003E030020FF3FFFFFFFFFFCFF00040050C8
:1062EC00FFFFF3FF355B0008FFFFCFFF42000020EC
:1062FC00A2010020A10100204500002096010020F1
:10630C000023044A1370044A1370044A1370044A9D
:10631C00137070479A03002098030020530100204B
:10632C005401002010B5284B0F211878274B9847A3
:10633C00274B284C1A78C0B2207082421AD01870A1
:10634C00254B1B78002B01D0244B98472078013823
:10635C000A280FD8FFF7D4FB060E0F0E190E1F0ECE
:10636C00280E32001E4B01221878002101301D4BE3
:10637C00C0B2984710BD0220194B03221B78012193
:10638C00C01AC0B2174B9847F4E700210522080049
:10639C00144B9847EEE7124B072218780121013075
:1063AC00104BC0B29847E5E702200D4B09221B7831
:1063BC000021C01AC0B20B4B9847DBE70B2201211E
:1063CC000020084B9847D5E7A2010020355B000858
:1063DC003C030020A1010020320100204D5500207B
:1063EC0090030020955200200E4B2022598D0E4B0D
:1063FC0000290BD080210D48026001600120D8607B
:10640C00DA60D96018611A61196170478021012026
:10641C00D860DA60D96018611A611961044BDA67C7
:10642C00D967F2E79C0300200018024000E100E06D
:10643C0004E100E00121124B02000233DB8FD8088B
:10644C0008408A420BD0022A12D0002A06D1A02280
:10645C00D20512699B085340994348407047A021CC
:10646C00C90509695B0849094B409A435040F5E757
:10647C00044A1269D209534099434840EEE7C0469A
:10648C009C0300200004005070B51D4B1D4D1B7863
:10649C00D8B2002B1AD1A847041E00D00424012026
:1064AC00A847002802D002200443E4B20220A847E7
:1064BC00002802D001200443E4B2013CE4B2052CD4
:1064CC0001D9002070BD104B185DFBE70120A847D7
:1064DC00041E00D004240220A847002802D0022069
:1064EC000443E4B20020A847002802D00120044352
:1064FC00E4B2013CE4B2052CE3D8044B185DE1E7AF
:10650C00900300204164000828B200082EB2000855
:10651C00F8B513283DD880239B00994239D1704C93
:10652C00258F022D36D16F4BDB88132B32D8A0234D
:10653C008022DB059A621A686B4901201140802287
:10654C00D2010A431A601A68684903241140802258
:10655C0052020A431A60664A90621168A1430143D1
:10656C0011601968634C0C408021C90221430C2432
:10657C00196095621168A1430C000421214311603C
:10658C001A685D491140802252030A431A605B4B22
:10659C001870F8BD638D002B0BD0594EB047594D78
:1065AC002B78834205D0584B9847584B1860B0470E
:1065BC002870574B57491B78002B09D10620564A97
:1065CC001370628C424301320A70544A05381070C1
:1065DC00534A097815788B423FD3002D0DD10322F5
:1065EC00434885692A438261A0208022C0058569C1
:1065FC002A43826101224A480270454D0133DBB2C5
:10660C002B70082B62D100232B70434A414E137818
:10661C000133DBB21370608DC82B03D0642B07D110
:10662C00002857D0002901D0013931700023137094
:10663C0000284FD03378012B4CD1638C002B09D020
:10664C00314B9847314B1B68C01A364B984241D896
:10665C000223337001232B709BE7012DCDD1A02297
:10666C008020D205906210681F4E032706408020C0
:10667C00C0013043106010681C4E06408020400260
:10668C00304310601A4885620668BE432E4306608C
:10669C001668184F37408026F6023E4316600226D5
:1066AC000C2786620668BE43B446042667463E4302
:1066BC0006601068104E0640802040033043106086
:1066CC000E4A174815700022027096E7002B00D076
:1066DC005FE79AE73378002BBCD1104A1370B9E707
:1066EC009C03002040010020FF3FFFFFFFFFFCFF49
:1066FC0000040050FFFFF3FFFFFFCFFF3E00002020
:10670C00956400083F000020AD9A00083803002073
:10671C002603002028030020290300202703002043
:10672C002A0300209F860100F7B5C94B01909847BA
:10673C00051E00D18AE1C74C2378834200D185E144
:10674C0023782678023E76B2731C00D10C360427CF
:10675C00C14B01209847BE4B9847A84200D075E129
:10676C00013FFFB2002FF3D1BC49BD4B0A88002A70
:10677C0000D05FE1142D09D0BA4A1278AA4201D098
:10678C00B54203D10022B8491A600A80B74A019970
:10679C0010681B680F1A9908B94203D9B4498B4287
:1067AC0000D853E100218C466046B249B24E0880B5
:1067BC000199B2481160327891000F500168013292
:1067CC0059184368D2B2C9188368C918C368C91864
:1067DC000369C9184369C918C919A14BC9081960BB
:1067EC00062A00D1E3E03270A54B9F4E1B78002B9C
:1067FC0004D133880F2B01D90F2333803388A14F59
:10680C000193172B00D9D5E00023944A3B601380E9
:10681C002378944ADBB213709B4B9C4A023325704D
:10682C00DD8F137869060133DBB2890F1370DB0738
:10683C0000D501312B0601D5494249B2944B1B7846
:10684C00002B01D0494249B28F4803000833DA8F3C
:10685C00824B52080232521852B2198892B22B074C
:10686C0000D5B4E02378002900D1A9E021781B01E0
:10687C005B1AD3181BB2396824784A01521A85491D
:10688C00C988521851093960510BD20B8A1AD31886
:10689C0081499AB21BB20C70B32B00DCBDE0130023
:1068AC00B43B1BB27D4A1370FA23019A9B009A42A7
:1068BC0002D2130001333380794C2178012900D0A6
:1068CC00B2E0838D002B00D1C0E033888C2B00D834
:1068DC00BCE0A0238022DB059A621A687148724DD5
:1068EC0010408022120202431A601A686F4810404E
:1068FC0080229202024303201A606D4A9162116851
:10690C00814301380143116019680D40802109034E
:10691C0029431960906211680A30814308000821EC
:10692C00014311601A6863491140802292030A43A3
:10693C001A6000232370604B1B88312B00D985E033
:10694C003388092B00D881E0A0238022DB059A62D2
:10695C001A685449012011408022D2010A431A605E
:10696C001A68524903251140802252020A431A60C8
:10697C004F4A90621168A9430143116019684A4D4E
:10698C000D408021C9022943196002210C25916216
:10699C001168A9430D000421294311601A68454967
:1069AC001140802252030A431A6020704EE0634665
:1069BC00337019E7414B42489847284B188027E71A
:1069CC0021781B015B1A0F33D3181BB253E7304BE2
:1069DC001B78002B10D02378002906D021781B01BE
:1069EC005B1A123BD3181BB245E721781B015B1ACB
:1069FC000333D3181BB23EE72378002906D0217845
:106A0C001B015B1A1433D3181BB234E721781B011A
:106A1C005B1A2333D3181BB22DE7002B00DB41E7A5
:106A2C001300B4331BB23DE700290FD1838D002B2B
:106A3C000CD080E70B4A1278AA4202D0B54200D0A3
:106A4C00A4E600221A60084B0A801A80F7BDC046E3
:106A5C009564000838000020718A00204200002054
:106A6C0038010020460000203401002040030020A3
:106A7C006F110100360100203D0100201C00002098
:106A8C00540300208C0300209C0300209903002059
:106A9C009003002040010020A1010020A201002051
:106AAC003E000020FF3FFFFFFFFFF3FFFFFFFCFF57
:106ABC0000040050FFFFCFFF96010020355B00085B
:106ACC000E6C3A00F8B51F4A1F4B16781F4C204A23
:106ADC001B78A5889B19167803219E19AB089E1963
:106AEC001C4BF6B218781C4B36021F781B4BC01986
:106AFC001F781B4BC71928009847E28CC019C3B2EA
:106B0C00334300209A421AD1164B1878164B1A7838
:106B1C00164B80181A78164B821868088218187849
:106B2C00144BD2B21B781202C018134B1B78C0182E
:106B3C004019238DC0B21043181A43425841C0B2B9
:106B4C00F8BDC0469B75FF1F9075FF1F9C0300206E
:106B5C009475FF1F9175FF1F9A75FF1F9575FF1F89
:106B6C00355B00089275FF1F9975FF1F9675FF1F07
:106B7C009375FF1F9875FF1F9775FF1FA023802229
:106B8C00DB05F0B59A6280221968554ED20131406E
:106B9C000A431A6080221968524D520229400A4356
:106BAC0001210320504C1A60A1622268A7B08243D5
:106BBC000A43226080221F684C48D20207403A43A5
:106BCC001A6002220C27A2622268BA431700042220
:106BDC003A4322601F68464A1740BC4680276246EB
:106BEC007F0317431F600027414B019602950390CA
:106BFC000493059100263F4D402128003E4B9847B9
:106C0C003E4B402106A89847059B0137FFB20093E5
:106C1C0006AB9A5BAB5B9A4201D000230093384BD6
:106C2C0002369847802EF3D1354B9847009B002BAA
:106C3C0008D1642FDED10522324B1A700022324B60
:106C4C001A7001E0642FF6D02B88304A190A1170A3
:106C5C002F4A13706B882F4A13702F4A1B0A13701C
:106C6C00A0238022DB059A621968019A11408022C8
:106C7C0012020A431A601968029A11408022920289
:106C8C000A431A6001220321A26222688A43013955
:106C9C000A4322601868039A1040802212030243B0
:106CAC001A60A16222680A318A43110008220A4341
:106CBC0022601968049A1140802292030A431A60D8
:106CCC00EB8A002B0AD0154B984728220021322042
:106CDC00134CA04728223C213220A04727B0F0BDFE
:106CEC00FF3FFFFFFFFFFCFF00040050FFFFF3FF1F
:106CFC00FFFFCFFF9C030020A9A0000839A10008CA
:106D0C009D9F000853010020540100201F04002007
:106D1C001E0400201D0400201C040020916E00089D
:106D2C00B16E000800B5A1B0802200216846044B6A
:106D3C00984740216846034B984721B000BDC04698
:106D4C0081B10008A9A00008F8B53C4C40213C4B8F
:106D5C00200098473B4EB04761883B4A4B1E9BB284
:106D6C0093421CD8A3882B2B53D12388374A190A5A
:106D7C001170374A374D13706388374E1A0A2A70D0
:106D8C00364A3370934209D0354B40216380200042
:106D9C00344B9847638833701B0A2B70F8BD324B09
:106DAC00994236D12388013B9BB2934231D9A0231F
:106DBC008022DB059A621A682C4903241140802238
:106DCC00D2010A431A601A682949114080225202E2
:106DDC000A4301211A60274A91621068A0430143BB
:106DEC0011601968244808408021C90201431960C8
:106DFC0002210C2091621168814308000421014397
:106E0C0011601A681D491140802252030A431A600E
:106E1C00FEE701251A4F012D0BD1114B6380013573
:106E2C00B04702372B2DF6D1402120000D4B98474F
:106E3C009BE77A8A6B00E252F1E7C0469C03002084
:106E4C0039A100089D9F0008FDFF00001F040020D1
:106E5C001E0400201C0400201D0400200AE0000079
:106E6C000AE0FFFFA9A00008FFFF0000FF3FFFFFA3
:106E7C00FFFFFCFF00040050FFFFF3FFFFFFCFFFFD
:106E8C00D4BC0008002310B5034A1370034A1370D6
:106E9C00034B984710BDC046D6040020D7040020F1
:106EAC00CD6C0020F0B5954B85B01B780D00019092
:106EBC0002920393002B35D1914F924A3B78127872
:106ECC00914C9A4212D003267343E25C82420DD15C
:106EDC00E3185A78AA4209D19B78029A934205D1B9
:106EEC008A4B98473B785E43039BA3550322854B03
:106EFC0001991B785A43A1548549A2185570483101
:106F0C000988002902D0A9086D1A557003225A432A
:106F1C000133A418029ADBB2A2707A4A3C2B00D13E
:106F2C00EAE013707B4A7549137809780B4300D05B
:106F3C00E0E001261670784A784C1278002A5FD06F
:106F4C00774AA0251370774B9847802380218027A0
:106F5C00ED05AB622B68744AC90113400B432B60DF
:106F6C002B6872487F0203403B43032780202B6031
:106F7C00A66223686E49BB43334323602B68C0026F
:106F8C000B4003432B600223A36223680937BB43E6
:106F9C00083F3B438027FA2023602B6865497F0319
:106FAC000B403B432B604000634B98478023802170
:106FBC00AB622B685C4AC901134080220B432B60E7
:106FCC002B685A48520203401343032280202B6043
:106FDC00A6622368564993431E4326602B68C00261
:106FEC000B4003432B600223A362236809329343B3
:106FFC00083A134323602B684E490B401F432F6004
:10700C000022474B1A70474B98474C4B1B78002B70
:10701C0004D1A0238022DB0512029A618021484B07
:10702C00484AC901D967136947483F4D034013616A
:10703C00A0238020DB05986284461868032628402C
:10704C00014319601868394980250840802149029C
:10705C00014301201960A0622168354FB1430143FF
:10706C0021601968ED0239402943196002210C276F
:10707C000425A1622668BE43354325601E682D4D4C
:10708C002E4080256D0335431D60664600255563F3
:10709C009563D5639E621D68234A7D3E1540802210
:1070AC0012022A431A601D68204A1540802292025F
:1070BC002A431A60A06222688025B2430A432260E8
:1070CC0018681B4AED0210408022120302431A601A
:1070DC000822A1622168B9430A4322601968154A43
:1070EC001140802292030A431A60184B184A1A6105
:1070FC00184B1D6005B0F0BD002312E754030020AF
:10710C00D7040020D604002022040020916E000831
:10711C009C030020D8040020170500200004005018
:10712C008A010020ED790008FF3FFFFFFFFFFCFF05
:10713C00FFFFF3FFFFFFCFFF718A002052010020F9
:10714C0004E100E0002C0140EFFF000000140040BF
:10715C00FEFF000000E100E0024B98684007C00F02
:10716C007047C046002401400349044A8B681A400A
:10717C00042313438B60704700240140E8FFFF7F1A
:10718C00A023DB051B6970B5204A21495B0710D58C
:10719C00204B1B78002B0CD113881F4801339BB25A
:1071AC001380834207D91D4B1B78002B01D101336F
:1071BC000B70002313800B78002B01D1184B9847D0
:1071CC00184DA847184C2388C01A80B27C28F7D9D0
:1071DC00A847FA21154A20801388490101339BB234
:1071EC008B4201D0138070BD00231380104A802184
:1071FC00137809020133DBB21370A022D205DB072E
:10720C0001D59162EFE79161EDE7C046DA04002009
:10721C00650C002094010020B80B00009A0300209C
:10722C009D9F00084D920008DC040020E004002023
:10723C00DE040020F0B5DD4B8DB01A784E2A0AD052
:10724C00DB4BDC499A811981DB4999804E215981AC
:10725C00DA4B9847FCE78024D94BE401DC67D9482A
:10726C00D94B9847A0228023D20593621368D74943
:10727C00D74F0B401C43802314608C4611685B0273
:10728C0039400B43012103241360D24BD24E996237
:10729C0018688025A0430143196080211068C90239
:1072AC0030400143116002210C20996219686D0372
:1072BC00814308000421014319601168C748C84C78
:1072CC00014029431160A268C649114010220A43AB
:1072DC00A260624604971F00039205960690C24B6B
:1072EC009847002802D0013D002DF8D1BF4AC04973
:1072FC0013680A200B4013600322E3688025934334
:10730C00E360E368BB4A6D0313400122E360236929
:10731C00934323613B68BF3293431A0040231343CA
:10732C003B600823BB61A84B98476369B24A134082
:10733C000F226361A36A93431A0004231343A362CD
:10734C00AE4B9847A84B9847002802D0013D002D22
:10735C00F8D1236CA0250B93A94B98472823ED0556
:10736C0007936420984B98470023A64E0A2073631A
:10737C008033AB622A68039B1A4080231B021343A1
:10738C002B602A68049B1A4080239B0213432B60BA
:10739C008D4B984763699C4A13400F226361A36A23
:1073AC0093431A0003231343A362944B98478023FF
:1073BC005B030193944B02938B4B9847002804D0AA
:1073CC00019B013B0193002BF6D1236C08936B4678
:1073DC001B8C0193002373638033AB622A68039B7D
:1073EC001A408023DB0113432B602A68049B1A404C
:1073FC0080235B0213432B60814B9847FA20724B1E
:10740C0040009847019BC72B05D9079B013BDBB27A
:10741C000793002BA5D128256B4E6420B047002381
:10742C00784AA02193630133BB623A6802339A43D2
:10743C00013B13433B608023C9050A6805981B0375
:10744C00024013430B600A20B0470F226369029974
:10745C0080260B406361A36A760393430C3A134373
:10746C00A362664B9847604B9847002802D0013EB8
:10747C00002EF8D1236C634A09936B469B8C032135
:10748C000793002393630122BA623B688B43A021CC
:10749C0013433B60C9050A68059B1A408023DB0235
:1074AC0013430B60564B9847FA20474B40009847C4
:1074BC00079BC72B03D9013DEDB2002DACD128267B
:1074CC006420414B98470023A0214E4AC905D36341
:1074DC000233BB623A680A339A43043B13433B6062
:1074EC000A68069B0A201A4080239B0313430B60F7
:1074FC00354B98476369029A802513400F226361CC
:10750C00A36A6D0393431A0003231343A3623B4BFB
:10751C009847354B9847002802D0013D002DF8D1F3
:10752C00236CA0210A936B461D8D0023354AC90597
:10753C00D3630233BB623A680A339A43083B134362
:10754C003B600A68069B1A4080235B0313430B6065
:10755C002B4B9847FA201C4B40009847C72D03D95A
:10756C00731EDEB2002EABD1019B284AC82B04D867
:10757C00079BC82B01D8C82D4AD90D4B0D49DD816D
:10758C001981FA2189009980C82159800199598162
:10759C000799998100231370089B9370099BD370F2
:1075AC000A9B1371054B9847FCE7C0461F0400204B
:1075BC0040010020BD1C0000B80B00008D710008BC
:1075CC0004E100E0A8610000718A0020FF3FFFFF8A
:1075DC00FFFFFCFF00040050FFFFF3FFFFFFCFFF96
:1075EC0000240140E8FFFF7F657100083000024075
:1075FC00FEFF0000FFDFFFFFFFEFFFFF75710008CC
:10760C009D9F0008002C0140FFF7FFFFE2040020C3
:10761C006B469B8DA0250193012313702733089390
:10762C00ED056420C34B9847C34BC44A0A205A63E8
:10763C008023AB622A68039B80261A4080231B029E
:10764C0013432B602A68049B76031A4080239B0209
:10765C0013432B60B74B98476369029A13400F2270
:10766C006361A36A93431A0003231343A362B44BCD
:10767C009847B24B0A93B34B9847002802D0013E6F
:10768C00002EF8D1236CAC4A09936B469B8C079364
:10769C00002353638033AB622A68039B1A40802318
:1076AC00DB0113432B602A68049B1A4080235B0286
:1076BC0013432B60A44B9847FA209E4B40009847ED
:1076CC00019B079A934205D3089B013BDBB20893BD
:1076DC00002BA6D12825974E6420B0470A9A964BCA
:1076EC00A0219A630123BB623A6802339A43013B9F
:1076FC0013433B608023C9050A6805981B030240AD
:10770C0013430B600A20B0470F226369029980264D
:10771C000B406361A36A760393430C3A1343A36251
:10772C00874B9847874B9847002802D0013E002E84
:10773C00F8D1236C804A04936B461E8A0023936312
:10774C0001220321BA623B688B43A02113433B60A7
:10775C00C9050A68059B1A408023DB0213430B60A2
:10776C00794B9847FA20734B40009847019BB342E2
:10777C0003D3013DEDB2002DADD1282303936D4D04
:10778C006420A8470A9A6C4BA021DA630223BB62DF
:10779C003A680A339A43043B13433B60C9050A68B1
:1077AC00069B0A201A4080239B0313430B60A847B7
:1077BC006369029A802513400F226361A36A6D03EB
:1077CC0093431A0003231343A3625D4B98475D4B0D
:1077DC009847002802D0013D002DF8D1236CA02140
:1077EC0005936B469D8A0023534AC905D363023324
:1077FC00BB623A680A339A43083B13433B600A68FE
:10780C00069B1A4080235B0313430B604E4B984737
:10781C00FA20484B40009847019BAB4205D3039B91
:10782C00013BDBB20393002BA9D1019B079A934236
:10783C0003D8B34201D8AB4217D9444B444A9E817A
:10784C001A81FA22D2009A80019ADD815A80079A15
:10785C005A8100223F4B5A70099A9A70049ADA7036
:10786C00059A1A713C4B9847FCE70124394B3B496C
:10787C005C703B4B03251A693A4FA24322431A61B1
:10788C001A69114070220A4380211A61DA68890151
:10789C00AA432A43DA60DA680A438021DA605A691B
:1078AC0089000A435A619A6AF239FF398A432243A2
:1078BC009A622D4A136823431360214B984708237F
:1078CC00C0212A4A8020936213680B4380211360E5
:1078DC00274BC9011960A023DB0598621868384052
:1078EC00014319601968234808408021490201436B
:1078FC001960946211682048A9430C4314601968FC
:10790C0008408021C9020143196002210C209162B8
:10791C001168814308000421014311601A6817495A
:10792C001140802252030A431A60074B98470DB04E
:10793C00F0BDC046718A0020002C01405F0400009D
:10794C0075710008657100089D9F000840010020BA
:10795C00BD1C0000E20400208D71000803FEFFFF37
:10796C0000240140FF3FFFFF3000024000040050A4
:10797C0000E100E0FFFFFCFFFFFFF3FFFFFFCFFF85
:10798C00054A064B1218013A1278D21853681B0C90
:10799C001B040B43536070473ABD000800000240C3
:1079AC000121054B054A1B18013B1B789B181A68D3
:1079BC008A431A607047C0463ABD00080000024076
:1079CC00054B064A1B18013B1B789B1801221968B2
:1079DC000A431A607047C0463ABD000800000240D6
:1079EC00F0B5934B85B01B78002B00D1C5E0914BC3
:1079FC001B78002B00D0C0E001258E4B80221D701F
:107A0C00A023DB059A6219688B4A8C4C11408022AA
:107A1C00D2010A431A601968894A0427114080224E
:107A2C0052020A4303211A60A5622268854E8A43DA
:107A3C002A4322601968844A844811408022D20269
:107A4C000A431A6002220C21A26222688A433A433A
:107A5C00226019687E4A1140802252030A431A6040
:107A6C000621B04705217948B04739007748B0471F
:107A7C0010217020774B1A682A431A606E4A94467C
:107A8C006F4A0192704A0292714A03921A680A4232
:107A9C0006D11A680240602A02D11A682A42F5D12E
:107AAC0001211A6808278A431A6000225A629869D1
:107ABC00694DB84398619869684E28409861706820
:107ACC00B8437060D868664E3040D860D868654E50
:107ADC003040D860D868664605408C20C000DD6018
:107AEC00D86270205A639A63DA631D688543103834
:107AFC002843186018695C4D2840186180205B4D44
:107B0C00C00128601D680D431D60A0238025DB0586
:107B1C009D621D68354005431D6001981D68054038
:107B2C0080204002284303251860A1622068A843E6
:107B3C000143216018680299093508408021C90267
:107B4C00014302201960A0622168A9430D000421A1
:107B5C00294321601C6803990C408021490321436F
:107B6C0019604349087043490A7031490A70314918
:107B7C000A70996A40320A439A6201243E493F4D89
:107B8C003F480E682B680268234026409B19224010
:107B9C009B18002B0BD149686B6842689BB289B269
:107BAC005B1892B29B18002B01D105B0F0BDA0233D
:107BBC008022DB059A621A681F490320114080223B
:107BCC00D2010A431A601A681D490425114080220B
:107BDC0052020A431A60194A1A4E94621168814380
:107BEC00214311601968184808408021C9020143DB
:107BFC00196002210C2091621168814329431160A4
:107C0C001A68134911481140802252030A431A6022
:107C1C000621B04705210D48B04729000B48B04755
:107C2C00184E0620B0470520B0472800B047A5E7FE
:107C3C001705002019050020FF3FFFFF000400502E
:107C4C00FFFFFCFF0DA80008FFFFF3FF0000024040
:107C5C00FFFFCFFF002C0140FFF7FFFF182C014066
:107C6C00FFFDFFFFFFFBFFFFEFFF000000E100E067
:107C7C0020010020180500206C0002405800024032
:107C8C0044000240AD7900080E4B70B516001A681E
:107C9C0004000D00002A03D101321A600A4B9847E8
:107CAC000A4B1B8CDBB2012B06D1240634432D046A
:107CBC00074B2C431C6070BD022BFCD124043443B5
:107CCC002D06F5E724050020E17C00089C0300202C
:107CDC001C050020F0B5A14B85B01B68002B00D112
:107CEC003AE19F4C2378002B12D183229D490A70D4
:107CFC004A759D49CA5401331A2BFBD19B4BD88B27
:107D0C001A8CC1B29A4B120A000A984701232370AD
:107D1C00984B994A1B7812781343984A127813435C
:107D2C0000D019E1964997480A69802502400A61FA
:107D3C008022954CD201E2670B69ED0203400B6186
:107D4C009248934B934F1861E5671861A0238020EC
:107D5C00DB0598621868904C0326204002431A6099
:107D6C008022186852023840024301201A608B4A64
:107D7C00A44690621468B443044314601C68884E93
:107D8C003440254302241D600C2594621468AC43D6
:107D9C00250004242C4314601D68824C254080244B
:107DAC0064032C431C600B680C0003430B6063469C
:107DBC0015007021102200937A4B019702960393C1
:107DCC002368134206D123680B40602B02D1236831
:107DDC000342F5D10123226810219A43226000222C
:107DEC007020626222681A43226022681A43226061
:107DFC0022680A4206D122680240602A02D1226817
:107E0C001A42F5D101202368832283432360002387
:107E1C006362A062E2626363A363E3632368133A61
:107E2C0093431A001023134323608023E2689B00C2
:107E3C001343E3608023E268DB001343E360802399
:107E4C000821E2681B011A43E260A269564E0A43FC
:107E5C00A261A26905301343544AA3615368544F7D
:107E6C000B435360B0470520B0470420B047514A3C
:107E7C00514E1368514833403B431360FF23016854
:107E8C00394F9943EB3B0B4303604D4B4D4ED76041
:107E9C001A2193600420B0474B4A47491368444861
:107EAC000B4003431360FF23484801689943EA3BA6
:107EBC000B430360464BD7601A2193600520B047F3
:107ECC00444A3D49136844480B4039490B431360FD
:107EDC00FF2301689943E93B0B4303603F4BD76099
:107EEC001A2193600620B0470120236880220343A7
:107EFC002360A023DB059A621968009A8027114041
:107F0C00802212020A43032180261A601A68019CFF
:107F1C00BF02224017431F60A8622A68029C8A4352
:107F2C0001390A432A601A683603224016431E6040
:107F3C00A9622A680A318A4304390A432A601968FB
:107F4C00039A1140802292030A431A60094A107066
:107F5C00402299690A439A6105B0F0BD24050020BE
:107F6C002805002001050020E70400209C030020C8
:107F7C00957C000817050020D80400201905002066
:107F8C00002C0140EFFF000004E100E0FEFF0000C8
:107F9C0000140040FFFFFCFFFF3FFFFF00040050F8
:107FAC00FFFFF3FFFFFFCFFFAD790008182C014056
:107FBC0090210000440002400F80FFFF0C0802409B
:107FCC00342C01408D790008580002401008024002
:107FDC00382C01406C000240140802403C2C01403B
:107FEC008323F7B5AF24C826204DA4002B70204B5B
:107FFC0027005B88F600B34204D91E4E9B199B10D8
:10800C00E31A9FB24618B618BE4216D800236B2747
:10801C00DCB2A4465C1C072B1CD80826F31A0600FD
:10802C001E4153230193523B1E4200D10197019BE9
:10803C002B552300182CEBD1F7BD022801D902389F
:10804C00C0B2022901D90239C9B2022ADAD9023ADC
:10805C00D2B2D7E766460F2E03D81026F31A0E00BD
:10806C00DEE71826F31A1600DAE7C046E70400200C
:10807C0040010020C0F9FFFF4C4BF7B51B68012BEA
:10808C001FD14B4B1B78002B1BD04A4B4A4A1B78F9
:10809C001278134315D1494B1868494B010CC2B2E5
:1080AC00C9B2000E9847474B1B78002B02D0454AAB
:1080BC00013B1370444A13780133DBB2272B01D8F0
:1080CC001370F7BD0023414C06201370A047052008
:1080DC00A0470420A04701233D4D70202968194377
:1080EC00296010212A680A4206D12A680240602AB7
:1080FC0002D12A681A42F5D101222B68354F9343DD
:10810C002B6000236B62344B344E1B78344C019340
:10811C00002B2AD016210420324B9847324B1621C3
:10812C00FB60324B0520BB602E4B98472E4B162123
:10813C00F3602F4B0620B3602A4B98472A4B06203E
:10814C00E3602C4BA3602C4CA0470520A0470420D7
:10815C00A047019B204A013B13700A23194A137054
:10816C0001222B6813432B60ABE71A2104201D4B13
:10817C009847224B1A21FB601C4B0520BB60194B06
:10818C0098471E4B1A21F360194B0620B360154B10
:10819C0098471A4B0620E360164BA360164CA04779
:1081AC000520A0470420A047D7E7C046240500209F
:1081BC0017050020D8040020190500201C050020FC
:1081CC00ED7F00082005002018050020AD7900087F
:1081DC00002C0140440002402001002058000240C5
:1081EC006C0002408D79000801050020342C014000
:1081FC00382C01403C2C0140CD790008E7040020CC
:10820C00054B01201B78002B04D0044B18784342FB
:10821C005841C0B27047C046170500202005002009
:10822C00012310B51A0000210548064CA047012275
:10823C00054B00211A700548054B984710BDC046E8
:10824C0020A10700D59B00084805002080841E0053
:10825C00DD9A0008034A49008B5A1B0A03708B5A9B
:10826C00437070474001002070B545180400002190
:10827C00044EAC4201D1080070BD2078B0470134E7
:10828C000100F6E7996F0020F0B516008022C1B00E
:10829C000C000700124B52000021684698476A46B2
:1082AC00032313700F4BA51D1B78EDB253706B4657
:1082BC0015713A19013397420ED1611D68460A4B6C
:1082CC0098476C446071012E04D83200290068462E
:1082DC00064B984741B0F0BD397801371971E9E781
:1082EC0081B100081E04002075820008919B0008D3
:1082FC0007B5044B02001B7801A803700121024B47
:10830C00984707BD42BD00089582000870B514005F
:10831C00084A094D93794000002906D12B52074B8E
:10832C0098472000064B984770BDD2791B02134327
:10833C00F4E7C0462F0500209C030020896B000841
:10834C00FD82000807B5044B02001B7801A80370DE
:10835C000121024B984707BD41BD000895820008DA
:10836C0010B50400080011001A00054B1B78A3423D
:10837C0002D1044B984710BD1000034B9847FAE705
:10838C002E050020198300085183000810B5140035
:10839C001A00094B49001870084B0948C95ACBB24E
:1083AC00002C05D103700134064BE1B2984710BD87
:1083BC00090A01704370F6E72E0500209C0300208B
:1083CC0059050020958200080122F8B5A84BA94D4B
:1083DC001A7068790C0065287BD8FDF79BFB990017
:1083EC007A0099007A007A0066006F0080007A00AB
:1083FC007A008C008F009D00A8007A007A007A0029
:10840C007A007A007A007A007A007A007A007A0090
:10841C007A00B200CE00D500DC00E700EE00F500DB
:10842C00FC001101180103010A01AE0034013B01EB
:10843C0042017F0186018D0194019B01A201A901DA
:10844C00B001B701BE01D101E301F601FD01040247
:10845C00110225022C0235023C0243024A02580248
:10846C00510266025F0274026D0282027B0290026C
:10847C0089029E029702AC02A502BA02B302C8029C
:10848C00C102D602CF02E402DD02F202EB020203C9
:10849C00FB02100309031E0317032C0325034F03D0
:1084AC0033035D0356036B036403734B73481B78F0
:1084BC00037022000121724B98470AE00021714A97
:1084CC006E488B5C0B5401310C29FAD122006C4B99
:1084DC0098476B790D2B01D06B4B9847F8BD6B4BC4
:1084EC0066481B780A000370694B02211B784370A5
:1084FC00634B9847EDE7674B9847EAE7664A138862
:10850C0001331380AA79EB7912021343634A138067
:10851C002000634B9847DCE7584EA9793000614B3B
:10852C009847220002213000554B9847D1E764212F
:10853C000A20AA795C4B9847CBE75C4B4F489B8849
:10854C00B6E7EA795A4B00261A700122287A594B61
:10855C00170018700B23434357490C330A705BB256
:10856C00501CC0B2002B03DC002ED1D00A70CFE718
:10857C00083B02003E005BB2F2E7AA794F4B0800C1
:10858C001A70474B9847A4E70B00002203211C20CC
:10859C004B4CA0479DE70B00002203211C20494CAB
:1085AC00A047424B9879484B984792E70B00002222
:1085BC0006211E20424CA0478BE70B00002206210F
:1085CC001E20404CA04784E70B00002204212020F1
:1085DC003B4CA0477DE70B00002204212020394CA6
:1085EC00A04776E70B00002208212420344CA0473A
:1085FC006FE70B00002208212420324CA04768E7CB
:10860C002222324B1D481A70314B1B7850E72F4BEE
:10861C001B78222B13D1AB79182B0BD91823AB71E8
:10862C00154B1A78AB7912021343204A1380294B4D
:10863C0098476DE7002BF3D10133AB71F0E72000C5
:10864C00254B984745E70B000122092127201C4C9C
:10865C00A0473EE70B00012209212720194CA04717
:10866C0037E70B0001220A212920154CA04730E7DF
:10867C00940100202F0500201F0400205905002024
:10868C00958200089075FF1F0D6300081D040020E3
:10869C001C04002061A100084A05002024010020D0
:1086AC00FD82000861820008B16E00089C03002066
:1086BC002201002023010020210100204C05002074
:1086CC00998300086D830008856100082E05002041
:1086DC001E040020896B0008518300080B00012246
:1086EC000A212920DB4CA047F3E60B0000220B21CA
:1086FC002B20D94CA047ECE60B0000220B212B20A1
:10870C00D44CA047E5E60B0000220C212D20D24CC6
:10871C00A047DEE60B0000220C212D20CD4CA047FB
:10872C00D7E60B0001220D212F20CB4CA047D0E621
:10873C000B0001220D212F20C64CA047C9E60B00CF
:10874C0001220E213120C44CA047C2E60B000122AD
:10875C000E213120BF4CA047BBE6C04AD38B128CF4
:10876C00120A192B08D1652A00D0B2E62A7AE979C7
:10877C00A879BB4B9847ACE6134300D0A9E6F5E7C4
:10878C003422B84BB8481A70B44BDA8B110A01700A
:10879C0042701B8C04211A0A8270C3702200B34BE6
:1087AC00984796E6AF4B1B78342B00D047E7A87957
:1087BC00E979AA4E03020B43F3832A7A6B7A1702E8
:1087CC003B433384A64B984731E70B000022112121
:1087DC003620A14CA0477CE60B000022112136204C
:1087EC009C4CA04775E6A24B984738219E4B9D4A5E
:1087FC0018701170180022009C4B3739984768E6A6
:10880C00984B1B78382B00D019E7AA79EB79934E4B
:10881C0012021343F3842A7A6B7A120213433385C0
:10882C00934B9847B08402E70B00002215213A20A5
:10883C00894CA0474DE60B00002215213A20854CAF
:10884C00A0478C4B984744E60B00012205213C20A5
:10885C00814CA0473DE60B00012205213C207D4CBC
:10886C00A04736E60B00002216213E207A4CA0478A
:10887C002FE60B00002216213E20764CA04728E65E
:10888C000B00002217214120734CA04721E60B005E
:10889C000022172141206F4CA0471AE60B00002242
:1088AC00182143206C4CA04713E60B000022182122
:1088BC004320684CA0470CE60B00012219214520EF
:1088CC00654CA04705E60B00012219214520614C9F
:1088DC00A047FEE50B0001221A2147205E4CA04761
:1088EC00F7E50B0001221A2147205A4CA047F0E56E
:1088FC000B0001221B214920574CA047E9E50B0036
:10890C0001221B214920534CA047E2E50B00002219
:10891C001C214B20504CA047DBE50B0000221C21F6
:10892C004B204C4CA047D4E50B0000221D214D20C0
:10893C00494CA047CDE50B0000221D214D20454C94
:10894C00A047C6E50B0001221E214F20424CA04738
:10895C00BFE50B0001221E214F203E4CA047B8E57D
:10896C000B0001221F2151203B4CA047B1E50B000D
:10897C0001221F215120374CA047AAE50B000022F1
:10898C0020215320344CA047A3E50B0000222021CA
:10899C005320304CA0479CE50B0000222121552090
:1089AC002D4CA04795E50B00002221215520294C88
:1089BC00A0478EE50B00002222215720264CA04711
:1089CC0087E50B00002222215720224CA0472A4B7E
:1089DC0098477EE50B000022232159201E4CA0470E
:1089EC0077E50B000022232159201A4CA04770E593
:1089FC000B00002224215B20174CA04769E50B00DB
:108A0C00002224215B20134CA04762E50B000122BD
:108A1C0025215D20104CA0475BE50B000122252190
:108A2C005D200C4CA04754E50B00012226215F2051
:108A3C00094CA0474DE50B00012226215F20054C77
:108A4C00A04746E50B00002227216120024CA047DD
:108A5C003FE5C0466D830008998300089C03002005
:108A6C00957C00082E0500205905002095820008F1
:108A7C00D16A0008F5630008DD6100080B000022D4
:108A8C00272161200F4CA04723E50B000022282151
:108A9C0063200D4CA0471CE50B000022282163200D
:108AAC00084CA04715E50B00002229216520064C37
:108ABC00A0470EE50B00002229216520014CA047A0
:108ACC0007E5C0466D83000899830008F8B50125B9
:108ADC00F0223020274C284EA562A369A02793438F
:108AEC000343A361A369254A30001A40C0239B01AC
:108AFC001343A361224B9847042300223360023BAB
:108B0C00FF057360336103333100736138001D4B13
:108B1C00F260984730203B681B4A83433B601368E4
:108B2C00AB431360194B1968A94319602168A94319
:108B3C0021608021490059605160116829431160FE
:108B4C001A682A431A6023682B43236020233A684F
:108B5C008243134300223B600D4B1A600D4B1A806D
:108B6C000D4B1A700D4B1A800D4B1A800D4B1D704E
:108B7C00F8BDC04600400140CC050020FF0FFFFFB0
:108B8C00B5AA000813AA00081C0002400800024005
:108B9C0078050020C00500207C050020C4050020BD
:108BAC00BE0500207505002010B5154B86B01B784E
:108BBC00002B23D1134968465A5C1A5401330C2BF1
:108BCC00F9D10024F33303730F4B14211B78437337
:108BDC000E4B1B7883730E4B1B786433C3730D4B96
:108BEC00DA8802741B89448243740B4B98476B469A
:108BFC002200187515216846084B984706B010BD21
:108C0C00940100209075FF1F1D0400201C040020FF
:108C1C001F0400209C03002075820008919B000813
:108C2C00F7B56A4B1B78002B00D1C0E0684B1C7861
:108C3C00684B1B78002B72D0002C72D1664D2B78B0
:108C4C00002B00D1A9E0E3B20193052C3DD8634B76
:108C5C00634E1B78A7B2002B2BD11422E3B25A43DC
:108C6C00642114205F4BD2B298472B783780013B9C
:108C7C002B70072C31D1584BDA79072A04D90121F2
:108C8C00594A11700022DA71142C31D1524F3B7DAC
:108C9C00072B79D9554E564BB079984700233B7525
:108CAC00F38A002B70D032223C2164204D4B984724
:108CBC006AE03388BB42D8D11422E3B25A43642110
:108CCC000220484BD2B29847CFE7E3B2062BD0D163
:108CDC00484B98470022404B9A71082C68D13E4B68
:108CEC001A7A072A04D902213F4A117000221A72FB
:108CFC00152C68D1384B5B7D072B45D93B4E3C4B33
:108D0C00F288002A08D1012098470023324A537573
:108D1C00F38A002B38D0C6E700209847F5E7002CE3
:108D2C0045D00021344A2C481378C1540133DBB2AE
:108D3C00302B01D013703AE0117038E00C2CA3D119
:108D4C00254E337B092B1FD9274B1B78002B02D0C8
:108D5C00264A013BD380294B1B78002B02D0234A97
:108D6C00013B1381264B9847264B984700233373BE
:108D7C000AE00A2CE2D1184B9A7A072A04D902216C
:108D8C001E4A117000229A72E3B20D3B062B02D9D7
:108D9C00E3B2152B01D900232B7001340135302C93
:108DAC0000D04CE70B4B0B4A1B78013B1370F7BD03
:108DBC00092CDED1084B5A7A072A04D901210F4A13
:108DCC00117000225A720B2CDED1E4E775050020DD
:108DDC00540300208405002087050020D8040020BF
:108DEC00E4050020B16E0008860500209C030020DD
:108DFC0085610008B58B0008E6050020740500208D
:108E0C00896B000811A30008012210B51100022380
:108E1C000648074CA0470023064A1380064A1380D5
:108E2C00FA22064B52001A8010BDC04680841E00E8
:108E3C00D59B0008EC050020F60500202801002039
:108E4C000C4A10B51388F92B01D801331380128802
:108E5C00094BFA2A08D1094A12881D2A04D8122271
:108E6C001A70074B984710BD1A78102AFBD10132A3
:108E7C001A70F8E7F605002088030020EC050020A6
:108E8C006D9D000870B51F491F4DC8882B78C20412
:108E9C001E4CD20E5E01324322706070072B06D836
:108EAC001B4A9B00D3589F460023A370E370194BB9
:108EBC000421200098472B7820710133DBB2082B5A
:108ECC0000D100232B7020000521134B984770BD57
:108EDC004B881A0AE370A270E9E78B881A0AE370D0
:108EEC00A270E4E70B891A0AE370A270DFE70B4B60
:108EFC001B881A0AE370A270D9E70B881A0AE37070
:108F0C00A270D4E740010020F8050020E7050020FE
:108F1C0044BD000875820008ED9D0008EE05002098
:108F2C0070B5234B04009847224A1388C31A9BB28E
:108F3C00322B1FD8204D21492E781080731CDBB2A8
:108F4C008C552B70032B14D10F238A78487813403F
:108F5C0000010343DB43097812091B0509011B0DB2
:108F6C000A439A420DD0164A13880133138000230A
:108F7C002B7070BD01251049104B10800D701C70AA
:108F8C00F7E700210F4B104C520822801C880F4A27
:108F9C0001341C800E480F4B1180198002880E4B37
:108FAC009A4201D8013202800C4B9847DFE7C04649
:108FBC004D920008F4050020F3050020F005002078
:108FCC00EE0500203E010020260100202801002093
:108FDC00EC05002032030020FDFF0000918E0008FC
:108FEC00F8B50823F0222C4D2C4FAB62AB6938003E
:108FFC0093431A0050231343AB61AB69284AA02654
:10900C001A40A023DB011343AB61264B9847042382
:10901C0000243B60023BF6057B603B610333390067
:10902C0030007B61204BFC609847302033681F492F
:10903C008343336001230A689A430A601C4A176809
:10904C009F4317602F689F432F6080277F005760D6
:10905C004F600F681F430F601168194311602A6835
:10906C001A432A602022316881430A433260114A34
:10907C001480114A1480114A1370114B1C70114B3F
:10908C001C705C709C70104B1C80104B1C80104B27
:10909C001C70104B1C80F8BD0040014010060020D5
:1090AC00FF0FFFFFB5AA000813AA00081C0002401E
:1090BC0008000240FE050020FA050020F9050020FA
:1090CC00030600200006002004060020FC050020FA
:1090DC002E0600200C060020F8B5FA23DB0098427F
:1090EC0012D8FA239B0098422FD3C823DB00984256
:1090FC002CD9414B1C78002C28D1404F3B78312B7C
:10910C0004D801333B70F8BD1800F2E73C4E3D4DDE
:10911C0031782B680131C018C9B2286031703229FE
:10912C00F1D1394B9847394B334A188001231370CE
:10913C00374B3C7034702C60DB8A002BE3D03C2224
:10914C00C8201100334B9847DDE71800324BC31889
:10915C00622B21D8284E3278012AD4D1274C23787F
:10916C00312B02D801332370CDE7264D244F2B68C9
:10917C0018183B7828600133DBB23B70322BC2D11C
:10918C00234B1A81254B98470023204A33701380B8
:10919C002B603B702370B6E7AF23DB009842B2D252
:1091AC00154B1B78012BAED1144B1B78312B03D8EC
:1091BC00124A01331370A6E7114D124E2978336809
:1091CC000131C018C9B23060297032299BD10F4BC4
:1091DC000F4F1B880024BB820B4B98470F4B788298
:1091EC003C819847094B34601C80034B2C701C70DD
:1091FC00024B1C7087E7C0462B0600202A06002075
:10920C000F06002008060020355B00082806002009
:10921C009C030020B16E000855FAFFFF896B000813
:10922C00044B054A1A61054A138801339BB213801B
:10923C007047C04600480140FEFF0000240C00208F
:10924C00014B586A80B27047004801400721F0B5C5
:10925C000127FE4A89B0536BFD4C0B435363536B90
:10926C00A0250B400793079B936BFA493B439363F1
:10927C00936BED053B400693069B136C3B431364C9
:10928C00136C3B400593059B1300D26B0A43DA63C6
:10929C001A001000DB6B0B400493049BEE49126C1C
:1092AC000A430264036C20000B400393039BEB4BBB
:1092BC0098472123022123600023616128002100AB
:1092CC00E74E63602761B0478026E54A2660E54E8D
:1092DC00210094463000E047002302214022236104
:1092EC00DF4B61619C462100280022606760E760CB
:1092FC00E04740220820AB6A02211343AB62DA4BF1
:10930C001A6802431A601A68001802431A60F023A4
:10931C00DB0023600023E360D14B61609C466161FC
:10932C0028002100E04702210322CD4B61609C46BE
:10933C006161300021002260E0478022AA622B6824
:10934C00CA4A802013408022D20113432B602B6821
:10935C00C74A40021340032203432B60B7623368B1
:10936C00802093433B43336002212B68C14AC002E7
:10937C0013400C2203432B60B162336849189343AA
:10938C000B4333602B68BC4A21001A4080235B03DB
:10939C0013432B6080231B0223600023E3602361B3
:1093AC00AF4B28009C4667606761E0478022AB6A40
:1093BC0012021343AB620023E3602361A84B21002C
:1093CC009C462800226067606761E0478022AB6A98
:1093DC0012021343AB62A24B21009C462800E047CB
:1093EC008023DB01236000230221E3609C4B61603E
:1093FC009C462100280027616761E0470423022175
:10940C002360DB196361964B61609C4621612800E7
:10941C002100E047924B21009C462800E047802128
:10942C00002389012160022163608D4B21619C46E0
:10943C00210028006761E0471A23032223600023E0
:10944C002800874D2100AC4662602361E047D82399
:10945C0021003000824E2360B047884E884B30008C
:10946C009847884D884B28009847884B8848894CEA
:10947C009847894A20009446E04780217348874AE0
:10948C00436DC90313400B4343658C23DB00B3606E
:10949C000023834A31009446F36033742000603318
:1094AC0037807360E04760232B6000231900EB606A
:1094BC002B610133FF33AB61EB617A4B2A009C4685
:1094CC006961200039006F60AF60E047754B2A007E
:1094DC009C4610212000E0478021724B2A009C46BC
:1094EC0020004900E047704B80212A00EB606D4D55
:1094FC004901AC4608252000E047A3696B4AAB4301
:10950C00A361A3696A4813406A4AA3615368AB43D9
:10951C005360636CF735AB4380256364636C2D0239
:10952C002B43C32563642368634A3B432360AD002C
:10953C00535903408020C00303435351802310250B
:10954C00DB011360E3682B43E360534D5B4CAC468B
:10955C0020008025E04700213C48594A436D6D04AA
:10956C0013402B430D0031804365564B7160B36043
:10957C004B4B31009C462000E047454B390018000E
:10958C001D6080235B024360C0239B030200856047
:10959C00C3604D4D2000A84702213D4B20001960AF
:1095AC0080233B499B020A004B601021A847802175
:1095BC00E36889000B43E36080238020E268DB00D2
:1095CC001343E360344CC005A446E047344C0823F5
:1095DC00A44680208024002531003380E405093B1B
:1095EC00C0057560B360E0472368384D3B4323608A
:1095FC00374C2800A4468024E0470320E4022C606A
:10960C00344C2F81A446A8722800E0478021C32047
:10961C00314CC902284A21618000E1601358FF22B5
:10962C009343BF3A1343244A135021612B4BE160FF
:10963C002B4898472B482C4B984780210023294ACC
:10964C00890051601100136060224FE0001002404D
:10965C002C0C00203300120000881700B5AA00085B
:10966C0013AA00080004005000000140FF3FFFFF58
:10967C00FFFFFCFFFFFFF3FFFFFFCFFF680C002095
:10968C00CDAB0008000C002081AC000879AF0008BD
:10969C00C4060020002C0140CDAA0008FFFFBFFF2C
:1096AC00E1AB000895AC00086B020000FFF7FFFF70
:1096BC00FFFF00FF182C014000E100E000400140DA
:1096CC00FFFFFFFEFFFF000089AF0008B00600207F
:1096DC0005AA000801A9000800180240AFA700085D
:1096EC000402014090060020F5A70008CB604B61F6
:1096FC000B61BC48BC4B8A6098470721B94A2800CB
:10970C0013683B431360236EB84A8B432366636E26
:10971C0013406366636EB64A1340802252041343AF
:10972C00B44A63669446E047A12303202B600023D0
:10973C002F816B60A8722800AF4DAC46E047202209
:10974C008021E760E260E160276122612161C12133
:10975C00AA4D89006B58AA4803408020C0010343DE
:10976C0080206B506B58C0051B021B0A03436B50C7
:10977C0080214723E760E260E16027612261A14A12
:10978C002161A14CB260A14A310094462000338083
:10979C00E047C5228020236892003B432360AB58EE
:1097AC009B49C0030B40AB502860E368954A3B4390
:1097BC00E360082415003480B260964C934A310063
:1097CC0094462000E0472368934A3B432360934C24
:1097DC0094462000E0471123B560C4258B4A310024
:1097EC00944620003380E0478022236883493B4322
:1097FC002360AD004B59D2051B021B0A13434B517E
:10980C0080231B030B60E368834A3B43E360844C77
:10981C0094462000E04700233380824B3100B36034
:10982C0020007A4EB047236874493B4323604B5960
:10983C00774EAD2233404B51E368FF253B43E36049
:10984C000524794B794E1968520131400A43784905
:10985C001A600A68774EAA4322430A60764ACF3DC3
:10986C009A60764A764CDA605A683000120C120410
:10987C002A435A601A683A431A60724B9847724BE3
:10988C00200098473368714A07211A40C0231B04F3
:10989C0013433360702663698B430B4363616369C5
:1098AC00B3431D4365616A4D6A4B28009847F0230A
:1098BC0080216B6080230320002289015B01E96019
:1098CC00286129006B612000634B2A60AA609847CD
:1098DC008022E368614D920313432800E360604BE0
:1098EC009847C02300221B0629002B6020005D4BEB
:1098FC006A60AA60EA60984723695B4DBB433B43AF
:10990C0023612369594A2B40236123690A201340A0
:10991C001E432661A368564A564F1A4080235B05A6
:10992C001343A360B84780235349A2680E000A4032
:10993C001B061343A3603D4B0193A368002BFCDB78
:10994C000A20B84763690F222B408025AD001D43C8
:10995C0065610125A36A322093432B43A3622560E2
:10996C00B847A368322033402B43A360B847A368A1
:10997C002B42FCD03220B847A368404A334004261F
:10998C001E43A66013680199FF200B403C493D4DD6
:10999C000B43136028232C688443234380242B60BF
:1099AC00394B64009360394B019DD36053681B0C99
:1099BC001B0423435360364B1A682A401143292257
:1099CC00344D1960296881430A432A60324A9A60EF
:1099DC00324ADA605A68120C120422435A6009B0F7
:1099EC00F0BDC04604020140C1A70008FFF8FFFF0C
:1099FC00FFFFFFF805AA000801A9000800E100E03C
:109A0C00FF00FFFFFFFF000000480140E1AB000832
:109A1C00FFFF00FF00440140CDAA000800200040D9
:109A2C0000140040B70B0000300002400F80FFFF15
:109A3C00080802400827014040240140300600205D
:109A4C0000240140BDA50008DDA50008FFFF3FFE76
:109A5C00E40A002099A700084DA70008D40A0020AA
:109A6C003DA7000811A70008FFFDFFFF03FEFFFF45
:109A7C00E8FFFF6F718A0020E8FFFF7F08000240BB
:109A8C00A02500000008024034400140D40800200A
:109A9C001C0002400408024038400140D40600205B
:109AAC00094A0A49536A10B50888546A9BB280B2B5
:109ABC00A34204D9536A01300004184310BD08882E
:109ACC0000041843FAE7C04600480140240C00206B
:109ADC0070B50D00012102000C20234C23688B4330
:109AEC00224923604B6D83434B650821A3680B43CC
:109AFC00A36023688343002D2FD103432360236885
:109B0C001B4950080B40236063681A490B40636083
:109B1C00194B11001B68C018184B9847802380B252
:109B2C00E06022689B05134323600123C720FF21BB
:109B3C002268800013432360114B1A588A4311008A
:109B4C0080220A431A50802252051A602268202370
:109B5C00002D05D11343236070BD19432160CEE75E
:109B6C009A432260F8E7C0460044004000100240CF
:109B7C00FFE9FFEFFFCFFFFF2C010020355B000852
:109B8C0000E100E070B502000C000025084B11004C
:109B9C001D702200074B084898478020074B084A45
:109BAC001C701978074C118023680343236070BD27
:109BBC00840E0020DDB00008800C0020820E0020F6
:109BCC005C0C002000440040F0B585B00293039279
:109BDC00524B029AA0251A7001223026504CED05EA
:109BEC0023680090934301912360EB684D4FB3437E
:109BFC003800EB604C4B984704233B60023B7B6086
:109C0C000023FB6006337B613900484B28009847E2
:109C1C00EB68474A1340EB60EA68019BB243012BA7
:109C2C005ED11F331343EB600C222368039913435B
:109C3C002360404A404B012956D8216819402160C5
:109C4C00636813406360019A3C4B3D49002A55D030
:109C5C0062681340802292021A4362606368194062
:109C6C0080235B020B436360029B364A012B4CD171
:109C7C00A16807339943A16063681A4080231B02D3
:109C8C00134363600025304B009E1B687208190E4D
:109C9C0018022B008018594132002C4EB04700039B
:109CAC00000BE060802023688005034323600123C0
:109CBC00C7262268B60013432360254B25499A59C1
:109CCC001140802212020A439A5118602023226804
:109CDC0013432360204B1D70204B1D8005B0F0BD3D
:109CEC0010231343EB609FE72168194021606368E0
:109CFC001A4080239B0113436360A4E762681A40F7
:109D0C00626063680B406360AEE763681340636036
:109D1C000823A2681343A360B4E7C046FD0A0020E1
:109D2C0000800040440C0020B5AA000813AA0008CB
:109D3C00FFFFFFF3FFCFFFFFFFE9FFEFFFFFFDFF8B
:109D4C00FFFFFEFFFF7FFFFF2C010020215E0008BC
:109D5C0000E100E0FF00FFFF260C0020200C00209B
:109D6C000123F0B520248020184A3026116899432D
:109D7C0011601168A1431160116881431160802149
:109D8C00A020134A8905D167C00502681149B24366
:109D9C0002600A689A430A600F4A15689D43156071
:109DAC000E4D2F689F432F6080277F0057604F60B8
:109DBC000F681F430F601168194311602A68134321
:109DCC002B600368B3431C430460F0BD008000406B
:109DDC0004E100E01C000240080002400040014089
:109DEC00002210B50C000C4B1A700A000B4B010032
:109DFC000B4898470B4B1C700B4B1B78022B04D158
:109E0C000A4B19780919C9B219708023084A1168CC
:109E1C000B43136010BDC046800E0020DDB000085F
:109E2C00FE0A0020810E0020FD0A0020FC0A002002
:109E3C0000800040082202200421364B70B51862C5
:109E4C0019621A62DA69920603D5334A1278002A2B
:109E5C0016D180222F4BD9690A420CD02F48304999
:109E6C00047809788C4207D204782E49621C095D6B
:109E7C00D2B20270996270BD196891431960FAE709
:109E8C00012A0BD0022AE4D1274A1178002930D0BC
:109E9C005B6A1378013BDBB21370DAE7586A002176
:109EAC00224BC0B29847224B1A788018C0B2C828EF
:109EBC001BD818701F4A1388FE2B02D801339BB293
:109ECC0013801D4A11780029C3D1002816D10E2BFE
:109EDC0005D81A4A1278002ABBD0062BB9D8002113
:109EEC00174A184B11709847B3E7C822C8201A704C
:109EFC00E0E7586A144BC0B29847AAE701250F4C0B
:109F0C00124B134815702570984702220C4B1A708F
:109F1C009FE7C04600800040FD0A0020800E002014
:109F2C00810E0020FE0A0020FC0A0020597000203F
:109F3C00260C0020200C00202A0C0020940100206C
:109F4C00480500206D9D00082D8F0008DD9A000843
:109F5C0020A107000A4B0B490B4A1A60196000211B
:109F6C0059600131D8680842FCD1FA218900996006
:109F7C000221D8680842FCD11A60044A1A60704762
:109F8C000030004055550000CCCC0000AAAA0000BF
:109F9C00014B024A1A60704700300040AAAA000028
:109FAC00044B5A69002A03DA034A9A60034A9A60FE
:109FBC007047C0460020024023016745AB89EFCDB6
:109FCC008023034A1B0651690B4353617047C046FB
:109FDC000020024080238021044A5B05490210695D
:109FEC00084202D0013B002BF9D1704700200240FF
:109FFC00F8B5144D144B06002B60144B9847144FB6
:10A00C00B847144C144BF8222361FF231206B618E0
:10A01C00DB00360A60691E40104B1840064366612F
:10A02C000226636933436361802362695B021343D5
:10A03C006361B8476369B3436361094B9847024B4B
:10A04C002B60F8BD00300040AAAA0000AD9F0008AC
:10A05C00E19F000800200240FBC3018007FEFFFFC8
:10A06C00CD9F0008F7B501260500094F094C009259
:10A07C000193B847084B2361636933436361009BC9
:10A08C002B60019B6B60B8476369B3436361F7BD99
:10A09C00E19F000800200240FBC30180F7B51B4B79
:10A0AC0006001B480D00984732201A4FB8471A4B30
:10A0BC009847002461008BB20193A54204D8174B3A
:10A0CC009847C820B847F7BD154B164A601C1A6054
:10A0DC000023725AA84204DA73185B881B041A43D3
:10A0EC000023A01C854202DD701880880343E01C0D
:10A0FC00854203DD7118C98809040B430449019892
:10A10C000434401808498847A4B2D3E7FD9F0008DF
:10A11C0000100008718A0020AD9F0008CD9F000838
:10A12C0000300040AAAA000071A00008002370B5FE
:10A13C00054A064C064D49008B4200D170BD5E5B52
:10A14C001460C6520233F7E700300040AAAA0000A0
:10A15C00001000080123024A1370024A1370704762
:10A16C007C0C0020650C0020012280B5054B00AF53
:10A17C001A70054B1B6883F30888044B1B689847BF
:10A18C00BD4680BD650C00200018000804000008C6
:10A19C00F7B5002301204B4A010099400133D167E8
:10A1AC001E2BF9D1484B98473220484B9847484BC7
:10A1BC009847484B9847484B484A1B7812781343AA
:10A1CC007DD0A0228023D205936280231168444F56
:10A1DC00DB0139400B43136080231168414D5B0256
:10A1EC0029400B430121032413603F4B99621868EB
:10A1FC00A04308431860802016683C4CC0022640DF
:10A20C003043106002200C2698621868B043060098
:10A21C00042030431860166835480640B446802642
:10A22C006046760306431660002631480094019080
:10A23C000800B0408446644622480136C4671E2E8E
:10A24C00F6D162369662166880243E408027FF0164
:10A25C0037431760166800982E4080256D023543F1
:10A26C000326156099621D68E402B5432943196001
:10A27C00116801400C43022114600C249962196886
:10A28C008020A1430C00042121431960136801991B
:10A29C0040030B401843174B10605A6B00225A6353
:10A2AC00D96BDA63196C07211A649A688A439A602D
:10A2BC001A6811490A401A60104B9847FEE7104B78
:10A2CC00984778E704E100E059920008718A002071
:10A2DC00556D00082D8200087C0C0020640C0020B9
:10A2EC00FF3FFFFFFFFFFCFF00040050FFFFF3FFE9
:10A2FC00FFFFCFFF00100240FFFFFFFE75A100081B
:10A30C00896100200122034B1A70034B31321A7001
:10A31C007047C046650C0020640C002070B50D4DD4
:10A32C00A8470D4B0D4C98470D4BE3600D4BE3606C
:10A33C00A84780231B06A362A847FF22236A9343E6
:10A34C002362A84780239B026361A847064B98476A
:10A35C0070BDC046E19F0008AD9F00080020024080
:10A36C003B2A19087F6E5D4CCD9F0008044B10B53D
:10A37C001B6ADBB2002B01D0024B984710BDC046C4
:10A38C000020024029A300080721364B10B59A681B
:10A39C0035488A439A601A68024034481A60026849
:10A3AC008A43110002220A4302608022196852007B
:10A3BC000A431A608022D20019681142FCD0DA6874
:10A3CC002B4911402B4A0A43DA6080221968520447
:10A3DC000A431A608022D96852050A43DA60802247
:10A3EC00920419681142FCD0DA6823491140234ABF
:10A3FC000A43DA608022D96852040A430721DA60E2
:10A40C009A688A43110002220A4338219A609A689A
:10A41C000A40102AFBD19A6819491A480A409A60D6
:10A42C009A6819490A409A60184A194B9A60194B54
:10A43C0098471448184B9847184B1948194A59789B
:10A44C009C181A78090211439A7812041143DA788D
:10A45C00043312060A4322608342EFD1124B984711
:10A46C0010BDC04600100240FFFFFFFE002002405E
:10A47C008C80FF1F324800608C80FFF13248002036
:10A48C00FFF0FFFF00A24A04FF8FFFFF0018000837
:10A49C0000ED00E069B000088DB000080B1B00084F
:10A4AC000B5B0008F534001879A300087047000016
:10A4BC00A023F0B5802502241B4ADB059D62196898
:10A4CC001A481B4E01408020C001014319601968D5
:10A4DC0003270E408021490231431960012191620A
:10A4EC001668BE43314311601968124E093731406A
:10A4FC008026F6023143196094621168B9430F004B
:10A50C0004213943116019680B4F0F408021490316
:10A51C00394319600949C8670948CE670661C660A6
:10A52C0080204001C867C9E700040050FF3FFFFFCF
:10A53C00FFFFFCFFFFFFF3FFFFFFCFFF04E100E095
:10A54C000018024070477047704700008022024B91
:10A55C0012059A607047C04600ED00E00D48854634
:10A56C00002103E00C4B5B58435004310B480C4B5F
:10A57C0042189A42F6D30B4A02E0002313600432CD
:10A58C00094B9A42F9D3FFF7E1FF00F07FFDFFF78B
:10A59C00FFFDFEE7005000206CBD0008000000200D
:10A5AC003001002030010020880E0020FEE7000062
:10A5BC008022054B5203196B00200A431A631A6B55
:10A5CC0002490A401A63704700100240FFFFEFFF78
:10A5DC00030013B5002001909A68D20735D5DA68CC
:10A5EC003E490A40DA609A68520708D510229968E9
:10A5FC00114204D199683A4801400A439A6080227A
:10A60C00002010210124120201929A680A4214D1EE
:10A61C009A68334901240A4002210A439A60802235
:10A62C00120201929A680A420FD0019A013A0192E1
:10A63C00019A002AF6D12000F4E7019A013A01921E
:10A64C00019A002AE1D12000DFE717229968114214
:10A65C0041D15A682349244C0A405A601968234A4C
:10A66C000A431A609A6822490A409A60DA682149BA
:10A67C000A40DA601A6920490A401A615A691F496E
:10A68C000A405A61196A1E4A214011431962596ADB
:10A69C00214011435962D96A0C402243DA629A6A0A
:10A6AC008021D20CD2049A62C0220124920201921F
:10A6BC0089011A680A4207D1019A013A0192019A5A
:10A6CC00002AF6D12000F4E719607F21B4331A6810
:10A6DC008A431A6016BD0120FCE7C0463FF2FFFF1B
:10A6EC00E8FFFF7F60D4FFFF00F000F09F2B00001D
:10A6FC00FFFFFFEF00023E8302FCFF3F880000F8E3
:10A70C000000FF0F8368020030B501201C000440DC
:10A71C0003420AD14B688D68C9682B43D0680B4340
:10A72C000249014020000B43D36030BDC73FFFFFFF
:10A73C008023DB050360002343608360C3607047A4
:10A74C00020083680120F0B5034217D1CC680B6876
:10A75C00D668234348680F694D690B4CB60201D586
:10A76C00F0280CD0D6683B432B43344089682343F4
:10A77C000B43D360936A184390620020F0BDD168FC
:10A78C003B432B432140F3E73CC2FEFF0023036015
:10A79C008360C36003618023F0225B0142604361EC
:10A7AC007047026803000120002A01DB00201860BA
:10A7BC00704700000368020010B50120002B10DB6D
:10A7CC004C680B68106823438C682343CC68234384
:10A7DC000C69496923430B430249014000200B4398
:10A7EC00136010BD0F7C00FE8023DB02302203605F
:10A7FC00002343608260C3600361436170470000C3
:10A80C000200324830B5324B81420DD19A4201D010
:10A81C00012030BD01212F4B00209A6A0A439A6215
:10A82C009A6A8A439A62F4E79A4225D1012925D083
:10A83C00022925D0032925D0042925D0052925D086
:10A84C008B1F5842434113205B42834322481B1801
:10A85C0001241868FF25A043186000201860586078
:10A86C009860D8601D4BCB189B001C68AC431C60D7
:10A87C0001290DD15160CCE7174BE9E7184BE7E7FD
:10A88C00184BE5E7184BE3E7184BE1E7184BDFE70C
:10A89C001023022903D0032903D180235B005360CA
:10A8AC00B7E7042902D180235B01F8E7052902D11F
:10A8BC0080235B02F3E7062902D180235B03EEE7DA
:10A8CC000729A5D180235B04E9E7C0460000FFFF00
:10A8DC00000002400010024080000240FF81001086
:10A8EC00080002401C0002403000024044000240BC
:10A8FC005800024030B5010003684268007A002815
:10A90C005ED00020834220D04C7A012C2FD0022C18
:10A91C0036D00130002C08D1324DE86F9843E867EF
:10A92C00314DE86F1843E86720008C7A002C0CD06E
:10A93C00022C29D0032C2FD0012C31D12B4C656843
:10A94C009D43656025682B432360002A0ED04B7A0B
:10A95C00012B28D0022B2CD0002B2ED124490B6894
:10A96C0093430B6023490B681A430A6030BD1E4D9C
:10A97C00EC6F9C43EC671B4DEC6F1C43EC67D4E70E
:10A98C00194DEC6F1C43F5E7184C25689D43256069
:10A99C0065682B436360D8E7144C25681D43F6E7C4
:10A9AC0002231843D1E713490B6893430B601049FA
:10A9BC00D9E710490B681343F8E704231843D5E78C
:10A9CC00094CE16F9943E167064CE16F9943E167EC
:10A9DC0008490B6893430B6005490B6893430B6064
:10A9EC00C4E7C04608180240041802400018024090
:10A9FC0094180240901802400023036043600381C6
:10AA0C00023383727047F7B500254B680A680093D0
:10AA1C00013B01931300EB400AD1019B012B05D89C
:10AA2C004368C96893434A431A4342600020FEBD01
:10AA3C0001241300AC402340224228D01A000327E3
:10AA4C005A4357433E000468FF43B443009E5643A9
:10AA5C0034430460019C012C05D88C6886685443EF
:10AA6C003E40344384600C69C668544337402743E6
:10AA7C00009CC760022C0AD14C69FF2B09D80F2609
:10AA8C00524356436243036AB34313430362013593
:10AA9C00BBE70F221B0A5B435B435A436343466A83
:10AAAC0096431E434662F2E7044B03600323436064
:10AABC0000238360C360036143617047FFFF0000A4
:10AACC00314A030090420AD18022304B1201196B9B
:10AADC000A431A631A6B2E490A401A630BE0802250
:10AAEC00D205904209D10121284BDA6A0A43DA6275
:10AAFC00DA6A8A43DA6200207047264A904203D110
:10AB0C00224B0221DA6AF1E7234A904203D11F4B10
:10AB1C001021DA6AEAE7214A904203D11B4B20212B
:10AB2C00DA6AE3E71E4A904208D18022174B1202E0
:10AB3C00196B0A431A631A6B1A49CDE71A4A9042E9
:10AB4C0008D18022114B5202196B0A431A631A6BFB
:10AB5C001649C1E7164A904208D180220B4B92024B
:10AB6C00196B0A431A631A6B1249B5E7124A012092
:10AB7C009342C1D18022054BD202196B0A431A634E
:10AB8C001A6B0E49A8E7C046002C01400010024089
:10AB9C00FFF7FFFF000400400010004000140040CD
:10ABAC0000200040FF7FFFFF00400140FFFFFEFF41
:10ABBC0000440140FFFFFDFF00480140FFFFFBFF89
:10ABCC00012200235242038043608260C3600374FD
:10ABDC0070470000204A10B50368904206D08024CC
:10ABEC00E405A04202D01D4CA0420CD17024A3431A
:10ABFC004C682343904212D08024E405A0420ED02E
:10AC0C00164CA0420BD0164CA04208D0154CA042BA
:10AC1C0005D0154CA04202D0144CA04203D1144CC8
:10AC2C002340CC68234303608B68C3620B88836228
:10AC3C00904208D00B4B984205D00B4B984202D057
:10AC4C000A4B984201D10B7C0363012342691343E5
:10AC5C004361002010BDC046002C014000040040A0
:10AC6C0000200040004001400044014000480140E9
:10AC7C00FFFCFFFF0023036043608360C36003613C
:10AC8C0043618361C3617047802370B55B01994256
:10AC9C0000D1EEE00BD8102900D173E080235B00CB
:10ACAC00994200D1ACE0012935D0012070BD802340
:10ACBC005B02994200D107E180235B039942F4D1F6
:10ACCC00036A964D964C2B400362036A416D2140FA
:10ACDC0014682602934C31431C4013691B05234313
:10ACEC0054682B40240523438F4CA04208D08F4C32
:10ACFC00A04205D08E4CA04202D08E4CA04206D170
:10AD0C00456894698C4EA40235402C434460D2684B
:10AD1C004165C26534E0036A884E8B430362036A63
:10AD2C00446885693540166835430226B343166975
:10AD3C0033438B4351680B437B49884208D07B4992
:10AD4C00884205D07A49884202D07A49884213D188
:10AD5C0008218B43190053699B000B4304218B433F
:10AD6C00916889000B4376490C4091690C437549F5
:10AD7C000C40D16949000C43D26844608561426340
:10AD8C0003623BE0036A704E8B430362056A4368BF
:10AD9C00846934401668360234432026B5432E00AD
:10ADAC0015692D0135438D43290055682D01294323
:10ADBC005D4DA84208D05D4DA84205D05C4DA8421F
:10ADCC0002D05C4DA84214D18025A9430D005169D5
:10ADDC00890129434025A9439568AD0129435B4D61
:10ADEC001D4093699B002B43594D2B40D569ED00B9
:10ADFC002B434360D368846183630162002055E771
:10AE0C00036A4F4E4D4D33400362016A4368C46977
:10AE1C002C4015682C434B4D0D40116909022943F8
:10AE2C00556831402D0229433F4DA84208D03F4D73
:10AE3C00A84205D03E4DA84202D03E4DA84213D1A7
:10AE4C00434D0D40516989022943404D2940956875
:10AE5C00AD0229433F4D1D4093691B012B433E4DD1
:10AE6C002B40D5696D012B434360D368C461C36328
:10AE7C00C3E7036A374E344D33400362036A4168BB
:10AE8C00C4692C4015682D022C43334D1D401369A9
:10AE9C001B032B43556833402D032B43224DA842F3
:10AEAC0008D0224DA84205D0214DA84202D0214DF8
:10AEBC00A84204D1294D29409569AD012943D26896
:10AECC004160C46102645BE7036A2549254D0B4070
:10AEDC000362036A446D2C4015682C43224D1D40BF
:10AEEC0013691B042B4355680B402E040E4D334342
:10AEFC000E00A84208D00D49884205D00C49884262
:10AF0C0002D00C49884205D1456891693540090247
:10AF1C0029434160D2684465826531E7FFFFEFFF4A
:10AF2C00FF8FFFFEFFFFDFFF002C014000400140C0
:10AF3C000044014000480140FFFFFBFF8CFFFEFF77
:10AF4C00FFFEFFFFFFFDFFFFFF8CFFFEFFFBFFFF80
:10AF5C00FFF7FFFFFFEFFFFFFFDFFFFFFFBFFFFF6D
:10AF6C00FFFFFEFF8FFFFEFFFFFFFDFF8022002390
:10AF7C005202036042608360C3607047802330B527
:10AF8C005B0099424AD005D801291BD010292DD03D
:10AF9C00012030BD80235B019942F9D1036A2A4C10
:10AFAC00D568234003625368C4692B4395682B43CF
:10AFBC00264D1B0A2C402343C3611368046A244AA0
:10AFCC001B033EE0036AD5688B43036253688469B4
:10AFDC002B43956812682B43FF251B0CAC43234372
:10AFEC000A248361036AA343134313E0036AD568FD
:10AFFC008B430362536884692B4395682B43134D31
:10B00C001B0A2C40234383611368A022046A1B0192
:10B01C0094432343194301620020BAE7036A0D4CA1
:10B02C00D568234003625368C4692B4395682B434E
:10B03C00FF251B0CAC432343C3611368046A064A07
:10B04C001B022240D0E7C046FFEFFFFFFF00FFFFCF
:10B05C00FF5FFFFFFFFEFFFFFFF5FFFFFA2110B5BB
:10B06C00054B890098470022044B013858609A60C0
:10B07C0005321A6010BDC046355B000810E000E0D8
:10B08C00014B18607047C0462C01002070B50C4D68
:10B09C000C4E761BB61005D0002408CD0134984711
:10B0AC00A642FAD1FFF770F9074D084E761BB61081
:10B0BC0005D0002408CD01349847A642FAD170BDC2
:10B0CC006CBD00086CBD00086CBD00086CBD0008B0
:10B0DC00F0B5C64600B50F2A41D903270D003E0036
:10B0EC0005430C0003002E402F423DD11500103DAE
:10B0FC002D09AC462D01A8468044256867681D6063
:10B10C005F60A568E7689D60DF6010341F00103336
:10B11C004745F2D165460F230C2401352D01491901
:10B12C0013404519144222D08C59AC5104369C1B47
:10B13C00032CF9D80324043B9B0801339B002240C9
:10B14C00ED18C918561E002A06D00023CC5C1A0034
:10B15C00EC5401339642F9D104BC9046F0BD050085
:10B16C00561E002AF1D1F7E70500561EEDE71A002E
:10B17C00F6E7C046F0B5050083074AD0541E002AF6
:10B18C0044D003000322CEB202E00135013C3DD392
:10B19C0001332E701342F8D1032C2FD9FF220A4011
:10B1AC00150215432A0415430F2C35D92700103FDF
:10B1BC003F093E01B4461E001A0010366644156065
:10B1CC0055609560D5601032B242F8D10F260C2232
:10B1DC0001373F012640DB193700224217D03E1FB2
:10B1EC00B608B400A4461A001C1D644420C2A24236
:10B1FC00FCD103240136B6009B193C40002C05D031
:10B20C00C9B21C19197001339C42FBD1F0BD34003A
:0CB21C00F4E714000300BFE72700E0E7A0
:10B2280005090701030B090507010B037F878F96A3
:10B238009DA4AAB1B7BDC3C9CED3D8DDE1E5E9EC79
:10B24800EFF2F5F7F9FBFCFDFEFFFFFFFEFDFCFB4F
:10B25800F9F7F5F2EFECE9E5E1DDE1E5E9ECEFF22C
:10B26800F5F7F9FBFCFDFEFFFFFFFEFDFCFBF9F720
:10B27800F5F2EFECE9E5E1DDD8D3CEC9C3BDB7B14E
:10B28800AAA49D968F877F7870685F574F463E3592
:10B298002C231B1209000000000000000000000021
:10B2A8000000000000000000000000000000000096
:10B2B8000000000000000000000000000000000086
:10B2C8000000000000000000000000000000000076
:10B2D800000009121B232C353E464F575F687078D3
:10B2E8007F878F969DA4AAB1B7BDC3C9CED3D8DD39
:10B2F800E1E5E9ECEFF2F5F7F9FBFCFDFEFFFFFFF6
:10B30800FEFDFCFBF9F7F5F2EFECE9E5E1DDE1E53F
:10B31800E9ECEFF2F5F7F9FBFCFDFEFFFFFFFEFDA0
:10B32800FCFBF9F7F5F2EFECE9E5E1DDD8D3CEC99E
:10B33800C3BDB7B1AAA49D968F877F7870685F5701
:10B348004F463E352C231B12090000000000000068
:10B3580000000000000000000000000000000000E5
:10B3680000000000000000000000000000000000D5
:10B3780000000000000000000000000000000000C5
:10B3880000000000000009121B232C353E464F57D1
:10B398005F6870787F879098A1A9B2BAC3CBD4DCD4
:10B3A800E5EDF6FFFFFFFFFFFFFFFFFFFFFFFFFFDA
:10B3B800FFFFFFFFFFFFFFFFFFFFFFFFFFFFFFFF95
:10B3C800FFFFFFFFFFFFFFFFFFFFFFFFFFFFFFFF85
:10B3D800FFFFFFFFFFFFFFFFFFFFFFFFFFFFFFFF75
:10B3E800F7EEE6DDD5CCC4BBB3AAA29991888078E4
:10B3F8006F675E564D453C342B231A120900000036
:10B408000000000000000000000000000000000034
:10B418000000000000000000000000000000000024
:10B428000000000000000000000000000000000014
:10B4380000000000000000000000081119222A3353
:10B448003B444C555D666E777F879098A1A9B2BA48
:10B45800C3CBD4DCE5EDF6FFFFFFFFFFFFFFFFFFE7
:10B46800FFFFFFFFFFFFFFFFFFFFFFFFFFFFFFFFE4
:10B47800FFFFFFFFFFFFFFFFFFFFFFFFFFFFFFFFD4
:10B48800FFFFFFFFFFFFFFFFFFFFFFFFFFFFFFFFC4
:10B49800FFFFFFFFF7EEE6DDD5CCC4BBB3AAA29948
:10B4A800918880786F675E564D453C342B231A127D
:10B4B800090000000000000000000000000000007B
:10B4C8000000000000000000000000000000000074
:10B4D8000000000000000000000000000000000064
:10B4E800000000000000000000000000000008113B
:10B4F80019222A333B444C555D666E7700000100E3
:10B508000200030004000500060007000800090007
:10B518000A000B000C000D000E000F0010001100B7
:10B528001200130014001500160017001800200060
:10B53800240028002C002F003200350038003B0082
:10B548003E0040004300450048004A004C004F00C0
:10B5580051005300550057005A005C005E0060001F
:10B5680062006400660068006A006C006D006F008D
:10B57800710073007500770079007A007C007E0006
:10B588008000810083008500870088008A008C0085
:10B598008D008F009100920094009600970099000A
:10B5A8009A009C009E009F00A100A200A400A50094
:10B5B800A700A900AA00AC00AD00AF00B000B2001F
:10B5C800B300B500B600B800B900BB00BC00BD00B0
:10B5D800BF00C000C200C300C500C600C800C90043
:10B5E800CA00CC00CD00CF00D000D100D300D400D9
:10B5F800D500D700D800DA00DB00DC00DE00DF0071
:10B60800E000E200E300E400E600E700E800EA000A
:10B61800EB00EC00EE00EF00F000F200F300F400A5
:10B62800F500F700F800F900FB00FC00FD00FE0043
:10B6380000010101020104010501060107010901D8
:10B648000A010B010C010E010F0110011101130178
:10B65800140115011601170119011A011B011C011A
:10B668001E011F01200121012201240125012601BB
:10B678002701280129012B012C012D012E012F0161
:10B688003101320133013401350136013801390104
:10B698003A013B013C013D013F01400141014201AA
:10B6A8004301440145014701480149014A014B0151
:10B6B8004C014D014F0150015101520153015401F8
:10B6C80055015601580159015A015B015C015D01A0
:10B6D8005E015F0160016201630164016501660149
:10B6E8006701680169016A016B016D016E016F01F3
:10B6F800700171017201730174017501760177019E
:10B70800780179017B017C017D017E017F01800147
:10B7180081018201830184018501860187018801F5
:10B7280089018A018C018D018E018F01900191019F
:10B73800920193019401950196019701980199014D
:10B748009A019B019C019D019E019F01A001A101FD
:10B75800A201A301A401A501A601A801A901AA01AA
:10B76800AB01AC01AD01AE01AF01B001B101B20155
:10B77800B301B401B501B601B701B801B901BA0105
:10B78800BB01BC01BD01BE01BF01C001C101C201B5
:10B79800C301C401C501C601C701C801C901CA0165
:10B7A800CB01CC01CD01CE01CF01D001D101D20115
:10B7B800D301D401D401D501D601D701D801D901CB
:10B7C800DA01DB01DC01DD01DE01DF01E001E1017D
:10B7D800E201E301E401E501E601E701E801E9012D
:10B7E800EA01EB01EC01ED01EE01EF01F001F101DD
:10B7F800F101F201F301F401F501F601F701F80195
:10B80800F901FA01FB01FC01FD01FE01FF01000243
:10B8180001020202030203020402050206020702F1
:10B82800080209020A020B020C020D020E020F02A4
:10B838001002110212021202130214021502160259
:10B848001702180219021A021B021C021D021E020C
:10B858001E021F02200221022202230224022502C4
:10B86800260227022802290229022A022B022C0278
:10B878002D022E022F02300231023202330233022D
:10B888003402350236023702380239023A023B02E4
:10B898003C023C023D023E023F024002410242029B
:10B8A8004302440245024502460247024802490251
:10B8B8004A024B024C024D024D024E024F02500208
:10B8C80051025202530254025502550256025702BF
:10B8D800580259025A025B025C025D025D025E0276
:10B8E8005F0260026102620263026402640265022E
:10B8F80066026702680269026A026B026B026C02E6
:10B908006D026E026F02700271027102720273029E
:10B9180074027502760277027802780279027A0256
:10B928007B027C027D027E027E027F02800281020F
:10B9380082028302840284028502860287028802C8
:10B9480089028A028A028B028C028D028E028F0281
:10B95800900290029102920293029402950295023B
:10B9680096029702980299029A029B029B029C02F5
:10B978009D029E029F02A002A002A102A202A302AF
:10B98800A402A502A502A602A702A802A902AA0269
:10B99800AA02AB02AC02AD02AE02AF02B002B00224
:10B9A800B102B202B302B402B502B502B602B702DE
:10B9B800B802B902B902BA02BB02BC02BD02BE0299
:10B9C800BE02BF02C002C102C202C302C302C40255
:10B9D800C502C602C702C802C802C902CA02CB020F
:10B9E800CC02CC02CD02CE02CF02D002D102D102CB
:10B9F800D202D302D402D502D502D602D702D80287
:10BA0800D902DA02DA02DB02DC02DD02DE02DE0241
:10BA1800DF02E002E102E202E202E302E402E502FE
:10BA2800E602E602E702E802E902EA02EB02EB02BA
:10BA3800EC02ED02EE02EF02EF02F002F102F20276
:10BA4800F302F302F402F502F602F702F702F80233
:10BA5800F902FA02FB02FB02FC02FD02FE02FF02EF
:10BA6800FF020003010302030303030304030503A6
:10BA7800060306030703080309030A030A030B0363
:10BA88000C030D030E030E030F031003110312031F
:10BA980012031303140315031603160317031803DD
:10BAA800190319031A031B031C031D031D031E039B
:10BAB8001F03200321032103220323032403240358
:10BAC8002503260327032803280329032A032B0316
:10BAD8002B032C032D032E032F032F0330033103D5
:10BAE8003203320333033403350336033603370393
:10BAF8003803390339033A033B033C033C033D0352
:10BB08003E033F034003400341034203430343030F
:10BB180044034503460347034703480349034A03CD
:10BB28004A034B034C034D034D034E034F0350038D
:10BB3800500351035203530354035403550356034C
:10BB480057035703580359035A035A035B035C030B
:10BB58005D035D035E035F036003600361036203CB
:10BB6800630363036403650366036703670368038A
:10BB780069036A036A036B036C036D036D036E0349
:10BB88006F03700370037103720373037303740309
:10BB980075037603760377037803790379037A03C9
:10BBA8007B037C037C037D037E037F037F03800389
:10BBB8008103820382038303840385038503860349
:10BBC80087038803880389038A038B038B038C0309
:10BBD8008D038D038E038F039003900391039203CB
:10BBE800930393039403950396039603970398038B
:10BBF800990399039A039B039C039C039D039E034B
:10BC08009F039F03A003A103A103A203A303A4030B
:10BC1800A403A503A603A703A703A803A903AA03CC
:10BC2800AA03AB03AC03AC03AD03AE03AF03AF038E
:10BC3800B003B103B203B203B303B403B503B5034E
:10BC4800B603B703B703B803B903BA03BA03BB0310
:10BC5800BC03BD03BD03BE03BF03BF03C003C103D1
:10BC6800C203C203C303C403C503C503C603C70392
:10BC7800C703C803C903CA03CA03CB03CC03CC0355
:10BC8800CD03CE03CF03CF03D003D103D203D20316
:10BC9800D303D403D403D503D603D703D703D803D8
:10BCA800D903D903DA03DB03DC03DC03DD03DE039A
:10BCB800DE03DF03E003E103E103E203E303E3035D
:10BCC800E403E503E603E603E703E80300000000F6
:10BCD800000000000000000000002B000000000031
:10BCE8002B00000000005212010064000000E8036D
:10BCF800D007010064000000000019000265000080
:10BD08000000000000000000000000000A00000021
:10BD18009A016400010000004A0170170700000042
:10BD2800000006000000000000000A0000000A00F1
:10BD38000000081C3044586C80020000068F000880
:10BD4800DC8E0008E68E0008F08E0008FA8E0008E7
:0CBD5800B48E0008B48E0008B48E000801
:08BD6400FCA0FF7F01000000BC
:10BD6C0001000000E80300000000000000000000DB
:10BD7C00000000000000000000000000E8030000CC
:10BD8C0000000000000000000000000000000000A7
:10BD9C000000000020A107001400803E3C7801FF49
:10BDAC0001006400010314FF8084888D91969A9E93
:10BDBC00A3A7ABAFB3B7BBBFC3C7CACED1D5D8DB74
:10BDCC00DEE1E4E7E9ECEEF0F2F4F6F7F9FAFBFC6D
:10BDDC00FDFEFEFFFFFFFFFFFEFEFDFCFBFAF9F789
:10BDEC00F6F4F2F0EEECE9E7E4E1DEDBD8D5D1CE07
:10BDFC00CAC7C3BFBBB7B3AFABA7A39E9A96918D6F
:10BE0C008884807B77726E6965615C5854504C48AD
:10BE1C0044403C3835312E2A2724211E1B1816137A
:10BE2C00110F0D0B090806050403020101000000A7
:10BE3C0000000101020304050608090B0D0F111384
:10BE4C0016181B1E2124272A2E3135383C40444815
:10BE5C004C5054585C6165696E72777B95AABED163
:10BE6C00E0EDF6FCFEFCF6EDE0D1BFAA957F69543F
:10BE7C00402D1E110802000208111E2D3F54697F2F
:10BE8C0002080104E803E803F40100000024F400B4
:040000050800A569E1
:00000001FF
