:020000040800F2
:1018000000500020059C0008A59B0008A99B00082B
:1018100000000000000000000000000000000000C8
:10182000000000000000000000000000ED9B000828
:101830000000000000000000EF9B0008F19B000882
:10184000559C0008559C0008559C0008559C0008B4
:10185000559C000899860020559C0008A58600200C
:10186000559C0008559C0008559C0008559C000894
:1018700075540020559C000891580020559C000884
:10188000559C0008559C0008616A00207586002060
:10189000559C0008559C00086D8A0008559C00085E
:1018A000559C0008559C0008559C0008559C000854
:0C18B000E1860020DD950008559C000832
:101B0B001B4A30B51388642925DDFA2189008B42E5
:101B1B0001D201331380FA24164915880B68164A33
:101B2B006400A5421CD9F43CFF3C1470134A0234E8
:101B3B0014700024124A1470FA221201934201D23B
:101B4B0001330B60FA230A689B00D2089B1A984258
:101B5B0000D998B230BD012BDDD9013B1380DAE7F8
:101B6B00012B01D9013B0B6000231370EAE7C04640
:101B7B0064030020680300206C0300205301002045
:101B8B00540100205308D3189BB230B5994200DDA5
:101B9B0019B21E4C1E4B25688A1A196852198A42B3
:101BAB0000DA0A00FA2149028A421FDC2260FA227B
:101BBB0021689200C911521A12B2111C002A00DAC4
:101BCB0000210AB2824200DA88B2124A1188C82276
:101BDB00520091420CD2F5229200121AD2011A60D5
:101BEB001A68002A01DA00221A6030BD2160DEE794
:101BFB0096229200914204D2074A121AD2011A601D
:101C0B00EEE7121AD2011A60EAE7C0467001002013
:101C1B007003002034010020520300005308D31836
:101C2B009BB230B5994200DD19B2144B8A1A144994
:101C3B001D680C685219A24200DA2200FA24A40291
:101C4B00A24216DC1A601A68FA2312129B009B1A26
:101C5B001BB21A1C002B00DA002213B2834200DAEB
:101C6B0090B2E1239B001B1A1A02002B03DB0A60C4
:101C7B0030BD1C60E7E700230B60F9E7740100201F
:101C8B00740300201A4B70B51A4D040018688A1A99
:101C9B00296812188A4200DA0A0017498A4219DCAD
:101CAB001A60FA2118688900144B9847FA239B0095
:101CBB00181A00B2031C002800DA00231AB2A24241
:101CCB0000DA9CB20E4B1B78002B05D10D4B2B6011
:101CDB00200070BD1960E4E7FA230B4A9B00121B2E
:101CEB005343002B01DB2B60F2E70023FBE7C046DD
:101CFB00780100207803002040420F00495C000867
:101D0B005403002020A10700E70300001A4B70B515
:101D1B001A4D040018688A1A296812188A4200DAC8
:101D2B000A0017498A4219DC1A60FA2118688900DF
:101D3B00144B9847FA239B00181A00B2031C002877
:101D4B0000DA00231AB2A24200DA9CB20E4B1B78C7
:101D5B00002B05D10D4B2B60200070BD1960E4E703
:101D6B00FA230B4A9B00121B5343002B01DB2B6006
:101D7B00F2E70023FBE7C0467C0100207C03002038
:101D8B0040420F00495C00085403002020A10700CB
:101D9B00E7030000F0B5364B1B78002B35D001283C
:101DAB0056D0022848D0002836D0802680238025A4
:101DBB00304FF6053970766A2F49304F0E603F78F9
:101DCB002F49304E0F8037802F49304FDB026D018A
:101DDB000B612F4ECB603D602E4D0B61CB6033788A
:101DEB002E6807243100E31AD9400B00C8212A4D75
:101DFB002A4CDBB22B70890020708E4206D3052B48
:101E0B0001D905232B70264B1A70F0BD002BFAD08D
:101E1B00013BDBB22B70F2E7224F234EBC466346ED
:101E2B00376898251F408024A023AD003D43DB0578
:101E3B00240135609C62B8E7B02340261A4D194F38
:101E4B002C685B003C402343184C2B60A662ACE72C
:101E5B00144B154E9C466446336860272340A025DF
:101E6B008024ED053B4364013360AC629DE7C046C3
:101E7B00000000201C0300202C030020A2010020E6
:101E8B00A6010020300100200018024000E100E014
:101E9B0044000020380100202303002050030020C1
:101EAB00550300200FFCFFFF040201400008005007
:101EBB0010B52B4B1B78002B28D02A4A13780133F3
:101ECB00DBB20C2B18D013701078274B02011B6858
:101EDB00121A9B189BB2B32B01D9B43B9BB2234A6A
:101EEB00013813700A2811D803F0C6F90810111025
:101EFB001B1021102A1034000023E4E71C4B012295
:101F0B00187800210130C0B2FFF744FF10BD02204A
:101F1B00174B03221B780121C01AC0B2FFF73AFFFF
:101F2B00F4E7002105220800FFF734FFEEE7104B22
:101F3B000722187801210130C0B2FFF72BFFE5E72C
:101F4B0002200B4B09221B780021C01AC0B2FFF7ED
:101F5B0021FFDBE70B2201210020FFF71BFFD5E759
:101F6B0054030020A1010020B0010020A201002099
:101F7B0090030020802110B5144AC902144B116143
:101F8B001448D1601B6800785B00DB0F98421CD0B3
:101F9B001161D1608022104B5201DA670F49104B4F
:101FAB00104A1B7809881380994201D9B4331380E6
:101FBB0080230D49DB0508680C4A5C6AC300126874
:101FCB001B1A1B199B1ADB080B6010BD0018024073
:101FDB00040201401C03002004E100E0A6010020E4
:101FEB00A2010020300100205C0300202C03002004
:101FFB0010B5264B1888264B1A78122820D8002AA1
:10200B0006D12449244C0A6822400A6001221A7026
:10201B00224B9B8D002B05D08C2828D9204B1B885D
:10202B00312B24D91F4B1B78012B16D0022B1AD026
:10203B00002B04D1A0238022DB0512019A6110BD75
:10204B00012AE5D1134C1449226811408022D20297
:10205B000A43226000221A70DAE7A0238022DB05F4
:10206B0052019A61EBE740220F4B9A61E7E7A023FD
:10207B008022DB0512019A62802252019A62402271
:10208B00094B9A62094B3F3A1A70D8E7340100208A
:10209B004000002004020140FFFFF3FF9C030020DF
:1020AB009601002050030020000800503E00002045
:1020BB00F7B5914E914F32683B88914D0190841A40
:1020CB00222B42D98F4B1B6899085A18A24256D320
:1020DB008D4928780A680D005200D20F90424DD1DD
:1020EB0089218A4A490012688B4201D991085218FA
:1020FB0080218748C905496A0068091A91423DD376
:10210B005A08A2423AD8FA225200934251D93B883C
:10211B00322B4ED901207F4FB8470121784A2B68CB
:10212B0012789B0F0B409A4228D1764A7A4B126851
:10213B009A423ED90220B8470121714A2B68127886
:10214B009B0F0B409A4219D133E00022734B0120B5
:10215B001A60704B98476C4B2A781B685B00DB0F3F
:10216B009A420BD1674B1A68530891085B18D20837
:10217B009B18A342A6D93B88172BA3D9F7BDFA22EC
:10218B00388852009042A3D9DA085218644909687A
:10219B008A429DD2634A5D490632D28F0B68002A70
:1021AB0000D09BE05A09180A1218D3180B60630968
:1021BB00E4185D4B1B78002B01D0FFF719FF534B35
:1021CB005A4F19683D788A00521A55495848096880
:1021DB005218910819606B1CDBB2AD003B702C5090
:1021EB00062B01D100233B70036845685B1985689A
:1021FB005B19C5685B1905695B19456941485B1932
:10220B0005685B191B19DF08076010094118FA20D4
:10221B008000874201D2920989189D09DB09ED18CC
:10222B008D4200D20D00434B390043489847434A37
:10223B007D1B13780133DBB20C2B52D01370404B48
:10224B00404918801378404A098813703F4A128816
:10225B00521A3249086812185010092A43DD0860D7
:10226B001A01D21A0B689B189BB2B32B01D9B43B42
:10227B009BB2374A13709622AB085200954204D298
:10228B00EA086D095519ADB25B1BF92F00D8193B44
:10229B000122002B00DC13002E49CB624A620B6833
:1022AB001A430A60FA21154A890013888B4201D21E
:1022BB00013313800022019B27483360274B1049C1
:1022CB001A80012302780D7813402549DB00002D7D
:1022DB000CD0CC500022194B1A704FE71A09D318A7
:1022EB0064E70023AAE705220A60B9E7CB1801329D
:1022FB005C600270EEE7C046400300203401002012
:10230B001C0300203801002004020140940300202C
:10231B002C030020B1860020AC0D0000B001002082
:10232B005C0300209C030020320100203C010020B4
:10233B0004000020355B00080E6C3A0055030020AA
:10234B0042000020A6010020A10100203001002046
:10235B00A2010020002000403403002036010020A1
:10236B0058010020012020218022074B10B5D86096
:10237B00D960DA60186119611A618023DB05586A2C
:10238B00024B984710BDC046001802404966000832
:10239B00254970B50B69254A254C13400B61254A1D
:1023AB00254B12781B882548934022889B189BB29B
:1023BB002380DD0A08D002785219D2B2B32A2ED864
:1023CB005B055B0D027023801D4D02781D4B1E4C6F
:1023DB002D781888A35CA418625D43434243151201
:1023EB001A4A1E121278DB0AA25C9B195043001288
:1023FB004B63AAB283B2D208DB0852191B188A634B
:10240B00CB631349134A09781378002906D0002BA4
:10241B0007D18023DB05586AFFF74AFE70BD4C32AB
:10242B00CEE7013B1370F9E7002C0140EFFF0000F2
:10243B00620300204400002042000020A201002083
:10244B003C00002096010020B40100203D0000203C
:10245B005503002023030020F7B5BD4FBD4D3B783E
:10246B00002B72D0BC4BBD4A00241C5F1378012B90
:10247B0009D8BB4E3378002B00D0AAE01370B94BB0
:10248B009847012333702B78B74E122B05D1B74ADF
:10249B0033781278134300D12B70A3B20193B44B52
:1024AB00A2B21A80FA22B34BB34D1988D200002383
:1024BB00914200D8C0E1FA21B04A49001380B04ADA
:1024CB0033701380AF4A1370AF4A1180A74A12784A
:1024DB009A4204D00120AD490870AD490B70A0237E
:1024EB00DB051B695B0700D4AFE0AA4BDB8D002B30
:1024FB0000D0AAE02B88A84901339BB22B808B42DA
:10250B0000D8A4E03B781A4301D1A44B9847002391
:10251B002B803378002B00D199E0FA239B009C424F
:10252B0000DB96E09E4B1A78002A08D10120187028
:10253B00984BD9889B4B002900D0B0E19847FA24DF
:10254B00019BA400E41AA4B293E02B78022B0DD8C4
:10255B00002B03D101332B70934B9847934B984728
:10256B00934B98473B78002B05D07BE7DA1E022A6A
:10257B0008D806232B702B78022B55D18D4B0024BA
:10258B001C5F80E79A1F022A08D8062B03D1013360
:10259B002B70894B9847894B9847E3E71A00093A08
:1025AB00022A02D80C232B70E5E71A000C3A022AF8
:1025BB0002D80F232B70DEE71A000F3A022ADAD863
:1025CB000F2B03D101332B70664B98477C4B9847ED
:1025DB00C8E77C4A1288F92A11D87B480024045F8B
:1025EB0068480078002802D0012078490870FD2B3C
:1025FB0001D801333370734B01321A8043E77348B0
:10260B00007801280BD1FA2B09D95E4B1B78002BD4
:10261B0005D05E4B043018705D4B023818706C4B54
:10262B009A4200D92FE7E6E7052B0BD0082B03D1F5
:10263B00684B00241C5F26E7112B03D1624B00244F
:10264B001C5F20E7FA24A4001DE700232B80FA244B
:10265B00A400534B1A78012A08D1002119704D4B55
:10266B00D888504B884200D017E198475A4BE41852
:10267B00A4B2444D2B78132C00D887E1002B00D04B
:10268B0018E13378002B00D114E1544B9847060026
:10269B00012800D00EE1524B9847002800D106E1EB
:1026AB000322504B2E701A708023DB055A6A4E4B57
:1026BB001A602E4B1B78002B0FD14C4A4C491380C0
:1026CB004C4A1370334A508D4B4A002800D1E8E036
:1026DB000B8013600122494B1A700122484B1A7070
:1026EB001423484A1370484A13700023474A137047
:1026FB00474A1370474B9847474B1D78002DFDD128
:10270B00464B1D80464B1D70464B9847214B5A8DAF
:10271B00002A00D1CEE09B8D002B16D1A023802266
:10272B00DB0512019A61802252019A6140223E4BD5
:10273B009A613E4B1D70174B1B8F002B00D1BEE0D7
:10274B003B4B200019883B4B98472000FEBDC046F1
:10275B00940100208803002024010020480500205C
:10276B00A301002055860008520100209A03002087
:10277B005203002032030020880100203E0100207C
:10278B005603002054030020440300205301002073
:10279B00540100209C03002028230000FD98000812
:1027AB00A001002085610008198300087D730020BB
:1027BB006D840008B80500202D880008C17F00201B
:1027CB008D8600082801002026010020A40100208E
:1027DB00FDFF0000FA05002018FCFFFF4D7A0008F2
:1027EB002D69000845000020400300203401002023
:1027FB0042000020A10100203801002035030020F9
:10280B003201002038000020460000202303002066
:10281B0055030020DD6B0008D80400203601002092
:10282B002A030020D5730008000800503E0000204A
:10283B001E030020C16400082B803578002D00D0CA
:10284B006BE6624AA3B29B18102B00D9FFE6604BD4
:10285B001B88642B00D8FAE6012333705D4BDB8AAF
:10286B00002B00D159E64B22290064205A4FB84760
:10287B002B000A2259495D1C6A430978D2B20139EF
:10288B00994203D150216420B84742E60021C82069
:10289B00B8472B00082DECD13BE61000E5E6100005
:1028AB004CE61E230B804E4B1B68136012E7042271
:1028BB004C4B1A70474B9B8D002B00D13BE7132CD5
:1028CB0000D942E78023484A9B0012889A4200D0E5
:1028DB003BE7A0238022DB0512019A628022520182
:1028EB009A624022414B9A62414B3F3A1A702CE755
:1028FB003B8063461B8F002B46D00021297014258B
:10290B003C4F39703C4F3D703C4F3D7001273C4D67
:10291B0029803C4D2F703C4D297000213B4D297077
:10292B008E4227D08B4203D0394B1980394B19601B
:10293B008021394BC9021961D9601961D960802195
:10294B00364B4901D967002335490B8035490B803C
:10295B00A021C023C9058D6A5B012B438B624023E9
:10296B00916A0B4393620123FA2203702E4BD20020
:10297B001A809FE7002BDBD01E21254B1980184BAB
:10298B001968244B1960D3E72B70C6E7002B91D045
:10299B00104B154F9C465E8D80233988134A144883
:1029AB009B009942A4D2002EA2D101313980A021E3
:1029BB00C023C9058D6A5B012B438B624023916A4F
:1029CB000B4393620123037074E7C04620FCFFFFA7
:1029DB003E0100209C030020FD6B00081E0400201C
:1029EB004C030020530100201E0300200008005060
:1029FB003E0000203201002038000020460000205D
:102A0B003401002035030020550300202303002050
:102A1B0042000020380100200018024004E100E0D1
:102A2B00560300202403002044030020F0B5D04AB5
:102A3B00D04D13882E78013389B01380002E35D1F9
:102A4B00CD4CCE4BA0799847FA23E2899B00534398
:102A5B00CB4A1360CB4B1E7001232B70CA4B98478C
:102A6B00CA4B9847E38A002B0CD014223C215020F0
:102A7B00C74DA8470F2231003C20A8471E223C21FE
:102A8B006420A847638D002B0CD00222C14B1A7017
:102A9B00C14B01329A620023C04A1380C04AD380D3
:102AAB00C04A1360C04B9847C04B9847C04BC148B6
:102ABB009847C14EC14C0023F25E93009B1ABD4A4E
:102ACB000021525E9B180022A15E9B10CA00521A75
:102ADB001BB23380D318DB1001936B4604229B5E31
:102AEB00029323800223F25ED3009B1AB14A022782
:102AFB00D75FDB19DB101BB273800221625E64218E
:102B0B001701BF1AFB181B111BB29B4F638003935A
:102B1B000422B35E388B5843A94B9847A54B05B29B
:102B2B00E800401B04255D5F64214019C01000B212
:102B3B00B0800422A35E1D01ED1A2D182D112EB2AB
:102B4B00019BA680964C039863809D4B98472080F1
:102B5B00002E00DC03E2A580A8B27D25242168436A
:102B6B00984B9847984900258C460126974B1A6835
:102B7B00801818602289511C89B2604500D9E9E19F
:102B8B00002D01D022811860914A00201168CB01E1
:102B9B005B1A02995B18DB0913608E4B1B88142B95
:102BAB0008D9804B8C481968864B9847E388C01826
:102BBB00400880B2E080FFF74FFC3B8A002B00D02F
:102BCB00D0E1FA21854B890058437D4B98470A3059
:102BDB0080B2834B1A881109814200D8CAE181491E
:102BEB008A4200D8C3E1804952181A801A88120908
:102BFB00111C824200D2011C7C4A88B21278002A36
:102C0B0000D11A800023E15E794D502900DCB4E13C
:102C1B002B78952B01D801332B70FEF771FF2B7896
:102C2B000190772B03D8734A1278002A09D0724A85
:102C3B001178002905D1772B03D9032313706F4A21
:102C4B0013703B004A331B887E89002B0AD06C48DB
:102C5B00618858435A4B9847031C80B2B04200D945
:102C6B00331C9EB23A0048325A4B12881B88002AFA
:102C7B0000D088E14A2B04D87B8D002B01D1FA269A
:102C8B00B6004C4B32000421595E0198FEF77AFFD7
:102C9B0005007B8D002B14D14E4B1B88962B10D926
:102CAB00404B484E19685748B047574B0A211B6891
:102CBB005843B047872201B2544B28005200984723
:102CCB0005007B8D002B0AD1424B1B88962B06D916
:102CDB0028000623E15E4E4A4E4B98470500434BB6
:102CEB001B78002B04D13B8F002B01D000F0ECFBA9
:102CFB00494B1B78002B01D100F0E6FB7B8D294E55
:102D0B0001937D212F4B30689847962280B2031C8C
:102D1B005200904200D9131C404A9BB211888B423F
:102D2B0008D20A232B490B8000230199E380994297
:102D3B0000D01380FA223A4B12011B88934200D326
:102D4B0078E1BB89002B00D174E1364B1B78002B4B
:102D5B0000D06FE1344B1C88019B1C43BB8D1C4383
:102D6B0000D067E13B8F002B00D163E15EE0C046F2
:102D7B0032030020560100209C03002085610008CF
:102D8B004C03002088030020FD960008256E0008E8
:102D9B00FD6B000844000020002C01404200002085
:102DAB00400100203801002099630008DD61000814
:102DBB004583002098010020A80100206801002015
:102DCB00495C0008355B00087F969800480300209B
:102DDB00580300203401002000350C00DE030000F6
:102DEB003A000020291E0000D7E1FFFF540300200A
:102DFB00510300206C0300205301002054010020DC
:102E0B0010270000701700005C030020C960000849
:102E1B000410000029610008520100203601002037
:102E2B005603002098030020E40300205F4B28008A
:102E3B0098475F4B18805F4B1C805F4B1C80FA23BD
:102E4B001B01984215D35D4A7B8D1288002A00D155
:102E5B00A9E05A1E93415A4A5B421340594A9B18A8
:102E6B0033601423584A13808023DB055A6A574B6F
:102E7B001A60574B5748998D5B8D194300D015E35A
:102E8B00514C4C4B24881A883B2C00D90AE3524CEA
:102E9B00A24200D90AE3FA22504C520064889442B1
:102EAB0005D24F4CC83A2488944200D219801A8814
:102EBB004C49013292B21A808A4200D0F6E20022CB
:102ECB0049491A800A7049490A8039490A80484998
:102EDB000A700221017047490A70374A4649138824
:102EEB008B4201D0013313800022444B1A70384BB4
:102EFB005B8D002B08D0424B1B88002B04D1802309
:102F0B00DB05586A3F4B98473F4B9847314B384C42
:102F1B001B78002B00D1DBE22378002B00D0D7E20B
:102F2B003A4B98473A4B22781B783A4C13433A4A20
:102F3B001278134300D1CFE200232370374DA847FB
:102F4B00374C2388C01A80B27C28F7D9A847208039
:102F5B0009B0F0BD334A350080180A000BE6002398
:102F6B00A38011E6304B01384000C05A31E60022F5
:102F7B001A803BE602011A8038E64C2900DD4CE64C
:102F8B0000232B7049E64A2B04D87B8D002B01D1F3
:102F9B0096267600254B32000421595E0198FEF7E8
:102FAB0071FE050075E6224B5AE7C0462162000808
:102FBB00560300202403002036010020E4030020E8
:102FCB00DCBAFFFFC05D000034010020400300208D
:102FDB009C03002053010020FFF90000400100205A
:102FEB009601002050C30000520100203E0100203A
:102FFB005403002054010020FFFF00002603002093
:10300B004200002049660008399700084D6000080F
:10301B00D80400208A010020270300208D8A000895
:10302B008C010020806967FFA0AB0008980100208D
:10303B009C180000974B984C1B88132B0CD8019BAA
:10304B00002B09D1954B98473B0048331B88002B2D
:10305B0000D100E1142323800122914B1A70914B74
:10306B001B889C46C82B03D98F4B1A788F4B1A7031
:10307B003B0048331B88A62001937E8D002B03D089
:10308B002938002E00D029302388042B07D8002E96
:10309B0005D1019B002B00D1E0E014232380BB8DD5
:1030AB000493002B14D07B4B1B88952B04D82A1C24
:1030BB00962D00D9962295B2002E09D17C4AD28842
:1030CB00272A05D8033B2E2B02D80222714B1A80DC
:1030DB00FA21704B49001A8802238C4504D2213304
:1030EB0093429B415B42023372490F68002E00D022
:1030FB00B7E0232A00D8B4E04208944500D8B0E0EA
:10310B003C006D4A5C4391680291A1422DD8116835
:10311B000391A14229D8D168A14226D85268A24274
:10312B0023D8029C5C430594A7421ED80C005C4339
:10313B000694A74219D8039C5C43A74215D8534366
:10314B0007939F4211D8FA235B009C4500D388E07C
:10315B00059B994209D8039B06998B4205D8A2423D
:10316B0003D8029B079A93427BD9544A13780133B5
:10317B00DBB21370082B02D91222464B1A80454B37
:10318B001A884F4B632A79D8002E77D101211970F9
:10319B00414B1B881C0003001D2A66D8C82C03D981
:1031AB00C8233D490B8003004549464C097800294B
:1031BB006CD0002E6AD121780131C9B2217049B28D
:1031CB00002902DA81085B189BB23949098850291A
:1031DB0005D94308642902D88308C31A9BB2A842B5
:1031EB0074D2222A00D817E16346944500D9131CE8
:1031FB0099B2814200D2031C9BB226499A4206D94E
:10320B00049A002A02D06246312A00D90B80002E84
:10321B005ED10A88AF212C4C090124688C4200D264
:10322B00F0E003214B439BB2962149008A420CD913
:10323B0011002D39FF395B18C8219BB249008A4216
:10324B0003D9913AFF3A9B189BB22A1C9D4200D995
:10325B001A1C95B23CE050232380FDE650232380BB
:10326B001DE70022154B1A7089E7C82149008C42D3
:10327B009AD90B0008490B80030095E700211970C0
:10328B0003008E4290D043009BB28DE7002121704A
:10329B009BE7C0463401002042000020D5620008A5
:1032AB009A03002096010020900300204700002085
:1032BB00400100203801002058010020300300207D
:1032CB00350300206003002058030020222A8BD8EE
:1032DB008B4B1B78002B07D0FA218A4A49011388A4
:1032EB008B4201D201331380874B1B88312B09D8BA
:1032FB00FA22844BD2001988914203D983498F4219
:10330B0000D81A80019B2C00002B21D0002E1FD13E
:10331B00FA217C4B09011B8801938B4203D2584342
:10332B007B4B984780B22C1C854200D9041CA4B25D
:10333B00AC420DD2FA21019B09018B4208D9754A87
:10334B00281B944663445843714B98470419A4B205
:10335B00714B598B00291CD0FA239B006F4D634393
:10336B002A68019293425CD9694B6D489847019B3F
:10337B00C2186C4B9A4251D82A60FA212D686A4BBD
:10338B00280089009847844203D9684B9D4200D896
:10339B0084B2614B998B00291CD0FA239B00644D9E
:1033AB0063432A680192934240D9594B5C48984732
:1033BB00019BC2185B4B9A4235D82A60FA212D68C3
:1033CB00594B280089009847844203D9574B9D429B
:1033DB0000D984B25749584A0B78002B2ED0013BA9
:1033EB000B7000231380002E39D1AF23DB009F42DB
:1033FB0026D2524B1A78002A00D13AE5504A9662EF
:10340B001E7036E59B009BB2FA2A00D81DE711000F
:10341B00FA395B189BB207E71D0059E7494B2B6044
:10342B00ABE72B60A9E7474B2B60C7E7FA225200AB
:10343B00944201D32B60C1E7434BFBE71480D2E7E7
:10344B00C823DB009F4200D813E53C4B1A78012AB6
:10345B0000D10EE501223A498A621A7009E53B4B0D
:10346B009F420AD9354B1A78022A00D101E5032174
:10347B00334A916202221A70FBE4E122344B920030
:10348B00FB189342E1D3E1235B009F4200D9F0E4A8
:10349B002A4B1A78002A00D1EBE4002228498A62D1
:1034AB001A70E6E4052A01D9053A1A800378022B33
:1034BB0000D012E5144AF3331288FF339A4200D836
:1034CB000BE50023037008E500221B4B1A800EE569
:1034DB000022204B1A7025E52378C72B01D8013326
:1034EB0023702378C82B06D11B4B9847C923237015
:1034FB001A4B984722E5C92B00D01FE5F8E7C046C9
:10350B005403002044030020340100201F4E000010
:10351B00495C000860F0FFFF9C0300209001002035
:10352B0048E801003F420F00355B00081FA1070070
:10353B0034000020450000209601002044000020AC
:10354B00002C014040420F0020A107000E06000096
:10355B00D9FDFFFF55010020D1750008C578000883
:10356B008023F7B55C4E5D4F5D4D5E4CDB013761E3
:10357B00EB6723695C4A1340002223615B4B1A7093
:10358B005B4B98475B4B5C4A57491B781278B446A8
:10359B0001919A4251D0594A5949127809780A43F4
:1035AB004BD1584A584F1088002807D10321594353
:1035BB0079188D785549ED00491BF1625449451C2A
:1035CB000E5C5149ADB28C46032160465943085CF1
:1035DB001580002806D0242D04D1654601384855A6
:1035EB000021118003255D434A487F19815D7D7859
:1035FB00861969430D12C90A4919616331003C31BF
:10360B0008787978783641430812C90A0918A163FA
:10361B003078797841430812C90A0918E163118897
:10362B00242907D10133DBB23C2B04D031490B7079
:10363B0000231380F7BD0023F8E7A023802080220E
:10364B004021DB055201000198629A62324A8026C2
:10365B0091620021F6026163A163E163EE67654647
:10366B002F612669204D2D4F2E40266180262C4D33
:10367B00F6012E602B4D1E0029802B4D94462960A0
:10368B008025B98D6D010195284D002919D13F8FEA
:10369B00002F16D0C02040279E6A400106439E6231
:1036AB00966A3E4396626163A163E1639C69204322
:1036BB009861936A3B439362297000221C4B1A70EA
:1036CB00B8E780235B01B0626246B362402393622A
:1036DB003F3B2B70F1E7C04600140040FEFF00009B
:1036EB0004E100E0002C0140EFFF00008A01002004
:1036FB00D5730008D7040020D60400205403002003
:10370B00170500202004002022040020B70B000026
:10371B00FC00002048000020000800509C03002003
:10372B0000E100E042000020380100203E000020B4
:10373B00D804002041404BB2002B25DB4900C8B216
:10374B0043B2002B27DB4000C0B243B2002B29DB76
:10375B004000C0B243B2002B2BDB4000C0B243B2DF
:10376B00002B2DDB4000C0B243B2002B2FDB4000FF
:10377B00C0B243B2002B31DB4000C0B243B2002BCE
:10378B0033DB4000C0B27047072049004840C0B24D
:10379B0043B2002BD7DA072140004840C0B243B2F6
:1037AB00002BD5DA072340005840C0B243B2002BA0
:1037BB00D3DA072340005840C0B243B2002BD1DA12
:1037CB00072340005840C0B243B2002BCFDA072387
:1037DB0040005840C0B243B2002BCDDA0723400063
:1037EB005840C0B243B2002BCBDA072340005840FD
:1037FB00C0B2C8E7F0B5B64B8BB005000291984745
:10380B00B44A1368C31A642B18D8B349B34E0C7857
:10381B0033781060002C0BD0013CE4B2013B0C70F0
:10382B003370002C00D11FE1002420000BB0F0BD41
:10383B00002B00D16DE2013B3370F6E700241060E2
:10384B00A74BA84AA84FA54EA3491C703C703470D7
:10385B000C701470140001923B78A4485A1C247805
:10386B00D2B203903A70C554002C47D1022A0BD028
:10387B00012A00D909E100D00AE107200540012DFA
:10388B00D3D000233B70D0E7EB43DB0600D011E134
:10389B000378D809012800D1C0E10120019C5B000D
:1038AB00DBB2207058B2002800DAB2E15B00DBB269
:1038BB0058B2002800DAA7E15B00DBB258B200284F
:1038CB0000DA9CE15B00DBB258B2002800DA91E130
:1038DB005B00DBB258B2002800DA86E15B00DBB29A
:1038EB0058B2002800DA7BE15B00DBB258B200284B
:1038FB0000DA70E15B00DBB2794803707C4B1C781B
:10390B00A2423CD27649087845406BB2002B00DAD4
:10391B005CE16D00EBB258B2002800DA51E15B00BC
:10392B00DBB258B2002800DA3CE15B00DBB258B2E4
:10393B00002800DA31E15B00DBB258B2002800DA74
:10394B0026E15B00DBB258B2002800DA1BE15B001A
:10395B00DBB258B2002800DA2EE15B00DBB258B2C2
:10396B00002800DA23E15B00DBB20B70A24200D827
:10397B005AE70023019A002413703B7055E7A242CB
:10398B00F4D10398564B8218013A12781B789A425D
:10399B0071D101230200007803426CD01C005278D5
:1039AB001440134267D0C309012B00D14EE1514B98
:1039BB001B78012B00D164E14F4B50491B780978E0
:1039CB005B1ADBB29900591849005B180433DBB260
:1039DB00DD08E900CB1ADBB2591D49B2CE43B44620
:1039EB000126520901381043039A08335070DBB299
:1039FB00501962469E40D217B446160085780E4089
:103A0B00354104956546991B6E1E4578CAB20395E0
:103A1B000B2502920832D2B22900AD1AAC46039D97
:103A2B00CB1A2E40654604999E40A9400E4333B2F3
:103A3B000A2A05D8029AC178053252B211410B43BA
:103A4B00002294462E492F4A0E88002001360E8004
:103A5B001688019D0136168062462B4928703870F6
:103A6B002A480B800280E0E6294B029A5978187895
:103A7B00284B9847D9E60021274B019A0024117057
:103A8B001A88397001321A80CFE643781E2B47D043
:103A9B00032A08D0042A12D1002D00D1C5E6442DEB
:103AAB0000D0EEE6C1E6002D00D1BEE6492D00D0D8
:103ABB00E7E6BAE643781E2B00D1B5E6B5E6052A54
:103ACB0000D02BE1039B1A79144B1A70ADE6C0465C
:103ADB0049920008540500202A05002051050020BA
:103AEB002905002058050020470500202F05002040
:103AFB00210100204C0500201E0400202201002083
:103B0B004A0500203E010020240100203203002042
:103B1B002C0500205D8700204E050020500500205D
:103B2B000A2A2CD1039B9B78492B00D0A9E6039B37
:103B3B00DB78442B00D0A4E6039B1B795F2B00D0D2
:103B4B009FE6039B5B79522B00D09AE6039B9B79F4
:103B5B00652B00D095E6039BDB79732B00D090E6A9
:103B6B00039B1B7A652B00D08BE6039B5B7A742B34
:103B7B0000D086E6AC4B9847AC4B98473A78092A6D
:103B8B0000D97EE650E607205B004340DBB2E0E65F
:103B9B0007205B004340DBB2D5E607205B004340C8
:103BAB00DBB2CAE607205B004340DBB2BFE607206F
:103BBB005B004340DBB2D8E607205B004340DBB23F
:103BCB00CDE607255B006B40DBB2AAE607236D0051
:103BDB006B40DBB29FE607205B004340DBB28BE61A
:103BEB0007205B004340DBB280E607205B004340CD
:103BFB00DBB275E607205B004340DBB26AE60720C9
:103C0B005B004340DBB25FE607205B004340DBB267
:103C1B0054E607205B004340DBB249E6844800785A
:103C2B0000280BD15C068348640F6400205A84463D
:103C3B0064468148240A04706446447007240120BA
:103C4B005B006340019CDBB220702BE6784B1B784A
:103C5B00002B00D0ADE6794B794D05931B7804937F
:103C6B002B789C46049B634544D01D006346EB1A9E
:103C7B00DBB25D000D707349097801394900317071
:103C8B00A0E66E4D01092B78994206D011256C499F
:103C9B00357009785B1ADBB294E66B4A654B128878
:103CAB00598804929E8807A8B4460E0A8670DE884F
:103CBB00417019881B8901706146C170090A017135
:103CCB004671310A1E0AB446C37163468171037291
:103CDB000499049B029A43720E0A5C4B0B21867269
:103CEB009847574A2B78127803999B1A08784A7889
:103CFB00DBB267E6504B029A59781878544B9847C9
:103D0B00059B2A781B7803999B1A08784A78DBB2B3
:103D1B00B1E7504B504F1C0001939DE54F4B049363
:103D2B001B7801939A4200D27FE5052A00D87CE5E7
:103D3B00002B00D1A5E5013B9BB29C460025002141
:103D4B000720002B2AD159E05D00EBB26DB2002D9C
:103D5B003CDB5D00EBB26DB25B00002D32DBDDB204
:103D6B005EB2002E3CDB6D00EEB26DB2002D32DB8D
:103D7B007600F5B276B2002E1FDB6D00EBB26DB2A2
:103D8B005B00002D15DBDDB25EB26D00002E00DA9C
:103D9B00454001318BB2EDB29C4526D9039B5B5C50
:103DAB006B405DB2002DCFDA5B0043405DB2DBB2FE
:103DBB00CDE743405EB2DDB2E7E76B0043405DB257
:103DCB00DBB2DDE743405EB2DDB2CAE75B004340E6
:103DDB005DB2DBB2C0E7730043405EB2DDB2CAE74F
:103DEB006B0043405DB2DEB2C0E7039B01995B18E9
:103DFB00013B1B78AB4201D18A4204D00023049AC9
:103E0B003B70137011E50D4B03991B784978994260
:103E1B0005D00023049A01243B70137005E51000B4
:103E2B0002990F4B9847F4E7D96A0008FD980008F0
:103E3B004C050020400100202C0500201E04002012
:103E4B0022010020230100204E050020D57A000816
:103E5B005D870020580500204705002050050020F5
:103E6B00157C0008034B40001B5A034A5BBA1380B6
:103E7B007047C046400100202C050020F0B5D04B08
:103E8B0095B00B931B78002B00D1C5E1CD4BCE4ADF
:103E9B005B680592DB431278DBB201920093012A37
:103EAB0001D100F0B3FBC94B009A19780293561A53
:103EBB00F6B21F2E01D800F01BFDC54B1B78012B52
:103ECB0001D000F020FDCB43D318DBB2DE2B00D8A2
:103EDB00A4E114000A000B001032D2B220331202FC
:103EEB00DBB21B040A431A430B0030331B061A4385
:103EFB00B84B260213409C46B74BB84D5340039327
:103F0B00B54B2704634404932643039B601A3E433B
:103F1B002706049C2B406340B14C3E436240340067
:103F2B0004942C430394AE4C3700A4442C005F4004
:103F3B00BC43A84E2700039C1E40A61B644620389A
:103F4B00C0B2000901302A400690800884466240C6
:103F5B007E4001282AD09F489F4F1040C619A04F82
:103F6B009D4B3C0000192C0053402B407A40049F82
:103F7B0073405F40BC432A40270042406046954E49
:103F8B00039C1E40A61B7E4002280FD09148924BEB
:103F9B00049E5340024090482B40121853405E4001
:103FAB00B5432E008B4A1A40A21A5640069C032298
:103FBB0020009043020000010818360E1B0EC0B201
:103FCB00A24213D00300009A1033DBB2D61AF6B21A
:103FDB001F2E0BD903002033DBB2D61AF6B21F2EDD
:103FEB0004D903003033DBB2D61AF6B2029A13703F
:103FFB000F2E00D8C0E07B4A7B4C03927B4A049285
:10400B007B4A0692039A1578F02D01D800F09CFBA1
:10401B005A1ED2B252005800255A0499A25A096866
:10402B00AD1AADB28C461A0089008D4200D399E0CF
:10403B005E1CF6B27500625B205A121A92B2914264
:10404B0000D8D1E29A1CD2B25600A05B655B401B34
:10405B0080B2814200D891E2DD1CEDB26800225A99
:10406B00A65B921B92B2914200D889E21A1DD2B282
:10407B005600A55B205A2D1AADB2A94200D87DE29D
:10408B005D1DEDB26800225AA65B921B92B2914263
:10409B0000D875E29A1DD2B25500665B205A361ACB
:1040AB00B6B2B14200D869E2DE1DF6B27200A05A78
:1040BB00655B401B80B2814200D895E21D0008353C
:1040CB00EDB26E00A05BA75A2A00C01B80B28142E2
:1040DB0000D813E31D000935EDB26800225AA65B28
:1040EB00921B92B2914200D84AE21A000A32D2B223
:1040FB005600A55B205A2D1AADB2A94200D83DE25D
:10410B001D000B35EDB26800225AA65B921B92B2D2
:10411B00914200D834E21A000C32D2B25600A55BA1
:10412B00205A2D1AADB2A94200D827E21D000D3539
:10413B00EDB26800225AA65B921B92B2914200D854
:10414B001EE21E000E36F6B27500625B205A121A82
:10415B0092B2914200D847E20F33DBB25A00A25A17
:10416B001A00615B0099C91AC9B20E295FD8029A6D
:10417B001370059B1B7801931E4B1B89002B00D0E2
:10418B0063E31D4A1D4B0021525E1D495001801AED
:10419B0080008018C0009847FA239B00C3189BB27D
:1041AB00184A1380019B012B36D1174B1B88192BF7
:1041BB0001D900F052FC0E4B1B88192B2CD925E092
:1041CB00750500201C00024088030020BC05002060
:1041DB00540300207F7F7F7F101010108080808021
:1041EB00404040407C050020D4080020780500208A
:1041FB00C40500209C030020C2050020495C000878
:10420B00FF070000B8050020C00500200022032393
:10421B000B990A70059A137015B0F0BD009B103105
:10422B00C9B25E1AF6B21F2EF8D80B00DEE606995D
:10423B0009880791072938D905990978022934D1BA
:10424B0030259E31C90508680191A84308600020FC
:10425B00CD4DCE492E680790013086432E600F68F6
:10426B00CB4E87437F3040000F6001000120376841
:10427B00874337600F00C5494F606F602F68074356
:10428B002F6007000D6805430D60302530680199DC
:10429B00384330600868A843103D28430860FF206E
:1042AB00029908700020069908806046B94D5200AB
:1042BB00A95AA65A4000891B89B2814200D989E3C9
:1042CB0019000F31C9B2019149006E5AB2480A91D7
:1042DB00A15A0068711A89B2814200D9B3E3A95A75
:1042EB00A25A8A1A92B2624500D9E9E2AB490E880A
:1042FB00B24200D85EE18022A027C021E02012024A
:10430B000C92A74A3F020E92A64A0F970992A64A11
:10431B000902A64F000208910D925A1CD2B252000C
:10432B00A95AA25A8A1A92B2624500D9CCE2964295
:10433B0005D30D9A0F9809920C9A0E9F08929A1C0E
:10434B00D2B25200A95AA25A8A1A92B2624500D925
:10435B00BEE2964201D3099F0898DA1CD2B25200F2
:10436B00A95AA25A8A1A92B2624500D9B8E2964269
:10437B0004D2802252013A4317B290B21A1DD2B224
:10438B005200A95AA25A8A1A92B2624500D9A3E2E4
:10439B00964204D2802212013A4317B290B25A1DB0
:1043AB00D2B25200A95AA25A8A1A92B2624500D9C5
:1043BB009AE2964204D28022D2003A4317B290B2CC
:1043CB009A1DD2B25200A95AA25A8A1A92B26245C7
:1043DB0000D994E2964204D2802292003A4317B25B
:1043EB0090B2DA1DD2B25200A95AA25A8A1A92B2CC
:1043FB00624500D97FE2964204D2802252003A43B2
:10440B0017B290B21A000832D2B25200A95AA25A6D
:10441B008A1A92B2624500D97CE2964203D280227C
:10442B003A4317B290B21A000932D2B25200A95ACB
:10443B00A25A8A1A92B2624500D967E2964203D217
:10444B0040223A4317B290B21A000A32D2B252004B
:10445B00A95AA25A8A1A92B2624500D962E29642CE
:10446B0003D220223A4317B290B219000B31C9B2D2
:10447B0049006A5A615A521A92B2624500D94DE20A
:10448B00964200D2B3E01A000C32D2B25200A95AB3
:10449B00A25A8A1A92B2624500D98EE2964200D293
:1044AB00AAE01A000D32D2B25200A95AA25A8A1AA5
:1044BB0092B2624500D98CE0964200D2A1E01A007C
:1044CB000E32D2B25200A95AA25A8A1A92B262453D
:1044DB0000D981E0964200D2B0E00A996A5A615A3B
:1044EB00521A92B2624500D970E2964200D2AAE00B
:1044FB000223082604259C46C20AC30B5A40C30953
:10450B005A40870B830A5F4083097B404709BFB240
:10451B000897D2009B003240070B2B40060A089DE0
:10452B007E40470B6F40012513432E4002092A4062
:10453B00350055401D43430A5F4063460F217F0002
:10454B001F40019E029B3D431E700F270140A94255
:10455B0000D19BE0164B1B78002B78D0079B069A5B
:10456B0001331380019B1900009A521AD2B20F2A01
:10457B0000D947E5059B1B780193FDE51300F1E599
:10458B002B002A00EEE5C0461C000240080002404A
:10459B0000400140D4060020800500207205002059
:1045AB0000A0FFFF00C0FFFF0080FFFF00E0FFFF48
:1045BB00540300208022C020D2018021089209924E
:1045CB0000228901C00107000F910E910D920C92F0
:1045DB00A3E60E33DBB20193079B069A01331380DC
:1045EB00029B019A1A7017E633003200BAE51022CB
:1045FB003A4317B290B246E708223A4317B290B249
:10460B004FE704223A4317B290B258E7C7481A0053
:10461B000378C749934200D108E10A88FA23009C2A
:10462B005B0004709A4201D0FFF73DFC0022C14BA6
:10463B000A801A8801321A80FFF735FC02223A43AE
:10464B0017B290B249E701233B4398B250E77D4044
:10465B00EDB2A94200D081E7B74D2B78002B00D0EB
:10466B008EE10122B54B2A70089A1A700025B44BC3
:10467B00B44A1988108801311980B34B013010806E
:10468B001D80B24A019B158019006DE7B0490B885C
:10469B00002B35D0089B9B180B80002A38D0089D27
:1046AB006B1E2E2B00D8C6E0AA4B1B78002B2FD1EC
:1046BB00A94B11AD5E889888320A19896A70DA881D
:1046CB001B88AE702B70060A0B0A2871EE70A9714D
:1046DB00160A09216B712800A04B2A72EE719847BC
:1046EB00030000226B7228009D4B0A2198476B46F2
:1046FB002027DF5F029B1B7801930CE02B0031E539
:10470B008020089B00019B188342C5D1002702E043
:10471B006B462027DF5F00258A4A894B1088198852
:10472B0001301080884A01311580059A1980127862
:10473B00864B1F80022A01D1069B1D8000217E4AD9
:10474B00019B117019000FE7002D01D1854A1560EF
:10475B00009FF81EC0B27E1F4000205AF6B27600B2
:10476B000090B4466846B91FC9B249000491F91FBD
:10477B0001913E003A1F0A3F069707796046D2B275
:10478B005200A25A205A013901900498C9B2205AFA
:10479B00490084466846007E0491410006916146BB
:1047AB0000987F00821A0198E75B401A0499093E32
:1047BB00615AF6B2019106997600A65B645A694676
:1047CB00A44600900888898894B20191614689B209
:1047DB008C46BFB2B6B2844270D8019994B2791AA2
:1047EB0088B2844268D86146761A90B2B1B28842D8
:1047FB0060D892B211005C481B3989B2814236D91C
:10480B00B421C9008A4200D918E14A490A88013209
:10481B0092B20A80182A05D9002103220B98017045
:10482B0005990A70029A10331370F5E40A88013265
:10483B0092B20A80F2E64D4A4D4B505D1978013029
:10484B00013100275055197065E7404B00229B5EE4
:10485B002F2B00DCEEE080222F3B9BB2D200934249
:10486B0000D39DE4FA229200D31A9BB298E4DC2D7C
:10487B0000D8A7E03B4E30681018F02D00D0A0E018
:10488B0014213C4FB8476423441E63433460180023
:10489B00B221B8470022230137491C1B64000C606E
:1048AB00364E244B029930800A701A80039B0135D7
:1048BB001D70B1E4321C9CE70A1C94E702008CE7E4
:1048CB000133DBB2019387E60233DBB2019383E65C
:1048DB000333DBB201937FE60533DBB201937BE657
:1048EB000433DBB2019377E60633DBB2019373E655
:1048FB000B00FFF77DFB0833DBB201936CE607334C
:10490B00DBB2019368E60B00FFF775FB0A33DBB2F2
:10491B00019361E60933DBB201935DE60C33DBB245
:10492B00019359E60B33DBB2019355E6C605002024
:10493B00BE050020C405002085050020C805002009
:10494B00C00500203E01002032030020C2050020DC
:10495B00BA0500209401002040010020B57A000820
:10496B002D93000878050020B50200008705002074
:10497B0084050020355B00088005002072050020AF
:10498B00012B79D0022B00D070E66A4620264349D2
:10499B0092194348CB8B12788270192B72D0098CE9
:1049AB00090A0B4306D141783E4B00789847029B8E
:1049BB001B78019300232B7058E60D33DBB2019368
:1049CB000AE63060029A103313706FE71033DBB2D4
:1049DB00019301E62020A023302701228026844664
:1049EB00DB0519683048B943196004682F499443B3
:1049FB0004600D682E4C95430D6025687600954339
:104A0B0025604E6046600568079E15430560086883
:104A1B0001361043086021680A43614622601A6818
:104A2B00BA430A431A60FF22069B1E80029B1A7030
:104A3B00FFF7F2FBFA239B00FFF7B2FB1D490A8835
:104A4B00043292B2E3E60299079A0B780698013288
:104A5B00083302800B70FFF7DFFB164A12889A426D
:104A6B0001D3FFF7D3FB144B1B78002B0FD0022382
:104A7B00059A1370FFF7D0FB6246094B2A70089A10
:104A8B005A70F3E50B8C1B0A652B93D18BE7E12056
:104A9B0001210A4B40029847E9E7C0469C030020DE
:104AAB00C8050020857500081C0002400800024064
:104ABB0000400140C40500209401002079920008B9
:104ACB00F0B5BB4987B00B78002B40D0B94BBA4C33
:104ADB005A682578D243D2B2072D3AD0B74B90B251
:104AEB0084461888904232D0B54EB64F5200D75BF1
:104AFB00925B66460020BA1A1E80B34FB34E92B239
:104B0B003080BA4200D977E0B14E3378312B3DD8A3
:104B1B00B048120901331018AF4FDBB280B23370BB
:104B2B00B84200D9CFE0AD48027801320270322B87
:104B3B0000D1FBE0072D0AD1A94B1B88192B06D9F5
:104B4B00A84B1B78002B00D128E10823237007B05A
:104B5B00F0BD9E48A44E0388377801339BB2038087
:104B6B00974200D19BE000208446327066469F48F6
:104B7B009F4F00783E80192803D8FA20000183420A
:104B8B00ACD9002209230A702370E0E7994B9249B4
:104B9B001D8801936A438F4B121196B2F3189BB287
:104BAB008B426ED8944B1B78002B4ED1934F120433
:104BBB00798A120C501A43011B1ABA8A9B001818D7
:104BCB00511A8F4BC0009847FA23FA229B00C31847
:104BDB009200934200DA1300FA22D200934200DDD6
:104BEB0013003A89002A00D0C5E0312800DCD2E05E
:104BFB009BB2844A13802CE0A02230250121802710
:104C0B00D20514687F00AC436A4D14602E687E4C4D
:104C1B008E432E6020687D4E884320603068884329
:104C2B00306067606F602F6820200F432F6025680E
:104C3B000D43256030253468214331601168A94349
:104C4B000143116000221A8081E7FA226D4BD200DA
:104C5B001A8000239C466E4A614B17886D480137BA
:104C6B0017801A886C4901321A80624600780978DD
:104C7B006A4B08431A8004D1694B30009847019B5B
:104C8B001D8829003000674B98471D3880B20428D7
:104C9B0003D8544B1B78002B27D025784AE7FA20F2
:104CAB00844632706646524FB6003888013080B267
:104CBB003880B04278D100204C4E388030780130AB
:104CCB00C0B2307057E710006538C62808D9243AAF
:104CDB003E2A00D92BE7414882780132827026E7C1
:104CEB003E4842780132427021E74F4B03AD5E885C
:104CFB009888320A19896A70DA881B88AE702B7013
:104D0B00060A0B0A2871EE70A971160A6B7128003E
:104D1B000921464B2A72EE719847030000226B72F1
:104D2B0028000A21424B9847257803E72B48037844
:104D3B0042788078934207D9834205D9282B03D92F
:104D4B0001222C4B1A80F5E6934207D2824205D9F9
:104D5B00282A03D90822274B1A80EBE6834200D37B
:104D6B000FE7824200D30CE7282800D809E7182266
:104D7B00204B1A80DEE62F495B185B009BB2012AA1
:104D8B0000D036E72C4A9A18492A04D92B4A9A188C
:104D9B00492A00D92DE7FA239B002AE7E1200121BC
:104DAB00274B40029847D0E610480078E3E6C04610
:104DBB00F90500201C000240880300202C0600206F
:104DCB00D4080020D4060020409C00000C060020D4
:104DDB0003060020DFFCFFFFDA05000000060020C1
:104DEB00FE050020940100200E0600202E06002058
:104DFB00FC050020040600202B0600209C0300204D
:104E0B00495C0008FA050020080002400040014000
:104E1B003E0100209A0300205201002032030020A3
:104E2B0025890008355B000840010020B57A000891
:104E3B002D93000818FCFFFF17FCFFFF62FCFFFF20
:104E4B00799200080023F0B51D0085B0AA490190A6
:104E5B005A00525A0133AD18302BF9D1A74BA84940
:104E6B001B885D4300932800A64B9847A64B040074
:104E7B009D4211D9A54BA64AC3185B089BB293421E
:104E8B000AD9A0238022DB0512019A6280225201EB
:104E9B009A6240229F4B9A62FA239F4A9B00118889
:104EAB0099421FD29D489E4D00782D78284319D1E9
:104EBB009C4F9D4D38680131201889B22E7838608F
:104ECB00118099420ED18F4B9847984B1880002E2A
:104EDB0003D1974B1E8101232B7000238E4A138025
:104EEB00904A1360904B1B78002B0FD08F4B914A3D
:104EFB0018881168241A4B0124B25B1A211C002C50
:104F0B0000DA002109B25B185B0913608A4B1D782C
:104F1B00AB0775D11023894C894FA1680422394006
:104F2B000B43A36080235B03A168114202D0013BBA
:104F3B00002BF9D1834E844A33680121134003229D
:104F4B003360E3689343E360E368804A1340E360B4
:104F5B0023698B4323610392042D00D175E0082D47
:104F6B0000D194E0002D22D1802263699203134378
:104F7B000F226361A36A93431A000D231343042288
:104F8B00A362A3683B401343A36080235B03A16828
:104F9B00114202D0013B002BF9D16D4B216C1B88C8
:104FAB006C4889B25843574B9847544B1880012390
:104FBB00226969499A431A4322612269114070227E
:104FCB000A4303212261E2680A43E260E168039A23
:104FDB001140802292010A438021E26062698900BC
:104FEB000A436261A26AF239FF398A431A43A26209
:104FFB003268134333600423A2683A401343A3601F
:10500B000135EDB20B2D00D172E04B4B1D70534BA4
:10501B001A88D0235343019ADB111380504B002184
:10502B005A5E002A01DA00221A8064221B88019939
:10503B0053434B8083213F4B49001868314B5043FE
:10504B009847019B988005B0F0BD8022636952019F
:10505B0013430F226361A36A93432B43A362A36899
:10506B002A003B402B43A36080235B03A1681142C2
:10507B0002D0013B002BF9D1206C009B80B2434343
:10508B001F4918001F4B9847344B18808FE76369F3
:10509B00344A13400F226361A36A93431A000C2313
:1050AB0013430422A362A3683B401343A3608023F2
:1050BB005B03A168114202D0013B002BF9D12A4BB3
:1050CB00206C1B8880B20293009B2249434318003B
:1050DB000C4B9847029BC31A64205843234B1988E7
:1050EB00029BC91A224B98471D4B1E3018805EE756
:1050FB000023114A13708AE730060020620C00204F
:10510B00FF0F0000355B0008626C3906649CFFFFE3
:10511B007017000000080050280C002054030020DA
:10512B00D8040020AC060020C0060020A8060020F2
:10513B0040010020BC060020220C0020002401406E
:10514B00E8FFFF7F30000240FEFF0000FFDFFFFFA4
:10515B00AA75FF1FB80B000003FEFFFF600C0020B9
:10516B005E0C0020FFFFEFFFA875FF1FCA75FF1F26
:10517B00495C00080120054A054910B51161116809
:10518B00044B81431160984710BDC046002000407E
:10519B00FEFF0000B153002010B5014B984710BD26
:1051AB006558002010B5014B984710BD655800207D
:1051BB00044B19005A6A92B24B6A9B1A9BB28342F8
:1051CB00FAD3704700480140044B19005A6A92B257
:1051DB004B6A9B1A9BB28342FAD37047004401403F
:1051EB00082202200421174B10B5186219621A62AB
:1051FB00DA69920608D514490A88002A1BD00A8856
:10520B00013A92B20A805B6A80220E4BD9690A423C
:10521B000CD00E480E49047809788C4207D20478DA
:10522B000C49621C095DD2B20270996210BD1968FB
:10523B0091431960FAE7586A0021074BC0B29847AF
:10524B00E2E7C046004400405C0C0020840E0020C6
:10525B00820E0020800C0020F56C002010B502247B
:10526B00024A034B1C809062916210BD00440040C7
:10527B005C0C00200000000001B40248844601BC15
:08528B00604700BF0D5B000845
:105B0C0002B4714649084900095C49008E4402BC44
:105B1C007047C04603B47146490840004900095A11
:105B2C0049008E4403BC7047002243088B4274D357
:105B3C0003098B425FD3030A8B4244D3030B8B4282
:105B4C0028D3030C8B420DD3FF22090212BA030C8B
:105B5C008B4202D31212090265D0030B8B4219D36C
:105B6C0000E0090AC30B8B4201D3CB03C01A52418C
:105B7C00830B8B4201D38B03C01A5241430B8B42D4
:105B8C0001D34B03C01A5241030B8B4201D30B03BD
:105B9C00C01A5241C30A8B4201D3CB02C01A5241E4
:105BAC00830A8B4201D38B02C01A5241430A8B42A7
:105BBC0001D34B02C01A5241030A8B4201D30B0290
:105BCC00C01A5241CDD2C3098B4201D3CB01C01AAA
:105BDC00524183098B4201D38B01C01A52414309B4
:105BEC008B4201D34B01C01A524103098B4201D3A2
:105BFC000B01C01A5241C3088B4201D3CB00C01A0F
:105C0C00524183088B4201D38B00C01A5241430886
:105C1C008B4201D34B00C01A5241411A00D20146AB
:105C2C00524110467047FFE701B5002000F0F0F834
:105C3C0002BDC0460029F7D076E7704703460B43F8
:105C4C007FD4002243088B4274D303098B425FD369
:105C5C00030A8B4244D3030B8B4228D3030C8B4295
:105C6C000DD3FF22090212BA030C8B4202D312127B
:105C7C00090265D0030B8B4219D300E0090AC30B50
:105C8C008B4201D3CB03C01A5241830B8B4201D3FD
:105C9C008B03C01A5241430B8B4201D34B03C01AE6
:105CAC005241030B8B4201D30B03C01A5241C30A5E
:105CBC008B4201D3CB02C01A5241830A8B4201D3CF
:105CCC008B02C01A5241430A8B4201D34B02C01AB9
:105CDC005241030A8B4201D30B02C01A5241CDD25E
:105CEC00C3098B4201D3CB01C01A524183098B42A9
:105CFC0001D38B01C01A524143098B4201D34B0192
:105D0C00C01A524103098B4201D30B01C01A5241F4
:105D1C00C3088B4201D3CB00C01A524183088B427B
:105D2C0001D38B00C01A524143088B4201D34B0064
:105D3C00C01A5241411A00D20146524110467047D6
:105D4C005DE0CA0F00D04942031000D340425340DB
:105D5C0000229C4603098B422DD3030A8B4212D39B
:105D6C00FC22890112BA030A8B420CD389019211CD
:105D7C008B4208D3890192118B4204D389013AD00A
:105D8C00921100E08909C3098B4201D3CB01C01ADF
:105D9C00524183098B4201D38B01C01A52414309F2
:105DAC008B4201D34B01C01A524103098B4201D3E0
:105DBC000B01C01A5241C3088B4201D3CB00C01A4D
:105DCC00524183088B4201D38B00C01A5241D9D265
:105DDC0043088B4201D34B00C01A5241411A00D2E6
:105DEC000146634652415B10104601D34042002BE2
:105DFC0000D54942704763465B1000D3404201B561
:105E0C00002000F005F802BD0029F8D016E7704715
:105E1C007047C046002B11D1002A0FD1002900D1A8
:105E2C00002802D00021C943081C07B4024802A173
:105E3C004018029003BDC046D9FFFFFF03B468466B
:105E4C0001B5029800F006F8019B9E4602B00CBC0E
:105E5C007047C046F0B557464E464546DE46E0B55F
:105E6C0004000D009246994683B08B4230D82DD059
:105E7C004946504600F0BAF829000600200000F010
:105E8C00B5F8331A9846203B9B4633D45A465346B2
:105E9C00934042461F00534693401E00AF423AD8EF
:105EAC00AF4200D178E05B46A41BBD41002B00DA69
:105EBC0075E0002200230092019301235A4693407F
:105ECC000193012342469340009328E08242CFD9AC
:105EDC0000220023009201930C9B002B01D01C602C
:105EEC005D600098019903B03CBC90469946A2466F
:105EFC00AB46F0BD424620239B1A5246DA4041463F
:105F0C0013004A468A40170042461F4353469340AB
:105F1C001E00AF42C4D900220023009201934346D5
:105F2C00002BD9D0FB0772081A4346467B080EE0BB
:105F3C00AB4201D1A2420CD8A41A9D4101202419D4
:105F4C006D410021013E24184D41002E06D0AB427C
:105F5C00EED9013E24196D41002EF8D1009801991B
:105F6C005B4600196941002B24DB2B005A46444642
:105F7C00D3402A00E2401C005B461500002B2ADBB4
:105F8C0026009E40330026004746BE403200801A51
:105F9C009941009001919FE7A342BCD883E7424608
:105FAC00202300219B1A0022009101920122DA4049
:105FBC00019286E7424620239B1A2A0046469A40C5
:105FCC002300F340444613432A00E2401C005B4686
:105FDC001500002BD4DA42462F00202326009740D0
:105FEC009B1ADE403B003343CDE7C04610B5002979
:105FFC0003D100F007F8203002E0081C00F002F892
:10600C0010BDC0461C2101231B04984201D3000C77
:10601C0010391B0A984201D3000A08391B0998420F
:10602C0001D30009043902A2105C40187047C04625
:10603C000403020201010101000000000000000045
:10604C00FA21184A10B51388C9008B4202D20133C9
:10605C00138010BD0023144C1380144B22781B7832
:10606C009A420CD2124B1B78002B03D0114A127897
:10607C009A4204D21422282011000F4B98472378FF
:10608C000133DBB20A2B01D02370E2E70023094A6B
:10609C0007492370097813789942DAD901331370C0
:1060AC00D7E7C04620030020220300205301002024
:1060BC005401002055010020FD6B0008144B8A1A76
:1060CC00144930B51D680C685219A24200DA22003E
:1060DC00FA242402A24215DC1A601A68FA239211DF
:1060EC009B009B1A1BB21A1C002B00DA002213B265
:1060FC00834200DA90B2084B1B1A9A01002B03DB87
:10610C000A6030BD1C60E8E700230B60F9E7C0466D
:10611C00800100208003002039030000144B8A1AF0
:10612C00144930B51D680C685219A24200DA2200DD
:10613C00FA242402A24216DC1A601A68FA2392117D
:10614C009B009B1A1BB21A1C002B00DA002213B204
:10615C00834200DA90B2C8239B001B1A9A01002BD1
:10616C0003DB0A6030BD1C60E7E700230B60F9E736
:10617C00840100208403002000220F4B1A800F4B57
:10618C001B785BB25A1C04D0834202D001220C4B08
:10619C001A700C490C4A0D4B002805D108703C2193
:1061AC00117078221A7070470120087078211170D4
:1061BC003C221A70F7E7C04634010020470000204B
:1061CC0098030020900300203C0000203D0000209C
:1061DC0010B50C4B0C4A0633DB8F002B08D1B421C5
:1061EC000A4C4900E05CD05401338B42FAD110BD0B
:1061FC00B4210023064C4900E05CD05401338B429F
:10620C00FAD1F4E79C030020B4010020D0A80008C8
:10621C0038AA00081A4B70B51C881A4B002C23D1D5
:10622C001880A0238022DB0512019A618022520182
:10623C009A614022144B3C219A61144D2000A847CE
:10624C00134B0F211880134B1878A847124B134986
:10625C0018700B78124A002B0FD0013B0B700023E7
:10626C0013800134A0B270BD1B88C31A502B01DC03
:10627C00AF28D6D9FA200001F5E728231380F0E7E0
:10628C00560300203E03002000080050355B000838
:10629C0042000020A2010020A101002045000020A6
:1062AC00960100200023044A1370044A1370044A18
:1062BC001370044A137070479A030020980300204F
:1062CC00530100205401002010B5284B0F211878E1
:1062DC00274B9847274B284C1A78C0B22070824223
:1062EC001AD01870254B1B78002B01D0244B9847E3
:1062FC00207801380A280FD8FFF702FC060E0F0E83
:10630C00190E1F0E280E32001E4B01221878002188
:10631C0001301D4BC0B2984710BD0220194B03220F
:10632C001B780121C01AC0B2174B9847F4E7002123
:10633C0005220800144B9847EEE7124B07221878F9
:10634C0001210130104BC0B29847E5E702200D4BFC
:10635C0009221B780021C01AC0B20B4B9847DBE70F
:10636C000B2201210020084B9847D5E7A201002001
:10637C00355B00083C030020A10100203201002005
:10638C00F154002090030020955200200E4B202247
:10639C00598D0E4B00290BD080210D4802600160F5
:1063AC000120D860DA60D96018611A6119617047F0
:1063BC0080210120D860DA60D96018611A611961F6
:1063CC00044BDA67D967F2E79C03002000180240FF
:1063DC0000E100E004E100E00121124B0200023375
:1063EC00DB8FD80808408A420BD0022A12D0002A30
:1063FC0006D1A022D20512699B085340994348400C
:10640C007047A021C90509695B0849094B409A43AB
:10641C005040F5E7044A1269D20953409943484069
:10642C00EEE7C0469C0300200004005070B51D4BE5
:10643C001D4D1B78D8B2002B1AD1A847041E00D0D2
:10644C0004240120A847002802D002200443E4B20F
:10645C000220A847002802D001200443E4B2013CEA
:10646C00E4B2052C01D9002070BD104B185DFBE780
:10647C000120A847041E00D004240220A8470028AD
:10648C0002D002200443E4B20020A847002802D026
:10649C0001200443E4B2013CE4B2052CE3D8044BE4
:1064AC00185DE1E790030020E5630008C4A800082C
:1064BC00CAA80008F8B5132819D880239B00994264
:1064CC0015D14F4C238F022B12D14E4BDB88132B43
:1064DC000ED8A0238022DB0512019A628022520181
:1064EC009A624022484B9A62484B3F3A1A70F8BD68
:1064FC00638D002B0BD0464EB047464D2B78834214
:10650C0005D0454B9847454B1860B0472870444D13
:10651C0044492B78002B09D10620434A1370628C16
:10652C00424301320A70414A053810700A784049DA
:10653C000978934243D3002912D13E4E3C487163F3
:10654C00B163F163A026C021F605B769490139434F
:10655C00B16140212C4EB76A3943B16201210170FF
:10656C000133DBB22B70082B3FD100232B702E494B
:10657C002C4E0B780133DBB20B70608DC82B03D023
:10658C00642B07D1002834D0002A01D0013A327094
:10659C0000230B7000282CD03378012B29D1638C6D
:1065AC00002B09D01C4B98471C4B1B68C01A224B64
:1065BC0098421ED80223337001232B7097E70129D0
:1065CC00CED1A027FF05BE6AB446C0266046760130
:1065DC000643BE6240260C4FB86A0643BE620B4EA1
:1065EC001348317000210170BAE7002B00D07EE710
:1065FC00BDE73378002BDFD10C4A1370DCE7C046C3
:10660C009C03002040010020000800503E000020A8
:10661C00396400083F00002049920008380300202C
:10662C002603002028030020290300202703002034
:10663C002A030020002C01409F860100F7B59F4BD8
:10664C0001909847051E00D137E19D4C2378834279
:10665C0000D132E123782678023E76B2731C00D149
:10666C000C360427974B01209847944B9847A84227
:10667C0000D022E1013FFFB2002FF3D19249934B9E
:10668C000A88002A00D00CE1142D09D0904A127807
:10669C00AA4201D0B54203D100228E491A600A8069
:1066AC008D4A019910681B680F1A9908B94203D9D1
:1066BC008A498B4200D800E100218C46604688490B
:1066CC00884E0880019988481160327891000F50EB
:1066DC000168013259184368D2B2C9188368C918C5
:1066EC00C368C9180369C9184369C918C919774B14
:1066FC00C9081960062A00D191E032707B4B754EA7
:10670C001B78002B04D133880F2B01D90F23338036
:10671C003388774F0193172B00D983E000236A4A03
:10672C003B60138023786A4ADBB21370714B724A58
:10673C0002332570DD8F137869060133DBB2890FC4
:10674C001370DB0700D501312B0601D5494249B244
:10675C006A4B1B78002B01D0494249B265480300B3
:10676C000833DA8F584B52080232521852B2198839
:10677C0092B22B0763D42378002959D021781B01BE
:10678C005B1AD3181BB2396824784A01521A5C4937
:10679C00C988521851093960510BD20B8A1AD31877
:1067AC0058499AB21BB20C70B32B6EDD1300B43B7C
:1067BC001BB2554A1370FA23019A9B009A4202D2DB
:1067CC00130001333380514B1A78012A63D1828D27
:1067DC00002A72D032888C2A6FD9A0228021D2054F
:1067EC00090191618021490191614021484A9161DF
:1067FC0000221A70474A1288312A5ED83288092A38
:10680C005BD9A0228021D205090191628021490126
:10681C00916240213E4A916201221A704DE063461A
:10682C0033706BE73C4B3D489847274B188079E712
:10683C0021781B015B1A0F33D3181BB2A3E72F4B24
:10684C001B78002B10D02378002906D021781B014F
:10685C005B1A123BD3181BB295E721781B015B1A0C
:10686C000333D3181BB28EE72378002906D0217886
:10687C001B015B1A1433D3181BB284E721781B015C
:10688C005B1A2333D3181BB27DE7002B91DA13006C
:10689C00B4331BB28DE7002A0FD1828D002A0CD0A5
:1068AC00A8E70B4A1278AA4202D0B54200D0F7E60C
:1068BC0000221A60074B0A801A80F7BD3964000861
:1068CC0038000020B1860020420000203801002052
:1068DC004600002034010020400300206F1101000D
:1068EC00360100203D0100201C0000205403002034
:1068FC008C0300209C0300209903002090030020AF
:10690C0040010020A1010020A20100203E00002037
:10691C000008005096010020355B00080E6C3A0010
:10692C00F8B51F4A1F4B16781F4C204A1B78A588B8
:10693C009B19167803219E19AB089E191C4BF6B2B5
:10694C0018781C4B36021F781B4BC0191F781B4B39
:10695C00C71928009847E28CC019C3B233430020F2
:10696C009A421AD1164B1878164B1A78164B801877
:10697C001A78164B8218680882181878144BD2B201
:10698C001B781202C018134B1B78C0184019238DAA
:10699C00C0B21043181A43425841C0B2F8BDC046A9
:1069AC009B75FF1F9075FF1F9C0300209475FF1FA4
:1069BC009175FF1F9A75FF1F9575FF1F355B0008BA
:1069CC009275FF1F9975FF1F9675FF1F9375FF1F1B
:1069DC009875FF1F9775FF1FA0238022DB051201FE
:1069EC00F0B59A6280224027002452019A622A4A0A
:1069FC00A3B097620192294D39002800284B984783
:106A0C00284B390002A89847012300260134E4B230
:106A1C00009302AB9A5BAB5B9A4201D000230093CC
:106A2C00214B02369847802EF3D11F4B9847009B81
:106A3C00002B08D1642CDED105221C4B1A700022CD
:106A4C001B4B1A7001E0642CF6D02B88194A190ADA
:106A5C001170194A13706B88184A1370184A1B0A64
:106A6C001370A0238022DB0512019A61802252014F
:106A7C009A614023019A9361EB8A002B0AD0114B47
:106A8C0098472822002132200F4CA04728223C2175
:106A9C003220A04723B0F0BD000800509C0300201A
:106AAC0045980008D5980008399700085301002034
:106ABC00540100201F0400201E0400201D0400208F
:106ACC001C040020DD6B0008FD6B000800B5A1B0B4
:106ADC00802200216846044B984740216846034BAE
:106AEC00984721B000BDC0461DA800084598000875
:106AFC00F8B5294C4021294B20009847284EB04727
:106B0C006188284A4B1E9BB293421CD8A3882B2B1E
:106B1C002ED12388244A190A1170244A244D13704B
:106B2C006388244E1A0A2A70234A3370934209D080
:106B3C00224B402163802000214B9847638833709F
:106B4C001B0A2B70F8BD1F4B994211D12388013BB6
:106B5C009BB293420CD9A022C023D205916A5B014F
:106B6C000B4393624023184A916A0B439362FEE7EE
:106B7C000125164F012D0BD1104B63800135B04709
:106B8C0002372B2DF6D1402120000D4B9847C0E742
:106B9C007A8A6B00E252F1E79C030020D59800083A
:106BAC0039970008FDFF00001F0400201E04002080
:106BBC001C0400201D0400200AE000000AE0FFFF76
:106BCC0045980008FFFF00000008005070B3000853
:106BDC00002310B5034A1370034A1370034B9847F4
:106BEC0010BDC046D6040020D7040020616A0020E6
:106BFC00F0B5454B85B01B780D00019002920393C4
:106C0C00002B34D1414F424A3B781278414C9A4286
:106C1C0012D003267343E25C82420DD1E3185A78FA
:106C2C00AA4209D19B78029A934205D13A4B9847D4
:106C3C003B785E43039BA3550322354B01991B788C
:106C4C005A43A1543549A218557048310988002976
:106C5C0002D0A9086D1A557003225A430133A418A7
:106C6C00029ADBB2A2702A4A3C2B4AD013702C4AEF
:106C7C002549137809780B4341D101211170294A18
:106C8C00294C1278002A15D0284AA0251370802789
:106C9C00274B802698474023FA20ED053F017601CB
:106CAC00AF624000AE62A362224B98474023AF62B2
:106CBC00AE62A36200251D4B80261D701C4B9847AD
:106CCC0080221D4BD201DA671C4A1D4913698020B2
:106CDC000B401361A0234021DB05360140019E626D
:106CEC009862A16255639563D5639E61154A98615C
:106CFC00154BA1611A618022144BD2021A6005B0A7
:106D0C00F0BD0023B2E7C04654030020D704002096
:106D1C00D604002022040020DD6B00089C03002018
:106D2C00D804002017050020000800508A0100201C
:106D3C00D5730008B186002004E100E0002C01406E
:106D4C00EFFF0000FEFF00000014004000E100E037
:106D5C00024B98684007C00F7047C04600240140A2
:106D6C000349044A8B681A40042313438B60704711
:106D7C0000240140E8FFFF7FA023DB051B6970B5F1
:106D8C001B4A1C495B0710D51B4B1B78002B0CD1E5
:106D9C0013881A4801339BB21380834207D9184BCE
:106DAC001B78002B01D101330B70002313800B785F
:106DBC00002B01D1134B9847134DA847134C238834
:106DCC00C01A80B27C28F7D9A847FA21104A208033
:106DDC001388490101339BB28B4201D0138070BDE3
:106DEC00002313800B4A137801331370F7E7C04666
:106DFC00DA040020650C002094010020B80B000080
:106E0C009A030020399700088D8A0008DC040020C2
:106E1C00E0040020DE040020F0B59F4B89B01A7806
:106E2C000A2A0AD09D4B9E499A8119819D499980C5
:106E3C000A2159819C4B9847FCE780229B4BD2013D
:106E4C00DA679B489B4EB047A0238022DB051201DA
:106E5C009A62802252019A6240239749974C8B6226
:106E6C00A368974A80251A4010231343A3606D032F
:106E7C000291944B9847002802D0013D002DF8D187
:106E8C00914A924913680A200B4013600322E3686D
:106E9C00C0219343E360E3688D4A802513400122AF
:106EAC00E36023696D03934323618A4B1A688A4319
:106EBC00110040220A431A6008229A61B0476369A4
:106ECC00854A13400F226361A36A93431A0004237B
:106EDC001343A362814B98477A4B9847002802D002
:106EEC00013D002DF8D1236C282706937C4B984745
:106EFC006420B04700237B4D80226B63A0231201DA
:106F0C00DB059A610A20B0476369774A13400F2268
:106F1C006361A36A93431A0003231343A3626F4B69
:106F2C00984780235B0300936F4B0193654B984705
:106F3C00002804D0009B013B0093002BF6D1236C5E
:106F4C00802204936B461B8A1201009300236B630F
:106F5C00A023DB059A62624B9847FA204000B047A9
:106F6C00009BC72B03D9013FFFB2002FC0D1A02734
:106F7C002825FF056420B04700235A4A0A20936352
:106F8C0080235B01BB61B0476369019A13400F22F8
:106F9C006361A36A93431A0003231343A3624F4B09
:106FAC00984780235B030393464B9847002804D0F3
:106FBC00039B013B0393002BF6D1236C494A0593A9
:106FCC006B469B8A03930023936380235B01BB6214
:106FDC00434B9847FA204000B047039BC72B03D97B
:106FEC00013DEDB2002DC5D128256420314B9847C9
:106FFC0000223C4B0A20DA63029B40329A612D4BF3
:10700C0098476369019A802613400F226361A36A33
:10701C00760393431A0003231343A3622F4B984721
:10702C00284B9847002802D0013E002EF8D10022B0
:10703C002C4B276CDA63029B40329A62284B9847A0
:10704C00FA20BEB21B4B40009847C72E03D9013D16
:10705C00EDB2002DC9D1009B244AC82B04D8039B48
:10706C00C82B01D8C82E43D90C4B0D49DE81198190
:10707C00FA2189009980C82159800099177159818A
:10708C000399998100231370049B9370059BD37013
:10709C00054B9847FCE7C0461F0400204001002028
:1070AC00BD1C0000B80B0000856D000804E100E079
:1070BC00A8610000B18600200008005000240140A7
:1070CC00E8FFFF7F5D6D000830000240FEFF00000E
:1070DC00FFDFFFFF00040050FFEFFFFF6D6D0008A6
:1070EC0039970008002C0140FFF7FFFFE204002055
:1070FC006B461B8BA0260093012328271370F605E3
:10710C006420894B9847894A894B0A205A6380230B
:10711C001B01B361844B98476369019A8025134026
:10712C000F226361A36A6D0393431A000323134375
:10713C00A362804B98477D4B07937F4B9847002861
:10714C0002D0013D002DF8D1236C794A04936B4693
:10715C001B8A03930023536380231B01B362774B79
:10716C009847FA20704B40009847009B039A934233
:10717C0003D3013FFFB2002FC2D1A0272825FF0562
:10718C006420694B9847079A694B0A209A638023BD
:10719C005B01BB61644B98476369019A802613407D
:1071AC000F226361A36A760393431A0003231343EC
:1071BC00A362604B9847604B9847002802D0013E71
:1071CC00002EF8D1236C5A4A05936B469E8A0023F5
:1071DC00936380235B01BB62584B9847FA20524B58
:1071EC0040009847009BB34203D3013DEDB2002D04
:1071FC00C6D128274C4D6420A847079A4C4B0A202F
:10720C00DA634022029B9A61A8476369019A802540
:10721C00134063610F23A26A6D039A430C3B134323
:10722C00A362444B9847444B9847002802D0013D39
:10723C00002DF8D1236C3E4A06936B461D8B002320
:10724C00D3634022029B9A623C4B9847FA20364B00
:10725C0040009847009BAB4203D3013FFFB2002F85
:10726C00C8D1009B039A934203D8B34201D8AB42D6
:10727C0017D9334B334A9E811A81FA22D2009A8055
:10728C00009ADD815A80039A5A8100222E4B5A7043
:10729C00049A9A70059ADA70069A1A712B4B9847D1
:1072AC00FCE70122284B2A485A702A4B1969914352
:1072BC0011431961196908407021014303201961B8
:1072CC00D96801438020D960D968800101438020AE
:1072DC00D9605969800001435961996AF238FF38C5
:1072EC008143114399621C4B19680A431A60114B74
:1072FC0098470822C021194B9A621A680A431A60EF
:10730C008022174BD2011A60A022C023D205916AA9
:10731C005B010B4393624023124A916A0B439362C5
:10732C00064B984709B0F0BDB18600205F04000001
:10733C00002C01406D6D00085D6D00083997000848
:10734C0040010020BD1C0000E2040020856D0008F7
:10735C0003FEFFFF002401403000024000040050F7
:10736C0000E100E000080050054A064B1218013AF3
:10737C001278D21853681B0C1B040B4353607047D4
:10738C00D6B30008000002400121054B054A1B182A
:10739C00013B1B789B181A688A431A607047C046D9
:1073AC00D6B3000800000240054B064A1B18013BEF
:1073BC001B789B18012219680A431A607047C04653
:1073CC00D6B3000800000240F7B5594B1B78002BD0
:1073DC0078D0584D2B78002B74D1A0238022012417
:1073EC00DB0512012C709A62802252019A624023B2
:1073FC00514F524EBB6206215148B04705215048AF
:10740C00B04704214E48B047102070264D4B1A68E7
:10741C0022431A6001971A68024206D11A68324058
:10742C00602A02D11A682242F5D108260120B446FE
:10743C001A68614682431A6000225A629C69424F64
:10744C00B4439C619C69414E34409C617C688C4384
:10745C007C60DC683E4F01993C40DC60DC683D4F51
:10746C003C40DC60DC6826408C24DE607026E40046
:10747C00DC625A639A63DA631C68B44326006024A6
:10748C0034431C601C69344E344080261C61334CE0
:10749C00F60126601C6820431860A0238020DB05C1
:1074AC00000198628020400198624020022488628A
:1074BC002B490C702B492A700A701D490A709A6A64
:1074CC001043986201242849284D29480E682B68DE
:1074DC000268234026409B1922409B18002B0AD19E
:1074EC0049686B6842689BB289B25B1892B29B1870
:1074FC00002B00D1F7BDA0238022DB0512019A627C
:10750C00802252019A6240220B4B0C4D9A6206214A
:10751C000B48A84705210A48A84704210848A84752
:10752C00144D0620A8470520A8470420A847CAE701
:10753C00170500201905002000080050A99E00081E
:10754C0000000240002C0140182C0140FFF7FFFF07
:10755C00FFFDFFFFFFFBFFFFEFFF000000E100E07E
:10756C0020010020180500206C0002405800024049
:10757C0044000240957300080E4B70B516001A6853
:10758C0004000D00002A03D101321A600A4B9847FF
:10759C000A4B1B8CDBB2012B06D1240634432D0481
:1075AC00074B2C431C6070BD022BFCD124043443CC
:1075BC002D06F5E724050020D17500089C0300205A
:1075CC001C050020794BF7B51B68002B00D1ECE0B3
:1075DC00774C2378002B12D1832276490A704A7596
:1075EC007549CA5401331A2BFBD1744BD88B1A8CA6
:1075FC00C1B2734B120A000A984701232370714BD6
:10760C00714A1B7812781343704A1278134300D0D6
:10761C00CBE080236E4C6F4822696F490240DB013E
:10762C002261CB6723696D4A0340802023616C4B38
:10763C00C0021A61C8671A61A0238022DB051201FF
:10764C009A62802252019A624023664970208B62B2
:10765C0022683F3B1A4322600191102122680A42A2
:10766C0006D122680240602A02D122681A42F5D162
:10767C000123226810219A4322600022702062624A
:10768C0022681A43226022681A43226022680A4246
:10769C0006D122680240602A02D122681A42F5D132
:1076AC00012523688322AB43236000236362A56218
:1076BC00E2626363A363E3632368133A93431A00A0
:1076CC001023134323608023E2689B001343E36081
:1076DC0080238021E268DB001343E360E368090147
:1076EC000B43E3600823A2693F4E1A43A261A269CF
:1076FC0006200A43A2613D4A51680B435360B047D0
:10770C000520B0470420B047394A3A4813683A4E2E
:10771C00034033431360FF233848274F0168384E2A
:10772C009943EB3B0B430360364BD7601A219360B4
:10773C000420B047344A2F48136803402E480343B3
:10774C001360FF23314801689943EA3B0B43036004
:10775C002F4BD7601A2193600520B0472D4A25483E
:10776C0013680340244803431360FF232A4801682D
:10777C009943E93B0B430360284BD7601A21936074
:10778C000620B047236880212B4323608022A0234E
:10779C000901DB05520199619A61402201998A61C4
:1077AC0008490D7099690A439A61F7BD24050020B8
:1077BC002805002001050020E70400209C03002080
:1077CC008575000817050020D80400201905002035
:1077DC00002C0140EFFF000004E100E0FEFF000080
:1077EC00001400400008005095730008182C01404C
:1077FC00440002400F80FFFF902100000C08024063
:10780C0075730008342C01405800024010080240E7
:10781C00382C01406C000240140802403C2C014002
:10782C008323F7B5AF24C826204DA4002B70204B22
:10783C0027005B88F600B34204D91E4E9B199B109F
:10784C00E31A9FB24618B618BE4216D800236B270F
:10785C00DCB2A4465C1C072B1CD80826F31A0600C5
:10786C001E4153230193523B1E4200D10197019BB1
:10787C002B552300182CEBD1F7BD022801D9023867
:10788C00C0B2022901D90239C9B2022ADAD9023AA4
:10789C00D2B2D7E766460F2E03D81026F31A0E0085
:1078AC00DEE71826F31A1600DAE7C046E7040020D4
:1078BC0040010020C0F9FFFF4C4BF7B51B68012BB2
:1078CC001FD14B4B1B78002B1BD04A4B4A4A1B78C1
:1078DC001278134315D1494B1868494B010CC2B2AD
:1078EC00C9B2000E9847474B1B78002B02D0454A73
:1078FC00013B1370444A13780133DBB2272B01D8B8
:10790C001370F7BD0023414C06201370A0470520CF
:10791C00A0470420A04701233D4D7020296819433E
:10792C00296010212A680A4206D12A680240602A7E
:10793C0002D12A681A42F5D101222B68354F9343A4
:10794C002B6000236B62344B344E1B78344C019308
:10795C00002B2AD016210420324B9847324B16218B
:10796C00FB60324B0520BB602E4B98472E4B1621EB
:10797C00F3602F4B0620B3602A4B98472A4B062006
:10798C00E3602C4BA3602C4CA0470520A04704209F
:10799C00A047019B204A013B13700A23194A13701C
:1079AC0001222B6813432B60ABE71A2104201D4BDB
:1079BC009847224B1A21FB601C4B0520BB60194BCE
:1079CC0098471E4B1A21F360194B0620B360154BD8
:1079DC0098471A4B0620E360164BA360164CA04741
:1079EC000520A0470420A047D7E7C0462405002067
:1079FC0017050020D8040020190500201C050020C4
:107A0C002D7800082005002018050020957300082B
:107A1C00002C01404400024020010020580002408C
:107A2C006C0002407573000801050020342C0140E5
:107A3C00382C01403C2C0140B5730008E7040020B1
:107A4C00054B01201B78002B04D0044B18784342C3
:107A5C005841C0B27047C0461705002020050020D1
:107A6C00012310B51A0000210548064CA04701223D
:107A7C00054B00211A700548054B984710BDC046B0
:107A8C0020A10700719300084805002080841E0087
:107A9C0079920008034A49008B5A1B0A03708B5ACF
:107AAC00437070474001002070B545180400002158
:107ABC00044EAC4201D1080070BD2078B0470134AF
:107ACC000100F6E7356C0020F0B516008022C1B03D
:107ADC000C000700124B52000021684698476A467A
:107AEC00032313700F4BA51D1B78EDB253706B461F
:107AFC0015713A19013397420ED1611D68460A4B34
:107B0C0098476C446071012E04D8320029006846F5
:107B1C00064B984741B0F0BD397801371971E9E748
:107B2C001DA800081E040020B57A00082D9300083B
:107B3C0007B5044B02001B7801A803700121024B0E
:107B4C00984707BDDEB30008D57A000870B514005D
:107B5C00084A094D93794000002906D12B52074B56
:107B6C0098472000064B984770BDD2791B021343EF
:107B7C00F4E7C0462F0500209C030020E5690008AF
:107B8C003D7B000807B5044B02001B7801A803706D
:107B9C000121024B984707BDDDB30008D57A0008D8
:107BAC0010B50400080011001A00054B1B78A34205
:107BBC0002D1044B984710BD1000034B9847FAE7CD
:107BCC002E050020597B0008917B000810B514008D
:107BDC001A00094B49001870084B0948C95ACBB216
:107BEC00002C05D103700134064BE1B2984710BD4F
:107BFC00090A01704370F6E72E0500209C03002053
:107C0C0059050020D57A00080122F8B5A84BA94DDA
:107C1C001A7068790C0065287BD8FDF77BFF9900FA
:107C2C007A0099007A007A0066006F0080007A0072
:107C3C007A008C008F009D00A8007A007A007A00F0
:107C4C007A007A007A007A007A007A007A007A0058
:107C5C007A00B200CE00D500DC00E700EE00F500A3
:107C6C00FC001101180103010A01AE0034013B01B3
:107C7C0042017F0186018D0194019B01A201A901A2
:107C8C00B001B701BE01D101E301F601FD0104020F
:107C9C00110225022C0235023C0243024A02580210
:107CAC00510266025F0274026D0282027B02900234
:107CBC0089029E029702AC02A502BA02B302C80264
:107CCC00C102D602CF02E402DD02F202EB02020391
:107CDC00FB02100309031E0317032C0325034F0398
:107CEC0033035D0356036B036403734B73481B78B8
:107CFC00037022000121724B98470AE00021714A5F
:107D0C006E488B5C0B5401310C29FAD122006C4B60
:107D1C0098476B790D2B01D06B4B9847F8BD6B4B8B
:107D2C0066481B780A000370694B02211B7843706C
:107D3C00634B9847EDE7674B9847EAE7664A138829
:107D4C0001331380AA79EB7912021343634A13802F
:107D5C002000634B9847DCE7584EA9793000614B03
:107D6C009847220002213000554B9847D1E76421F7
:107D7C000A20AA795C4B9847CBE75C4B4F489B8811
:107D8C00B6E7EA795A4B00261A700122287A594B29
:107D9C00170018700B23434357490C330A705BB21E
:107DAC00501CC0B2002B03DC002ED1D00A70CFE7E0
:107DBC00083B02003E005BB2F2E7AA794F4B080089
:107DCC001A70474B9847A4E70B00002203211C2094
:107DDC004B4CA0479DE70B00002203211C20494C73
:107DEC00A047424B9879484B984792E70B000022EA
:107DFC0006211E20424CA0478BE70B0000220621D7
:107E0C001E20404CA04784E70B00002204212020B8
:107E1C003B4CA0477DE70B00002204212020394C6D
:107E2C00A04776E70B00002208212420344CA04701
:107E3C006FE70B00002208212420324CA04768E792
:107E4C002222324B1D481A70314B1B7850E72F4BB6
:107E5C001B78222B13D1AB79182B0BD91823AB71B0
:107E6C00154B1A78AB7912021343204A1380294B15
:107E7C0098476DE7002BF3D10133AB71F0E720008D
:107E8C00254B984745E70B000122092127201C4C64
:107E9C00A0473EE70B00012209212720194CA047DF
:107EAC0037E70B0001220A212920154CA04730E7A7
:107EBC00940100202F0500201F04002059050020EC
:107ECC00D57A00089075FF1FB16200081D040020D0
:107EDC001C040020FD9800084A0500202401002005
:107EEC003D7B0008A17A0008FD6B00089C03002074
:107EFC002201002023010020210100204C0500203C
:107F0C00D97B0008AD7B0008856100082E05002098
:107F1C001E040020E5690008917B00080B0001227B
:107F2C000A212920DB4CA047F3E60B0000220B2191
:107F3C002B20D94CA047ECE60B0000220B212B2068
:107F4C00D44CA047E5E60B0000220C212D20D24C8E
:107F5C00A047DEE60B0000220C212D20CD4CA047C3
:107F6C00D7E60B0001220D212F20CB4CA047D0E6E9
:107F7C000B0001220D212F20C64CA047C9E60B0097
:107F8C0001220E213120C44CA047C2E60B00012275
:107F9C000E213120BF4CA047BBE6C04AD38B128CBC
:107FAC00120A192B08D1652A00D0B2E62A7AE9798F
:107FBC00A879BB4B9847ACE6134300D0A9E6F5E78C
:107FCC003422B84BB8481A70B44BDA8B110A0170D2
:107FDC0042701B8C04211A0A8270C3702200B34BAE
:107FEC00984796E6AF4B1B78342B00D047E7A8791F
:107FFC00E979AA4E03020B43F3832A7A6B7A1702B0
:10800C003B433384A64B984731E70B0000221121E8
:10801C003620A14CA0477CE60B0000221121362013
:10802C009C4CA04775E6A24B984738219E4B9D4A25
:10803C0018701170180022009C4B3739984768E66D
:10804C00984B1B78382B00D019E7AA79EB79934E13
:10805C0012021343F3842A7A6B7A12021343338588
:10806C00934B9847B08402E70B00002215213A206D
:10807C00894CA0474DE60B00002215213A20854C77
:10808C00A0478C4B984744E60B00012205213C206D
:10809C00814CA0473DE60B00012205213C207D4C84
:1080AC00A04736E60B00002216213E207A4CA04752
:1080BC002FE60B00002216213E20764CA04728E626
:1080CC000B00002217214120734CA04721E60B0026
:1080DC000022172141206F4CA0471AE60B0000220A
:1080EC00182143206C4CA04713E60B0000221821EA
:1080FC004320684CA0470CE60B00012219214520B7
:10810C00654CA04705E60B00012219214520614C66
:10811C00A047FEE50B0001221A2147205E4CA04728
:10812C00F7E50B0001221A2147205A4CA047F0E535
:10813C000B0001221B214920574CA047E9E50B00FD
:10814C0001221B214920534CA047E2E50B000022E1
:10815C001C214B20504CA047DBE50B0000221C21BE
:10816C004B204C4CA047D4E50B0000221D214D2088
:10817C00494CA047CDE50B0000221D214D20454C5C
:10818C00A047C6E50B0001221E214F20424CA04700
:10819C00BFE50B0001221E214F203E4CA047B8E545
:1081AC000B0001221F2151203B4CA047B1E50B00D5
:1081BC0001221F215120374CA047AAE50B000022B9
:1081CC0020215320344CA047A3E50B000022202192
:1081DC005320304CA0479CE50B0000222121552058
:1081EC002D4CA04795E50B00002221215520294C50
:1081FC00A0478EE50B00002222215720264CA047D9
:10820C0087E50B00002222215720224CA0472A4B45
:10821C0098477EE50B000022232159201E4CA047D5
:10822C0077E50B000022232159201A4CA04770E55A
:10823C000B00002224215B20174CA04769E50B00A2
:10824C00002224215B20134CA04762E50B00012285
:10825C0025215D20104CA0475BE50B000122252158
:10826C005D200C4CA04754E50B00012226215F2019
:10827C00094CA0474DE50B00012226215F20054C3F
:10828C00A04746E50B00002227216120024CA047A5
:10829C003FE5C046AD7B0008D97B00089C0300205D
:1082AC00857500082E05002059050020D57A000898
:1082BC002D69000899630008DD6100080B0000229D
:1082CC00272161200F4CA04723E50B000022282119
:1082DC0063200D4CA0471CE50B00002228216320D5
:1082EC00084CA04715E50B00002229216520064CFF
:1082FC00A0470EE50B00002229216520014CA04768
:10830C0007E5C046AD7B0008D97B0008F8B5012510
:10831C00F0223020274C284EA562A369A027934356
:10832C000343A361A369254A30001A40C0239B0173
:10833C001343A361224B9847042300223360023B72
:10834C00FF057360336103333100736138001D4BDB
:10835C00F260984730203B681B4A83433B601368AC
:10836C00AB431360194B1968A94319602168A943E1
:10837C0021608021490059605160116829431160C6
:10838C001A682A431A6023682B43236020233A6817
:10839C008243134300223B600D4B1A600D4B1A8035
:1083AC000D4B1A700D4B1A800D4B1A800D4B1D7016
:1083BC00F8BDC04600400140CC050020FF0FFFFF78
:1083CC0051A10008AFA000081C00024008000240A8
:1083DC0078050020C00500207C050020C405002085
:1083EC00BE0500207505002010B5154B86B01B7816
:1083FC00002B23D1134968465A5C1A5401330C2BB9
:10840C00F9D10024F33303730F4B14211B784373FE
:10841C000E4B1B7883730E4B1B786433C3730D4B5D
:10842C00DA8802741B89448243740B4B98476B4661
:10843C002200187515216846084B984706B010BDE8
:10844C00940100209075FF1F1D0400201C040020C7
:10845C001F0400209C030020B57A00082D9300080F
:10846C00F7B56A4B1B78002B00D1C0E0684B1C7829
:10847C00684B1B78002B72D0002C72D1664D2B7878
:10848C00002B00D1A9E0E3B20193052C3DD8634B3E
:10849C00634E1B78A7B2002B2BD11422E3B25A43A4
:1084AC00642114205F4BD2B298472B783780013B64
:1084BC002B70072C31D1584BDA79072A04D90121BA
:1084CC00594A11700022DA71142C31D1524F3B7D74
:1084DC00072B79D9554E564BB079984700233B75ED
:1084EC00F38A002B70D032223C2164204D4B9847EC
:1084FC006AE03388BB42D8D11422E3B25A436421D8
:10850C000220484BD2B29847CFE7E3B2062BD0D12A
:10851C00484B98470022404B9A71082C68D13E4B2F
:10852C001A7A072A04D902213F4A117000221A72C2
:10853C00152C68D1384B5B7D072B45D93B4E3C4BFA
:10854C00F288002A08D1012098470023324A53753B
:10855C00F38A002B38D0C6E700209847F5E7002CAB
:10856C0045D00021344A2C481378C1540133DBB276
:10857C00302B01D013703AE0117038E00C2CA3D1E1
:10858C00254E337B092B1FD9274B1B78002B02D090
:10859C00264A013BD380294B1B78002B02D0234A5F
:1085AC00013B1381264B9847264B98470023337386
:1085BC000AE00A2CE2D1184B9A7A072A04D9022134
:1085CC001E4A117000229A72E3B20D3B062B02D99F
:1085DC00E3B2152B01D900232B7001340135302C5B
:1085EC0000D04CE70B4B0B4A1B78013B1370F7BDCB
:1085FC00092CDED1084B5A7A072A04D901210F4ADB
:10860C00117000225A720B2CDED1E4E775050020A4
:10861C00540300208405002087050020D804002086
:10862C00E4050020FD6B0008860500209C0300205B
:10863C0085610008F5830008E6050020740500201C
:10864C00E5690008FD990008012210B5110002230C
:10865C000648074CA0470023064A1380064A13809D
:10866C00FA22064B52001A8010BDC04680841E00B0
:10867C0071930008EC050020F6050020280100206D
:10868C000C4A10B51388F92B01D8013313801288CA
:10869C00094BFA2A08D1094A12881D2A04D8122239
:1086AC001A70074B984710BD1A78102AFBD101326B
:1086BC001A70F8E7F605002088030020EC0500206E
:1086CC000995000870B51F491F4DC8882B78C20446
:1086DC001E4CD20E5E01324322706070072B06D8FE
:1086EC001B4A9B00D3589F460023A370E370194B81
:1086FC000421200098472B7820710133DBB2082B22
:10870C0000D100232B7020000521134B984770BD1E
:10871C004B881A0AE370A270E9E78B881A0AE37097
:10872C00A270E4E70B891A0AE370A270DFE70B4B27
:10873C001B881A0AE370A270D9E70B881A0AE37037
:10874C00A270D4E740010020F8050020E7050020C6
:10875C00E0B30008B57A000889950008EE05002002
:10876C0070B5234B04009847224A1388C31A9BB256
:10877C00322B1FD8204D21492E781080731CDBB270
:10878C008C552B70032B14D10F238A784878134007
:10879C0000010343DB43097812091B0509011B0D7A
:1087AC000A439A420DD0164A1388013313800023D2
:1087BC002B7070BD01251049104B10800D701C7072
:1087CC00F7E700210F4B104C520822801C880F4AEF
:1087DC0001341C800E480F4B1180198002880E4BFF
:1087EC009A4201D8013202800C4B9847DFE7C04611
:1087FC008D8A0008F4050020F3050020F005002008
:10880C00EE0500203E01002026010020280100205A
:10881C00EC05002032030020FDFF0000D18600088B
:10882C00F8B50823F0222C4D2C4FAB62AB69380005
:10883C0093431A0050231343AB61AB69284AA0261B
:10884C001A40A023DB011343AB61264B984704234A
:10885C0000243B60023BF6057B603B61033339002F
:10886C0030007B61204BFC609847302033681F49F7
:10887C008343336001230A689A430A601C4A1768D1
:10888C009F4317602F689F432F6080277F0057609E
:10889C004F600F681F430F601168194311602A68FD
:1088AC001A432A602022316881430A433260114AFC
:1088BC001480114A1480114A1370114B1C70114B07
:1088CC001C705C709C70104B1C80104B1C80104BEF
:1088DC001C70104B1C80F8BD00400140100600209D
:1088EC00FF0FFFFF51A10008AFA000081C000240C1
:1088FC0008000240FE050020FA050020F9050020C2
:10890C00030600200006002004060020FC050020C1
:10891C002E0600200C060020F8B5FA23DB00984246
:10892C0012D8FA239B0098422FD3C823DB0098421D
:10893C002CD9414B1C78002C28D1404F3B78312B43
:10894C0004D801333B70F8BD1800F2E73C4E3D4DA6
:10895C0031782B680131C018C9B2286031703229C6
:10896C00F1D1394B9847394B334A18800123137096
:10897C00374B3C7034702C60DB8A002BE3D03C22EC
:10898C00C8201100334B9847DDE71800324BC31851
:10899C00622B21D8284E3278012AD4D1274C237847
:1089AC00312B02D801332370CDE7264D244F2B6891
:1089BC0018183B7828600133DBB23B70322BC2D1E4
:1089CC00234B1A81254B98470023204A3370138080
:1089DC002B603B702370B6E7AF23DB009842B2D21A
:1089EC00154B1B78012BAED1144B1B78312B03D8B4
:1089FC00124A01331370A6E7114D124E29783368D1
:108A0C000131C018C9B23060297032299BD10F4B8B
:108A1C000F4F1B880024BB820B4B98470F4B78825F
:108A2C003C819847094B34601C80034B2C701C70A4
:108A3C00024B1C7087E7C0462B0600202A0600203C
:108A4C000F06002008060020355B000828060020D1
:108A5C009C030020FD6B000855FAFFFFE569000838
:108A6C00044B054A1A61054A138801339BB21380E3
:108A7C007047C04600480140FEFF0000240C002057
:108A8C00014B586A80B27047004801400721F0B58D
:108A9C000127FE4A89B0536BFD4C0B435363536B58
:108AAC00A0250B400793079B936BFA493B439363B9
:108ABC00936BED053B400693069B136C3B43136491
:108ACC00136C3B400593059B1300D26B0A43DA638E
:108ADC001A001000DB6B0B400493049BEE49126CE4
:108AEC000A430264036C20000B400393039BEB4B83
:108AFC0098472123022123600023E94E616128005D
:108B0C00210063602761B04780222100E548226084
:108B1C00B04702214022002361612800210022601D
:108B2C006760E7602361B0474022AB6A21001343C2
:108B3C00AB62C0235B01236000232800E360236148
:108B4C0067606761B04740222100D7482260B04778
:108B5C00C022AB6A52011343AB62D34B40221900C3
:108B6C009B6AD04813438B620221032361606161CD
:108B7C0021002360B047802321005B002800236084
:108B8C00B04780231B02236000232100280067606C
:108B9C00E36023616761B0478022AB6A1202134322
:108BAC002100AB622800B04780230221DB01236047
:108BBC0000236160280021002761E3606761B047F2
:108BCC0002210522042361602161280021006261D9
:108BDC002360B04721002800B047802002210023E9
:108BEC008001206021612800210063606761B0472B
:108BFC001A230322236000232100280062602361D2
:108C0C00B047D8232100A7482360B047A74EA84BF4
:108C1C0030009847A74DA84B28009847A74BA84869
:108C2C00A84C9847A84920008C46E04780219748DB
:108C3C00A64A436DC90313400B4343658C23602242
:108C4C00DB00B36000237260A14A3100944620001F
:108C5C003780F3603374E047002360221900EB6027
:108C6C002B6102336B61FE33EB619A4B2A609C469D
:108C7C002A00A961200039006F60AF60E047954B76
:108C8C002A009C4610212000E0478021914B2A00AD
:108C9C009C4620004900E0478F4B80212A00EB6066
:108CAC008C4D4901AC4608252000E047A3698B4A4E
:108CBC00AB43A361A3698A4813408A4AA3615368F2
:108CCC00AB4380255360636C2D022B43C325636437
:108CDC002368854A3B432360AD00535903408020F1
:108CEC00C0030343535180231025DB011360E36859
:108CFC002B43E3607D4C744B20009C46E04763485B
:108D0C007B4A436D0021134080225204134331806F
:108D1C0043656F4B77489C467160B0603100200012
:108D2C00E0470021664B6648196080235B02436074
:108D3C00C0239B03C360704B02009C4681603900CA
:108D4C002000E04702235E482900036080239B0239
:108D5C004360694B02009C462000E047F135E36814
:108D6C00FF352B43E36080238020E268DB00134354
:108D7C00E360554CC005A446E047554C0021A44681
:108D8C00012380208024F93D71605B423100E405B1
:108D9C00FF3DC0053580B360E0472368574D3B432A
:108DAC002360574C2800A4468024E402E0472C6042
:108DBC000324AC72534C2F81A4462800E047802337
:108DCC00514CDB0223611900E360C323FF20464AA8
:108DDC009B00D3588343BF380343C32080001350F8
:108DEC0021614A4BE1604A4898474A484A4B9847A8
:108DFC0080210023474A89005160A139FF39136053
:108E0C009160D3601100536113614148434B984703
:108E1C003F49434A0B6828003B430B600721236EF4
:108E2C008B4380212366636E490413406366636E33
:108E3C003C4A13400B43324963668C46E047A123FE
:108E4C0003202B6000232F492F818C46A872280009
:108E5C006B60E04720228020C121234DE760890010
:108E6C00E260E0602761226120616B582E4803406C
:108E7C008020C001034380206B506B58C0051B023F
:108E8C001B0A034380206B5047234FE00010024025
:108E9C002C0C0020330012000088170051A1000890
:108EAC00AFA000080004005000080050680C00201F
:108EBC0069A20008000C00201DA3000815A60008DC
:108ECC00C4060020002C014069A10008FFFFBFFF71
:108EDC007DA2000831A300086B020000FFF7FFFF22
:108EEC00FFFF00FF182C014000E100E000400140B2
:108EFC00FFFFFFFEFFFF000025A60008B0060020C4
:108F0C00A1A000089D9F0008001802404B9E00087D
:108F1C000402014090060020919E00085D9E00080E
:108F2C00FFF8FFFFFFFFFFF8FF00FFFFE760E260C5
:108F3C00E060276122612061984C3380B460984BCB
:108F4C00984C31009C462000E047C52223689200D3
:108F5C003B432360AB5894490B40AB508022D20367
:108F6C002A600822E36831003B43E3608B4C32807B
:108F7C0025008B4AB4608D4C94462000E047236852
:108F8C008B4A3B4323608B4C94462000E0471123D3
:108F9C00B560C425824A3100944620003380E047F6
:108FAC008022236884493B432360AD004B59D20592
:108FBC001B021B0A13434B5180231B030B60E368FA
:108FCC007B4A3B43E3607D4C94462000E047002302
:108FDC0033807B4B3100B360714E2000B446E047C8
:108FEC002368AD2274493B4323604B596E4E5201AA
:108FFC003340FF264B510525E3683B43E360714B3F
:10900C00714C196821400A4370491A600A68704C07
:10901C00B2432A430A606F4A2B359A606E4A6F4EF0
:10902C00DA605A683000120C12042A435A601A682B
:10903C003A431A606A4B98476A4B2000984733684A
:10904C00694A07211A40C0231B041343336070265E
:10905C0063698B430B4363616369B3431D43656170
:10906C00624D634B28009847F0236B6080239B0173
:10907C00EB608023032000225B01290028616B61D7
:10908C0020005C4B2A60AA6098478022E3685A4D06
:10909C00920313432800E360584B9847C0230022E7
:1090AC001B0629002B602000554B6A60AA60EA6001
:1090BC0098472369534DBB433B4323612369524A71
:1090CC002B40236123690A2013401E432661A368A9
:1090DC004E4A4F4F1A4080235B051343A360B84799
:1090EC008023A2684B4E1B0632401343A360364BC1
:1090FC000193A368002BFCDB0A20B84763690F229D
:10910C002B408025AD001D4365610125A36A3220EB
:10911C0093432B43A3622560B847A36832203340A6
:10912C002B43A360B847A3682B42FCD03220B8472E
:10913C00A368394A334004261E43A660136801997C
:10914C00FF200B403549364D0B43136028232C6808
:10915C008443234380242B60324B64009360324B56
:10916C00019DD36053681B0C1B04234353602F4B8E
:10917C001A682A40114329222D4D19602968814310
:10918C000A432A602B4A9A602B4ADA605A68120CFE
:10919C00120422435A6009B0F0BDC046FFFF000024
:1091AC007DA2000800480140FFFF00FF0044014081
:1091BC0069A100080020004000E100E0001400401C
:1091CC00B70B0000300002400F80FFFF0808024080
:1091DC0000240140402401403006002008270140B3
:1091EC00599C0008799C0008FFFF3FFEE40A002010
:1091FC00359E0008E99D0008D40A0020D99D00087E
:10920C00AD9D0008FFFDFFFF03FEFFFFE8FFFF6FB2
:10921C00B1860020E8FFFF7F08000240A025000077
:10922C000008024034400140D40800201C000240D9
:10923C000408024038400140D4060020094A0A497B
:10924C00536A10B50888546A9BB280B2A34204D901
:10925C00536A01300004184310BD088800041843F9
:10926C00FAE7C04600480140240C002070B50D0000
:10927C00012102000C20234C23688B4322492360DC
:10928C004B6D83434B650821A3680B43A360236894
:10929C008343002D2FD10343236023681B495008BF
:1092AC000B40236063681A490B406360194B110033
:1092BC001B68C018184B9847802380B2E060226866
:1092CC009B05134323600123C720FF2122688000E4
:1092DC0013432360114B1A588A43110080220A430E
:1092EC001A50802252051A6022682023002D05D1C5
:1092FC001343236070BD19432160CEE79A4322606B
:10930C00F8E7C0460044004000100240FFE9FFEFC0
:10931C00FFCFFFFF2C010020355B000800E100E0CF
:10932C0070B502000C000025084B11001D702200C6
:10933C00074B084898478020074B084A1C7019783F
:10934C00074C118023680343236070BD840E0020FA
:10935C0079A70008800C0020820E00205C0C0020F5
:10936C0000440040F0B585B002930392524B029A30
:10937C00A0251A7001223026504CED052368009070
:10938C00934301912360EB684D4FB3433800EB607E
:10939C004C4B984704233B60023B7B600023FB60F3
:1093AC0006337B613900484B28009847EB68474AE5
:1093BC001340EB60EA68019BB243012B5ED11F3373
:1093CC001343EB600C222368039913432360404A38
:1093DC00404B012956D8216819402160636813401D
:1093EC006360019A3C4B3D49002A55D0626813409A
:1093FC00802292021A4362606368194080235B02E8
:10940C000B436360029B364A012B4CD1A168073396
:10941C009943A16063681A4080231B021343636065
:10942C000025304B009E1B687208190E18022B0089
:10943C008018594132002C4EB0470003000BE060FD
:10944C00802023688005034323600123C7262268FC
:10945C00B60013432360254B25499A5911408022AD
:10946C0012020A439A511860202322681343236086
:10947C00204B1D70204B1D8005B0F0BD10231343F5
:10948C00EB609FE721681940216063681A408023D4
:10949C009B0113436360A4E762681A4062606368CF
:1094AC000B406360AEE76368134063600823A268F7
:1094BC001343A360B4E7C046FD0A002000800040BF
:1094CC00440C002051A10008AFA00008FFFFFFF3DF
:1094DC00FFCFFFFFFFE9FFEFFFFFFDFFFFFFFEFFE9
:1094EC00FF7FFFFF2C010020215E000800E100E05F
:1094FC00FF00FFFF260C0020200C00200123F0B5FC
:10950C0020248020184A3026116899431160116874
:10951C00A14311601168814311608021A020134A7E
:10952C008905D167C00502681149B24302600A6817
:10953C009A430A600F4A15689D4315600E4D2F68BB
:10954C009F432F6080277F0057604F600F681F4339
:10955C000F601168194311602A6813432B6003686C
:10956C00B3431C430460F0BD0080004004E100E004
:10957C001C0002400800024000400140002210B5CF
:10958C000C000C4B1A700A000B4B01000B4898474F
:10959C000B4B1C700B4B1B78022B04D10A4B19780C
:1095AC000919C9B219708023084A11680B4313605A
:1095BC0010BDC046800E002079A70008FE0A0020CE
:1095CC00810E0020FD0A0020FC0A002000800040D3
:1095DC00082202200421364B70B5186219621A62F7
:1095EC00DA69920603D5334A1278002A16D1802202
:1095FC002F4BD9690A420CD02F483049047809788E
:10960C008C4207D204782E49621C095DD2B20270DA
:10961C00996270BD196891431960FAE7012A0BD061
:10962C00022AE4D1274A1178002930D05B6A1378DA
:10963C00013BDBB21370DAE7586A0021224BC0B24F
:10964C009847224B1A788018C0B2C8281BD81870BB
:10965C001F4A1388FE2B02D801339BB213801D4A7C
:10966C0011780029C3D1002816D10E2B05D81A4A1F
:10967C001278002ABBD0062BB9D80021174A184BF8
:10968C0011709847B3E7C822C8201A70E0E7586AEF
:10969C00144BC0B29847AAE701250F4C124B134844
:1096AC0015702570984702220C4B1A709FE7C04624
:1096BC0000800040FD0A0020800E0020810E00205A
:1096CC00FE0A0020FC0A0020F56C0020260C00206D
:1096DC00200C00202A0C00209401002048050020BA
:1096EC00099500086D8700087992000820A10700F1
:1096FC000A4B0B490B4A1A60196000215960013161
:10970C00D8680842FCD1FA21890099600221D868F6
:10971C000842FCD11A60044A1A60704700300040BD
:10972C0055550000CCCC0000AAAA0000014B024AFF
:10973C001A60704700300040AAAA0000044B5A6916
:10974C00002A03DA034A9A60034A9A607047C046BB
:10975C000020024023016745AB89EFCD8023034AEB
:10976C001B0651690B4353617047C04600200240F1
:10977C0080238021044A5B0549021069084202D00B
:10978C00013B002BF9D1704700200240F8B5144D75
:10979C00144B06002B60144B9847144FB847144CCD
:1097AC00144BF8222361FF231206B618DB00360A8D
:1097BC0060691E40104B18400643666102266369BF
:1097CC0033436361802362695B0213436361B8476F
:1097DC006369B3436361094B9847024B2B60F8BD37
:1097EC0000300040AAAA0000499700087D970008A5
:1097FC0000200240FBC3018007FEFFFF69970008B1
:10980C00F7B501260500094F094C00920193B847A2
:10981C00084B2361636933436361009B2B60019B9D
:10982C006B60B8476369B3436361F7BD7D9700080C
:10983C0000200240FBC30180F7B51B4B06001B4800
:10984C000D00984732201A4FB8471A4B98470024FE
:10985C0061008BB20193A54204D8174B9847C820DE
:10986C00B847F7BD154B164A601C1A600023725A94
:10987C00A84204DA73185B881B041A430023A01C4B
:10988C00854202DD701880880343E01C854203DDAD
:10989C007118C98809040B43044901980434401811
:1098AC0008498847A4B2D3E799970008001000082C
:1098BC00B1860020499700086997000800300040E5
:1098CC00AAAA00000D980008002370B5054A064CA2
:1098DC00064D49008B4200D170BD5E5B1460C652D0
:1098EC000233F7E700300040AAAA0000001000087D
:1098FC000123024A1370024A137070477C0C00203B
:10990C00650C0020012280B5054B00AF1A70054B89
:10991C001B6883F30888044B1B689847BD4680BDC1
:10992C00650C00200018000804000008244A70B5DB
:10993C00002301201400010099400133D1671E2B34
:10994C00F9D1204B984732201F4B98471F4B984713
:10995C001F4B98471F4B204A1B78127813432BD070
:10996C00A021802280234020C9055B0112018A625C
:10997C008B621A4B0126986200203500854001301D
:10998C00E5671E28F9D18A62802252018A62402240
:10999C009A62134B5A6B00225A63D96BDA63196CB7
:1099AC0007211A649A688A439A601A680D490A401A
:1099BC001A600D4B9847FEE70C4B9847CAE7C04618
:1099CC0004E100E0998A0008B1860020FD6A0008D5
:1099DC006D7A00087C0C0020640C002000080050FC
:1099EC0000100240FFFFFFFE119900082D5F0020C0
:1099FC000122034B1A70034B31321A707047C04668
:109A0C00650C0020640C002070B50D4DA8470D4B63
:109A1C000D4C98470D4BE3600D4BE360A84780233A
:109A2C001B06A362A847FF22236A93432362A8471D
:109A3C0080239B026361A847064B984770BDC046C4
:109A4C007D97000849970008002002403B2A19081E
:109A5C007F6E5D4C69970008044B10B51B6ADBB236
:109A6C00002B01D0024B984710BDC046002002408D
:109A7C00159A00080721364B10B59A6835488A4369
:109A8C009A601A68024034481A6002688A431100CE
:109A9C0002220A4302608022196852000A431A60AB
:109AAC008022D20019681142FCD0DA682B4911408F
:109ABC002B4A0A43DA608022196852040A431A605E
:109ACC008022D96852050A43DA6080229204196810
:109ADC001142FCD0DA6823491140234A0A43DA6068
:109AEC008022D96852040A430721DA609A688A43B3
:109AFC00110002220A4338219A609A680A40102AFF
:109B0C00FBD19A6819491A480A409A609A6819490F
:109B1C000A409A60184A194B9A60194B9847144896
:109B2C00184B9847184B1948194A59789C181A78A9
:109B3C00090211439A7812041143DA78043312069D
:109B4C000A4322608342EFD1124B984710BDC046A6
:109B5C0000100240FFFFFFFE002002408C80FF1F20
:109B6C00324800608C80FFF132480020FFF0FFFF8C
:109B7C0000A24A04FF8FFFFF0018000800ED00E070
:109B8C0005A7000829A700080B1B00080B5B0008A1
:109B9C00F5340018659A000870470000A021802059
:109BAC0070B5C0240B4BC9056401C0018A6A0A4D0B
:109BBC0022438A624022AE6A3243AA628022074D57
:109BCC00D202D867DA672A61EA6080225201DA672A
:109BDC00ECE7C04604E100E0000800500018024029
:109BEC0070477047704700008022024B12059A6044
:109BFC007047C04600ED00E00D488546002103E0AB
:109C0C000C4B5B58435004310B480C4B42189A4296
:109C1C00F6D30B4A02E0002313600432094B9A423C
:109C2C00F9D3FFF7E1FF00F07FFDFFF77FFEFEE7C2
:109C3C000050002008B40008000000203001002073
:109C4C0030010020880E0020FEE700008022054B2A
:109C5C005203196B00200A431A631A6B02490A401B
:109C6C001A63704700100240FFFFEFFF030013B5AB
:109C7C00002001909A68D20735D5DA683E490A402F
:109C8C00DA609A68520708D510229968114204D1FB
:109C9C0099683A4801400A439A60802200201021BA
:109CAC000124120201929A680A4214D19A6833492B
:109CBC0001240A4002210A439A6080221202019276
:109CCC009A680A420FD0019A013A0192019A002A2D
:109CDC00F6D12000F4E7019A013A0192019A002A88
:109CEC00E1D12000DFE717229968114241D15A686F
:109CFC002349244C0A405A601968234A0A431A60C3
:109D0C009A6822490A409A60DA6821490A40DA6066
:109D1C001A6920490A401A615A691F490A405A6156
:109D2C00196A1E4A214011431962596A2140114394
:109D3C005962D96A0C402243DA629A6A8021D20CA9
:109D4C00D2049A62C02201249202019289011A68FB
:109D5C000A4207D1019A013A0192019A002AF6D1DE
:109D6C002000F4E719607F21B4331A688A431A6023
:109D7C0016BD0120FCE7C0463FF2FFFFE8FFFF7F66
:109D8C0060D4FFFF00F000F09F2B0000FFFFFFEFFF
:109D9C0000023E8302FCFF3F880000F80000FF0F2A
:109DAC008368020030B501201C00044003420AD134
:109DBC004B688D68C9682B43D0680B43024901403E
:109DCC0020000B43D36030BDC73FFFFF8023DB0572
:109DDC000360002343608360C360704702008368A4
:109DEC000120F0B5034217D1CC680B68D668234329
:109DFC0048680F694D690B4CB60201D5F0280CD0A0
:109E0C00D6683B432B433440896823430B43D360D0
:109E1C00936A184390620020F0BDD1683B432B43FA
:109E2C002140F3E73CC2FEFF002303608360C36064
:109E3C0003618023F0225B0142604361704702683A
:109E4C0003000120002A01DB00201860704700008D
:109E5C000368020010B50120002B10DB4C680B6866
:109E6C00106823438C682343CC6823430C694969ED
:109E7C0023430B430249014000200B43136010BDE8
:109E8C000F7C00FE8023DB02302203600023436042
:109E9C008260C36003614361704700000200324876
:109EAC0030B5324B81420DD19A4201D0012030BDE8
:109EBC0001212F4B00209A6A0A439A629A6A8A43BC
:109ECC009A62F4E79A4225D1012925D0022925D09E
:109EDC00032925D0042925D0052925D08B1F5842CC
:109EEC00434113205B42834322481B18012418680A
:109EFC00FF25A04318600020186058609860D86057
:109F0C001D4BCB189B001C68AC431C6001290DD168
:109F1C005160CCE7174BE9E7184BE7E7184BE5E73F
:109F2C00184BE3E7184BE1E7184BDFE71023022946
:109F3C0003D0032903D180235B005360B7E70429C6
:109F4C0002D180235B01F8E7052902D180235B0253
:109F5C00F3E7062902D180235B03EEE70729A5D19D
:109F6C0080235B04E9E7C0460000FFFF00000240CD
:109F7C000010024080000240FF81001008000240E7
:109F8C001C000240300002404400024058000240D5
:109F9C0030B5010003684268007A00285ED00020CA
:109FAC00834220D04C7A012C2FD0022C36D0013099
:109FBC00002C08D1324DE86F9843E867314DE86FBB
:109FCC001843E86720008C7A002C0CD0022C29D086
:109FDC00032C2FD0012C31D12B4C65689D4365602F
:109FEC0025682B432360002A0ED04B7A012B28D0F6
:109FFC00022B2CD0002B2ED124490B6893430B60E1
:10A00C0023490B681A430A6030BD1E4DEC6F9C430C
:10A01C00EC671B4DEC6F1C43EC67D4E7194DEC6FF0
:10A02C001C43F5E7184C25689D43256065682B4358
:10A03C006360D8E7144C25681D43F6E702231843E8
:10A04C00D1E713490B6893430B601049D9E71049CA
:10A05C000B681343F8E704231843D5E7094CE16F69
:10A06C009943E167064CE16F9943E16708490B6836
:10A07C0093430B6005490B6893430B60C4E7C046E0
:10A08C0008180240041802400018024094180240BC
:10A09C0090180240002303604360038102338372F3
:10A0AC007047F7B500254B680A680093013B019394
:10A0BC001300EB400AD1019B012B05D84368C968FA
:10A0CC0093434A431A4342600020FEBD012413000F
:10A0DC00AC402340224228D01A0003275A4357434E
:10A0EC003E000468FF43B443009E5643344304606F
:10A0FC00019C012C05D88C68866854433E4034433F
:10A10C0084600C69C668544337402743009CC76081
:10A11C00022C0AD14C69FF2B09D80F265243564307
:10A12C006243036AB343134303620135BBE70F2257
:10A13C001B0A5B435B435A436343466A96431E4385
:10A14C004662F2E7044B0360032343600023836001
:10A15C00C360036143617047FFFF0000314A030095
:10A16C0090420AD18022304B1201196B0A431A63B8
:10A17C001A6B2E490A401A630BE08022D2059042DA
:10A18C0009D10121284BDA6A0A43DA62DA6A8A4376
:10A19C00DA6200207047264A904203D1224B0221FA
:10A1AC00DA6AF1E7234A904203D11F4B1021DA6A95
:10A1BC00EAE7214A904203D11B4B2021DA6AE3E7FC
:10A1CC001E4A904208D18022174B1202196B0A4387
:10A1DC001A631A6B1A49CDE71A4A904208D18022A9
:10A1EC00114B5202196B0A431A631A6B1649C1E7D9
:10A1FC00164A904208D180220B4B9202196B0A43EB
:10A20C001A631A6B1249B5E7124A01209342C1D165
:10A21C008022054BD202196B0A431A631A6B0E4942
:10A22C00A8E7C046002C014000100240FFF7FFFFDA
:10A23C0000040040001000400014004000200040CA
:10A24C00FF7FFFFF00400140FFFFFEFF0044014085
:10A25C00FFFFFDFF00480140FFFFFBFF0122002331
:10A26C005242038043608260C360037470470000F5
:10A27C00204A10B50368904206D08024E405A04221
:10A28C0002D01D4CA0420CD17024A3434C68234334
:10A29C00904212D08024E405A0420ED0164CA0426D
:10A2AC000BD0164CA04208D0154CA04205D0154C32
:10A2BC00A04202D0144CA04203D1144C2340CC68D1
:10A2CC00234303608B68C3620B888362904208D07F
:10A2DC000B4B984205D00B4B984202D00A4B98423C
:10A2EC0001D10B7C036301234269134343610020BA
:10A2FC0010BDC046002C014000040040002000406E
:10A30C00004001400044014000480140FFFCFFFFB9
:10A31C000023036043608360C36003614361836116
:10A32C00C3617047802370B55B01994200D1EEE0A8
:10A33C000BD8102900D173E080235B00994200D127
:10A34C00ACE0012935D0012070BD80235B0299421D
:10A35C0000D107E180235B039942F4D1036A964D47
:10A36C00964C2B400362036A416D2140146826020F
:10A37C00934C31431C4013691B05234354682B40F9
:10A38C00240523438F4CA04208D08F4CA04205D00B
:10A39C008E4CA04202D08E4CA04206D145689469E6
:10A3AC008C4EA40235402C434460D2684165C26592
:10A3BC0034E0036A884E8B430362036A4468856900
:10A3CC003540166835430226B343166933438B4335
:10A3DC0051680B437B49884208D07B49884205D0A1
:10A3EC007A49884202D07A49884213D108218B439A
:10A3FC00190053699B000B4304218B43916889001E
:10A40C000B4376490C4091690C4375490C40D1695A
:10A41C0049000C43D26844608561426303623BE0AF
:10A42C00036A704E8B430362056A43688469344047
:10A43C001668360234432026B5432E0015692D01CB
:10A44C0035438D43290055682D0129435D4DA842A4
:10A45C0008D05D4DA84205D05C4DA84202D05C4DA1
:10A46C00A84214D18025A9430D00516989012943C3
:10A47C004025A9439568AD0129435B4D1D40936967
:10A48C009B002B43594D2B40D569ED002B4343606A
:10A49C00D368846183630162002055E7036A4F4EE1
:10A4AC004D4D33400362016A4368C4692C40156802
:10A4BC002C434B4D0D40116909022943556831401D
:10A4CC002D0229433F4DA84208D03F4DA84205D04C
:10A4DC003E4DA84202D03E4DA84213D1434D0D40F3
:10A4EC00516989022943404D29409568AD022943A1
:10A4FC003F4D1D4093691B012B433E4D2B40D569AD
:10A50C006D012B434360D368C461C363C3E7036A23
:10A51C00374E344D33400362036A4168C4692C40A2
:10A52C0015682D022C43334D1D4013691B032B431F
:10A53C00556833402D032B43224DA84208D0224DA1
:10A54C00A84205D0214DA84202D0214DA84204D1E9
:10A55C00294D29409569AD012943D2684160C461F8
:10A56C0002645BE7036A2549254D0B400362036ACD
:10A57C00446D2C4015682C43224D1D4013691B045F
:10A58C002B4355680B402E040E4D33430E00A8424E
:10A59C0008D00D49884205D00C49884202D00C499C
:10A5AC00884205D1456891693540090229434160CB
:10A5BC00D2684465826531E7FFFFEFFFFF8FFFFE36
:10A5CC00FFFFDFFF002C0140004001400044014030
:10A5DC0000480140FFFFFBFF8CFFFEFFFFFEFFFF6B
:10A5EC00FFFDFFFFFF8CFFFEFFFBFFFFFFF7FFFFF1
:10A5FC00FFEFFFFFFFDFFFFFFFBFFFFFFFFFFEFFD0
:10A60C008FFFFEFFFFFFFDFF80220023520203603D
:10A61C0042608360C3607047802330B55B00994211
:10A62C004AD005D801291BD010292DD0012030BDCE
:10A63C0080235B019942F9D1036A2A4CD5682340E7
:10A64C0003625368C4692B4395682B43264D1B0A40
:10A65C002C402343C3611368046A244A1B033EE065
:10A66C00036AD5688B430362536884692B439568EE
:10A67C0012682B43FF251B0CAC4323430A24836134
:10A68C00036AA343134313E0036AD5688B43036245
:10A69C00536884692B4395682B43134D1B0A2C403C
:10A6AC00234383611368A022046A1B019443234350
:10A6BC00194301620020BAE7036A0D4CD5682340A8
:10A6CC0003625368C4692B4395682B43FF251B0C0D
:10A6DC00AC432343C3611368046A064A1B0222403D
:10A6EC00D0E7C046FFEFFFFFFF00FFFFFF5FFFFF5C
:10A6FC00FFFEFFFFFFF5FFFFFA2110B5054B8900A8
:10A70C0098470022044B013858609A6005321A6051
:10A71C0010BDC046355B000810E000E0014B18602E
:10A72C007047C0462C01002070B50C4D0C4E761BAA
:10A73C00B61005D0002408CD01349847A642FAD1B2
:10A74C00FFF798F9074D084E761BB61005D000247C
:10A75C0008CD01349847A642FAD170BD08B4000860
:10A76C0008B4000808B4000808B40008F0B5C646E0
:10A77C0000B50F2A41D903270D003E0005430C00FC
:10A78C0003002E402F423DD11500103D2D09AC4643
:10A79C002D01A8468044256867681D605F60A56828
:10A7AC00E7689D60DF6010341F0010334745F2D11D
:10A7BC0065460F230C2401352D0149191340451909
:10A7CC00144222D08C59AC5104369C1B032CF9D862
:10A7DC000324043B9B0801339B002240ED18C9184D
:10A7EC00561E002A06D00023CC5C1A00EC54013310
:10A7FC009642F9D104BC9046F0BD0500561E002AC5
:10A80C00F1D1F7E70500561EEDE71A00F6E7C04652
:10A81C00F0B5050083074AD0541E002A44D003002B
:10A82C000322CEB202E00135013C3DD301332E7040
:10A83C001342F8D1032C2FD9FF220A4015021543DD
:10A84C002A0415430F2C35D92700103F3F093E0130
:10A85C00B4461E001A0010366644156055609560AB
:10A86C00D5601032B242F8D10F260C2201373F01CD
:10A87C002640DB193700224217D03E1FB608B40021
:10A88C00A4461A001C1D644420C2A242FCD103241D
:10A89C000136B6009B193C40002C05D0C9B21C19DE
:10A8AC00197001339C42FBD1F0BD3400F4E7140065
:08A8BC000300BFE72700E0E7FD
:10A8C40005090701030B090507010B037F878F9611
:10A8D4009DA4AAB1B7BDC3C9CED3D8DDE1E5E9ECE7
:10A8E400EFF2F5F7F9FBFCFDFEFFFFFFFEFDFCFBBD
:10A8F400F9F7F5F2EFECE9E5E1DDE1E5E9ECEFF29A
:10A90400F5F7F9FBFCFDFEFFFFFFFEFDFCFBF9F78D
:10A91400F5F2EFECE9E5E1DDD8D3CEC9C3BDB7B1BB
:10A92400AAA49D968F877F7870685F574F463E35FF
:10A934002C231B120900000000000000000000008E
:10A944000000000000000000000000000000000003
:10A9540000000000000000000000000000000000F3
:10A9640000000000000000000000000000000000E3
:10A97400000009121B232C353E464F575F68707840
:10A984007F878F969DA4AAB1B7BDC3C9CED3D8DDA6
:10A99400E1E5E9ECEFF2F5F7F9FBFCFDFEFFFFFF63
:10A9A400FEFDFCFBF9F7F5F2EFECE9E5E1DDE1E5AD
:10A9B400E9ECEFF2F5F7F9FBFCFDFEFFFFFFFEFD0E
:10A9C400FCFBF9F7F5F2EFECE9E5E1DDD8D3CEC90C
:10A9D400C3BDB7B1AAA49D968F877F7870685F576F
:10A9E4004F463E352C231B120900000000000000D6
:10A9F4000000000000000000000000000000000053
:10AA04000000000000000000000000000000000042
:10AA14000000000000000000000000000000000032
:10AA240000000000000009121B232C353E464F573E
:10AA34005F6870787F879098A1A9B2BAC3CBD4DC41
:10AA4400E5EDF6FFFFFFFFFFFFFFFFFFFFFFFFFF47
:10AA5400FFFFFFFFFFFFFFFFFFFFFFFFFFFFFFFF02
:10AA6400FFFFFFFFFFFFFFFFFFFFFFFFFFFFFFFFF2
:10AA7400FFFFFFFFFFFFFFFFFFFFFFFFFFFFFFFFE2
:10AA8400F7EEE6DDD5CCC4BBB3AAA2999188807851
:10AA94006F675E564D453C342B231A1209000000A3
:10AAA40000000000000000000000000000000000A2
:10AAB4000000000000000000000000000000000092
:10AAC4000000000000000000000000000000000082
:10AAD40000000000000000000000081119222A33C1
:10AAE4003B444C555D666E777F879098A1A9B2BAB6
:10AAF400C3CBD4DCE5EDF6FFFFFFFFFFFFFFFFFF55
:10AB0400FFFFFFFFFFFFFFFFFFFFFFFFFFFFFFFF51
:10AB1400FFFFFFFFFFFFFFFFFFFFFFFFFFFFFFFF41
:10AB2400FFFFFFFFFFFFFFFFFFFFFFFFFFFFFFFF31
:10AB3400FFFFFFFFF7EEE6DDD5CCC4BBB3AAA299B5
:10AB4400918880786F675E564D453C342B231A12EA
:10AB540009000000000000000000000000000000E8
:10AB640000000000000000000000000000000000E1
:10AB740000000000000000000000000000000000D1
:10AB840000000000000000000000000000000811A8
:10AB940019222A333B444C555D666E770000010050
:10ABA4000200030004000500060007000800090075
:10ABB4000A000B000C000D000E000F001000110025
:10ABC40012001300140015001600170018002000CE
:10ABD400240028002C002F003200350038003B00F0
:10ABE4003E0040004300450048004A004C004F002E
:10ABF40051005300550057005A005C005E0060008D
:10AC040062006400660068006A006C006D006F00FA
:10AC1400710073007500770079007A007C007E0073
:10AC24008000810083008500870088008A008C00F2
:10AC34008D008F0091009200940096009700990077
:10AC44009A009C009E009F00A100A200A400A50001
:10AC5400A700A900AA00AC00AD00AF00B000B2008C
:10AC6400B300B500B600B800B900BB00BC00BD001D
:10AC7400BF00C000C200C300C500C600C800C900B0
:10AC8400CA00CC00CD00CF00D000D100D300D40046
:10AC9400D500D700D800DA00DB00DC00DE00DF00DE
:10ACA400E000E200E300E400E600E700E800EA0078
:10ACB400EB00EC00EE00EF00F000F200F300F40013
:10ACC400F500F700F800F900FB00FC00FD00FE00B1
:10ACD4000001010102010401050106010701090146
:10ACE4000A010B010C010E010F01100111011301E6
:10ACF400140115011601170119011A011B011C0188
:10AD04001E011F0120012101220124012501260128
:10AD14002701280129012B012C012D012E012F01CE
:10AD24003101320133013401350136013801390171
:10AD34003A013B013C013D013F0140014101420117
:10AD44004301440145014701480149014A014B01BE
:10AD54004C014D014F015001510152015301540165
:10AD640055015601580159015A015B015C015D010D
:10AD74005E015F01600162016301640165016601B6
:10AD84006701680169016A016B016D016E016F0160
:10AD9400700171017201730174017501760177010B
:10ADA400780179017B017C017D017E017F018001B5
:10ADB4008101820183018401850186018701880163
:10ADC40089018A018C018D018E018F01900191010D
:10ADD40092019301940195019601970198019901BB
:10ADE4009A019B019C019D019E019F01A001A1016B
:10ADF400A201A301A401A501A601A801A901AA0118
:10AE0400AB01AC01AD01AE01AF01B001B101B201C2
:10AE1400B301B401B501B601B701B801B901BA0172
:10AE2400BB01BC01BD01BE01BF01C001C101C20122
:10AE3400C301C401C501C601C701C801C901CA01D2
:10AE4400CB01CC01CD01CE01CF01D001D101D20182
:10AE5400D301D401D401D501D601D701D801D90138
:10AE6400DA01DB01DC01DD01DE01DF01E001E101EA
:10AE7400E201E301E401E501E601E701E801E9019A
:10AE8400EA01EB01EC01ED01EE01EF01F001F1014A
:10AE9400F101F201F301F401F501F601F701F80102
:10AEA400F901FA01FB01FC01FD01FE01FF010002B1
:10AEB400010202020302030204020502060207025F
:10AEC400080209020A020B020C020D020E020F0212
:10AED40010021102120212021302140215021602C7
:10AEE4001702180219021A021B021C021D021E027A
:10AEF4001E021F0220022102220223022402250232
:10AF0400260227022802290229022A022B022C02E5
:10AF14002D022E022F02300231023202330233029A
:10AF24003402350236023702380239023A023B0251
:10AF34003C023C023D023E023F0240024102420208
:10AF440043024402450245024602470248024902BE
:10AF54004A024B024C024D024D024E024F02500275
:10AF6400510252025302540255025502560257022C
:10AF7400580259025A025B025C025D025D025E02E3
:10AF84005F0260026102620263026402640265029B
:10AF940066026702680269026A026B026B026C0253
:10AFA4006D026E026F02700271027102720273020C
:10AFB40074027502760277027802780279027A02C4
:10AFC4007B027C027D027E027E027F02800281027D
:10AFD4008202830284028402850286028702880236
:10AFE40089028A028A028B028C028D028E028F02EF
:10AFF40090029002910292029302940295029502A9
:10B0040096029702980299029A029B029B029C0262
:10B014009D029E029F02A002A002A102A202A3021C
:10B02400A402A502A502A602A702A802A902AA02D6
:10B03400AA02AB02AC02AD02AE02AF02B002B00291
:10B04400B102B202B302B402B502B502B602B7024B
:10B05400B802B902B902BA02BB02BC02BD02BE0206
:10B06400BE02BF02C002C102C202C302C302C402C2
:10B07400C502C602C702C802C802C902CA02CB027C
:10B08400CC02CC02CD02CE02CF02D002D102D10238
:10B09400D202D302D402D502D502D602D702D802F4
:10B0A400D902DA02DA02DB02DC02DD02DE02DE02AF
:10B0B400DF02E002E102E202E202E302E402E5026C
:10B0C400E602E602E702E802E902EA02EB02EB0228
:10B0D400EC02ED02EE02EF02EF02F002F102F202E4
:10B0E400F302F302F402F502F602F702F702F802A1
:10B0F400F902FA02FB02FB02FC02FD02FE02FF025D
:10B10400FF02000301030203030303030403050313
:10B11400060306030703080309030A030A030B03D0
:10B124000C030D030E030E030F031003110312038C
:10B13400120313031403150316031603170318034A
:10B14400190319031A031B031C031D031D031E0308
:10B154001F032003210321032203230324032403C5
:10B164002503260327032803280329032A032B0383
:10B174002B032C032D032E032F032F033003310342
:10B184003203320333033403350336033603370300
:10B194003803390339033A033B033C033C033D03BF
:10B1A4003E033F034003400341034203430343037D
:10B1B40044034503460347034703480349034A033B
:10B1C4004A034B034C034D034D034E034F035003FB
:10B1D40050035103520353035403540355035603BA
:10B1E40057035703580359035A035A035B035C0379
:10B1F4005D035D035E035F03600360036103620339
:10B2040063036303640365036603670367036803F7
:10B2140069036A036A036B036C036D036D036E03B6
:10B224006F03700370037103720373037303740376
:10B2340075037603760377037803790379037A0336
:10B244007B037C037C037D037E037F037F038003F6
:10B2540081038203820383038403850385038603B6
:10B2640087038803880389038A038B038B038C0376
:10B274008D038D038E038F03900390039103920338
:10B2840093039303940395039603960397039803F8
:10B29400990399039A039B039C039C039D039E03B8
:10B2A4009F039F03A003A103A103A203A303A40379
:10B2B400A403A503A603A703A703A803A903AA033A
:10B2C400AA03AB03AC03AC03AD03AE03AF03AF03FC
:10B2D400B003B103B203B203B303B403B503B503BC
:10B2E400B603B703B703B803B903BA03BA03BB037E
:10B2F400BC03BD03BD03BE03BF03BF03C003C1033F
:10B30400C203C203C303C403C503C503C603C703FF
:10B31400C703C803C903CA03CA03CB03CC03CC03C2
:10B32400CD03CE03CF03CF03D003D103D203D20383
:10B33400D303D403D403D503D603D703D703D80345
:10B34400D903D903DA03DB03DC03DC03DD03DE0307
:10B35400DE03DF03E003E103E103E203E303E303CA
:10B36400E403E503E603E603E703E8030000000063
:10B37400000000000000000000002B00000000009E
:10B384002B00000000006A0E010064000000E803C6
:10B39400D0070100640000000000190002650000ED
:10B3A4000000000000000000000000000A0000008F
:10B3B4009A016400010000004A0194110700000092
:10B3C400000006000000000000000A0000000A005F
:10B3D4000000081C3044586C8002000046870008B6
:10B3E4001C87000826870008308700083A87000871
:0CB3F400F4860008F4860008F4860008C7
:08B4000060AAFF7F01000000BB
:10B4080001000000E8030000000000000000000048
:10B41800000000000000000000000000E803000039
:10B428000000000000000000000000000000000014
:10B438000000000020A107001400803E3C7801FFB6
:10B4480001006400010314FF8084888D91969A9E00
:10B45800A3A7ABAFB3B7BBBFC3C7CACED1D5D8DBE1
:10B46800DEE1E4E7E9ECEEF0F2F4F6F7F9FAFBFCDA
:10B47800FDFEFEFFFFFFFFFFFEFEFDFCFBFAF9F7F6
:10B48800F6F4F2F0EEECE9E7E4E1DEDBD8D5D1CE74
:10B49800CAC7C3BFBBB7B3AFABA7A39E9A96918DDC
:10B4A8008884807B77726E6965615C5854504C481B
:10B4B80044403C3835312E2A2724211E1B181613E8
:10B4C800110F0D0B09080605040302010100000015
:10B4D80000000101020304050608090B0D0F1113F2
:10B4E80016181B1E2124272A2E3135383C40444883
:10B4F8004C5054585C6165696E72777B95AABED1D1
:10B50800E0EDF6FCFEFCF6EDE0D1BFAA957F6954AC
:10B51800402D1E110802000208111E2D3F54697F9C
:10B5280002080104E803E803F40100000024F40021
:0400000508009C054E
:00000001FF
